{
	"nim.sol": {
		"NimBoard": {
			"abi": [
				{
					"inputs": [
						{
							"internalType": "contract NimPlayer",
							"name": "a",
							"type": "address"
						},
						{
							"internalType": "contract NimPlayer",
							"name": "b",
							"type": "address"
						},
						{
							"internalType": "uint256[]",
							"name": "piles",
							"type": "uint256[]"
						}
					],
					"name": "startMisere",
					"outputs": [],
					"stateMutability": "payable",
					"type": "function"
				}
			],
			"devdoc": {
				"kind": "dev",
				"methods": {},
				"version": 1
			},
			"evm": {
				"assembly": "    /* \"nim.sol\":3454:5392  contract NimBoard is Nim {... */\n  mstore(0x40, 0x80)\n  callvalue\n  dup1\n  iszero\n  tag_1\n  jumpi\n  0x00\n  dup1\n  revert\ntag_1:\n  pop\n  dataSize(sub_0)\n  dup1\n  dataOffset(sub_0)\n  0x00\n  codecopy\n  0x00\n  return\nstop\n\nsub_0: assembly {\n        /* \"nim.sol\":3454:5392  contract NimBoard is Nim {... */\n      mstore(0x40, 0x80)\n      jumpi(tag_1, lt(calldatasize, 0x04))\n      shr(0xe0, calldataload(0x00))\n      dup1\n      0x11c28c99\n      eq\n      tag_2\n      jumpi\n    tag_1:\n      0x00\n      dup1\n      revert\n        /* \"nim.sol\":3485:5156  function startMisere(NimPlayer a, NimPlayer b, uint256[] calldata piles) payable external {... */\n    tag_2:\n      tag_3\n      0x04\n      dup1\n      calldatasize\n      sub\n      dup2\n      add\n      swap1\n      tag_4\n      swap2\n      swap1\n      tag_5\n      jump\t// in\n    tag_4:\n      tag_6\n      jump\t// in\n    tag_3:\n      stop\n    tag_6:\n        /* \"nim.sol\":3652:3663  0.001 ether */\n      0x038d7ea4c68000\n        /* \"nim.sol\":3640:3649  msg.value */\n      callvalue\n        /* \"nim.sol\":3640:3663  msg.value > 0.001 ether */\n      gt\n        /* \"nim.sol\":3632:3686  require(msg.value > 0.001 ether, \"Not enough gas fee\") */\n      tag_8\n      jumpi\n      mload(0x40)\n      0x08c379a000000000000000000000000000000000000000000000000000000000\n      dup2\n      mstore\n      0x04\n      add\n      tag_9\n      swap1\n      tag_10\n      jump\t// in\n    tag_9:\n      mload(0x40)\n      dup1\n      swap2\n      sub\n      swap1\n      revert\n    tag_8:\n        /* \"nim.sol\":3728:3739  uint256 win */\n      0x00\n        /* \"nim.sol\":3754:3765  0.001 ether */\n      0x038d7ea4c68000\n        /* \"nim.sol\":3742:3751  msg.value */\n      callvalue\n        /* \"nim.sol\":3742:3765  msg.value - 0.001 ether */\n      tag_11\n      swap2\n      swap1\n      tag_12\n      jump\t// in\n    tag_11:\n        /* \"nim.sol\":3728:3765  uint256 win = msg.value - 0.001 ether */\n      swap1\n      pop\n        /* \"nim.sol\":3775:3805  uint256[] memory current_piles */\n      0x00\n        /* \"nim.sol\":3808:3813  piles */\n      dup4\n      dup4\n        /* \"nim.sol\":3775:3813  uint256[] memory current_piles = piles */\n      dup1\n      dup1\n      0x20\n      mul\n      0x20\n      add\n      mload(0x40)\n      swap1\n      dup2\n      add\n      0x40\n      mstore\n      dup1\n      swap4\n      swap3\n      swap2\n      swap1\n      dup2\n      dup2\n      mstore\n      0x20\n      add\n      dup4\n      dup4\n      0x20\n      mul\n      dup1\n      dup3\n      dup5\n      calldatacopy\n      0x00\n      dup2\n      dup5\n      add\n      mstore\n      not(0x1f)\n      0x1f\n      dup3\n      add\n      and\n      swap1\n      pop\n      dup1\n      dup4\n      add\n      swap3\n      pop\n      pop\n      pop\n      pop\n      pop\n      pop\n      pop\n      swap1\n      pop\n        /* \"nim.sol\":3823:3834  bool player */\n      0x00\n        /* \"nim.sol\":3837:3841  true */\n      0x01\n        /* \"nim.sol\":3823:3841  bool player = true */\n      swap1\n      pop\n        /* \"nim.sol\":3851:3867  bool is_game_end */\n      0x00\n        /* \"nim.sol\":3885:3894  uint pile */\n      dup1\n        /* \"nim.sol\":3904:3915  uint number */\n      dup1\n        /* \"nim.sol\":3961:4989  while(!is_game_end) {... */\n    tag_13:\n        /* \"nim.sol\":3968:3979  is_game_end */\n      dup3\n        /* \"nim.sol\":3961:4989  while(!is_game_end) {... */\n      tag_14\n      jumpi\n        /* \"nim.sol\":4028:4034  player */\n      dup4\n        /* \"nim.sol\":4024:4654  if (player) {... */\n      iszero\n      tag_15\n      jumpi\n        /* \"nim.sol\":4105:4106  a */\n      dup10\n        /* \"nim.sol\":4105:4115  a.nextMove */\n      0xffffffffffffffffffffffffffffffffffffffff\n      and\n      0x14f6f57a\n        /* \"nim.sol\":4116:4129  current_piles */\n      dup7\n        /* \"nim.sol\":4105:4130  a.nextMove(current_piles) */\n      mload(0x40)\n      dup3\n      0xffffffff\n      and\n      0xe0\n      shl\n      dup2\n      mstore\n      0x04\n      add\n      tag_16\n      swap2\n      swap1\n      tag_17\n      jump\t// in\n    tag_16:\n      0x40\n      dup1\n      mload\n      dup1\n      dup4\n      sub\n      dup2\n      0x00\n      dup8\n      gas\n      call\n      iszero\n      dup1\n      iszero\n      tag_19\n      jumpi\n      returndatasize\n      0x00\n      dup1\n      returndatacopy\n      revert(0x00, returndatasize)\n    tag_19:\n      pop\n      pop\n      pop\n      pop\n      mload(0x40)\n      returndatasize\n      not(0x1f)\n      0x1f\n      dup3\n      add\n      and\n      dup3\n      add\n      dup1\n      0x40\n      mstore\n      pop\n      dup2\n      add\n      swap1\n      tag_20\n      swap2\n      swap1\n      tag_21\n      jump\t// in\n    tag_20:\n        /* \"nim.sol\":4088:4130  (pile, number) = a.nextMove(current_piles) */\n      dup1\n      swap3\n      pop\n      dup2\n      swap4\n      pop\n      pop\n      pop\n        /* \"nim.sol\":4189:4221  is_valid_move(pile,number,piles) */\n      tag_22\n        /* \"nim.sol\":4203:4207  pile */\n      dup3\n        /* \"nim.sol\":4208:4214  number */\n      dup3\n        /* \"nim.sol\":4215:4220  piles */\n      dup11\n      dup11\n        /* \"nim.sol\":4189:4202  is_valid_move */\n      tag_23\n        /* \"nim.sol\":4189:4221  is_valid_move(pile,number,piles) */\n      jump\t// in\n    tag_22:\n        /* \"nim.sol\":4185:4349  if(!is_valid_move(pile,number,piles)) {... */\n      tag_24\n      jumpi\n        /* \"nim.sol\":4245:4246  a */\n      dup10\n        /* \"nim.sol\":4245:4259  a.UlostBadMove */\n      0xffffffffffffffffffffffffffffffffffffffff\n      and\n      0xc6616c46\n        /* \"nim.sol\":4245:4261  a.UlostBadMove() */\n      mload(0x40)\n      dup2\n      0xffffffff\n      and\n      0xe0\n      shl\n      dup2\n      mstore\n      0x04\n      add\n      0x00\n      mload(0x40)\n      dup1\n      dup4\n      sub\n      dup2\n      0x00\n      dup8\n      dup1\n      extcodesize\n      iszero\n      dup1\n      iszero\n      tag_25\n      jumpi\n      0x00\n      dup1\n      revert\n    tag_25:\n      pop\n      gas\n      call\n      iszero\n      dup1\n      iszero\n      tag_27\n      jumpi\n      returndatasize\n      0x00\n      dup1\n      returndatacopy\n      revert(0x00, returndatasize)\n    tag_27:\n      pop\n      pop\n      pop\n      pop\n        /* \"nim.sol\":4283:4284  b */\n      dup9\n        /* \"nim.sol\":4283:4289  b.Uwon */\n      0xffffffffffffffffffffffffffffffffffffffff\n      and\n      0x0bc59f4f\n        /* \"nim.sol\":4296:4299  win */\n      dup8\n        /* \"nim.sol\":4283:4302  b.Uwon{value:win}() */\n      mload(0x40)\n      dup3\n      0xffffffff\n      and\n      0xe0\n      shl\n      dup2\n      mstore\n      0x04\n      add\n      0x00\n      mload(0x40)\n      dup1\n      dup4\n      sub\n      dup2\n      dup6\n      dup9\n      dup1\n      extcodesize\n      iszero\n      dup1\n      iszero\n      tag_28\n      jumpi\n      0x00\n      dup1\n      revert\n    tag_28:\n      pop\n      gas\n      call\n      iszero\n      dup1\n      iszero\n      tag_30\n      jumpi\n      returndatasize\n      0x00\n      dup1\n      returndatacopy\n      revert(0x00, returndatasize)\n    tag_30:\n      pop\n      pop\n      pop\n      pop\n      pop\n        /* \"nim.sol\":4324:4331  return; */\n      pop\n      pop\n      pop\n      pop\n      pop\n      pop\n      jump(tag_7)\n        /* \"nim.sol\":4185:4349  if(!is_valid_move(pile,number,piles)) {... */\n    tag_24:\n        /* \"nim.sol\":4024:4654  if (player) {... */\n      jump(tag_31)\n    tag_15:\n        /* \"nim.sol\":4433:4434  b */\n      dup9\n        /* \"nim.sol\":4433:4443  b.nextMove */\n      0xffffffffffffffffffffffffffffffffffffffff\n      and\n      0x14f6f57a\n        /* \"nim.sol\":4444:4457  current_piles */\n      dup7\n        /* \"nim.sol\":4433:4458  b.nextMove(current_piles) */\n      mload(0x40)\n      dup3\n      0xffffffff\n      and\n      0xe0\n      shl\n      dup2\n      mstore\n      0x04\n      add\n      tag_32\n      swap2\n      swap1\n      tag_17\n      jump\t// in\n    tag_32:\n      0x40\n      dup1\n      mload\n      dup1\n      dup4\n      sub\n      dup2\n      0x00\n      dup8\n      gas\n      call\n      iszero\n      dup1\n      iszero\n      tag_34\n      jumpi\n      returndatasize\n      0x00\n      dup1\n      returndatacopy\n      revert(0x00, returndatasize)\n    tag_34:\n      pop\n      pop\n      pop\n      pop\n      mload(0x40)\n      returndatasize\n      not(0x1f)\n      0x1f\n      dup3\n      add\n      and\n      dup3\n      add\n      dup1\n      0x40\n      mstore\n      pop\n      dup2\n      add\n      swap1\n      tag_35\n      swap2\n      swap1\n      tag_21\n      jump\t// in\n    tag_35:\n        /* \"nim.sol\":4416:4458  (pile, number) = b.nextMove(current_piles) */\n      dup1\n      swap3\n      pop\n      dup2\n      swap4\n      pop\n      pop\n      pop\n        /* \"nim.sol\":4480:4512  is_valid_move(pile,number,piles) */\n      tag_36\n        /* \"nim.sol\":4494:4498  pile */\n      dup3\n        /* \"nim.sol\":4499:4505  number */\n      dup3\n        /* \"nim.sol\":4506:4511  piles */\n      dup11\n      dup11\n        /* \"nim.sol\":4480:4493  is_valid_move */\n      tag_23\n        /* \"nim.sol\":4480:4512  is_valid_move(pile,number,piles) */\n      jump\t// in\n    tag_36:\n        /* \"nim.sol\":4476:4640  if(!is_valid_move(pile,number,piles)) {... */\n      tag_37\n      jumpi\n        /* \"nim.sol\":4536:4537  b */\n      dup9\n        /* \"nim.sol\":4536:4550  b.UlostBadMove */\n      0xffffffffffffffffffffffffffffffffffffffff\n      and\n      0xc6616c46\n        /* \"nim.sol\":4536:4552  b.UlostBadMove() */\n      mload(0x40)\n      dup2\n      0xffffffff\n      and\n      0xe0\n      shl\n      dup2\n      mstore\n      0x04\n      add\n      0x00\n      mload(0x40)\n      dup1\n      dup4\n      sub\n      dup2\n      0x00\n      dup8\n      dup1\n      extcodesize\n      iszero\n      dup1\n      iszero\n      tag_38\n      jumpi\n      0x00\n      dup1\n      revert\n    tag_38:\n      pop\n      gas\n      call\n      iszero\n      dup1\n      iszero\n      tag_40\n      jumpi\n      returndatasize\n      0x00\n      dup1\n      returndatacopy\n      revert(0x00, returndatasize)\n    tag_40:\n      pop\n      pop\n      pop\n      pop\n        /* \"nim.sol\":4574:4575  a */\n      dup10\n        /* \"nim.sol\":4574:4580  a.Uwon */\n      0xffffffffffffffffffffffffffffffffffffffff\n      and\n      0x0bc59f4f\n        /* \"nim.sol\":4587:4590  win */\n      dup8\n        /* \"nim.sol\":4574:4593  a.Uwon{value:win}() */\n      mload(0x40)\n      dup3\n      0xffffffff\n      and\n      0xe0\n      shl\n      dup2\n      mstore\n      0x04\n      add\n      0x00\n      mload(0x40)\n      dup1\n      dup4\n      sub\n      dup2\n      dup6\n      dup9\n      dup1\n      extcodesize\n      iszero\n      dup1\n      iszero\n      tag_41\n      jumpi\n      0x00\n      dup1\n      revert\n    tag_41:\n      pop\n      gas\n      call\n      iszero\n      dup1\n      iszero\n      tag_43\n      jumpi\n      returndatasize\n      0x00\n      dup1\n      returndatacopy\n      revert(0x00, returndatasize)\n    tag_43:\n      pop\n      pop\n      pop\n      pop\n      pop\n        /* \"nim.sol\":4615:4622  return; */\n      pop\n      pop\n      pop\n      pop\n      pop\n      pop\n      jump(tag_7)\n        /* \"nim.sol\":4476:4640  if(!is_valid_move(pile,number,piles)) {... */\n    tag_37:\n        /* \"nim.sol\":4024:4654  if (player) {... */\n    tag_31:\n        /* \"nim.sol\":4690:4696  number */\n      dup1\n        /* \"nim.sol\":4667:4680  current_piles */\n      dup6\n        /* \"nim.sol\":4681:4685  pile */\n      dup4\n        /* \"nim.sol\":4667:4686  current_piles[pile] */\n      dup2\n      mload\n      dup2\n      lt\n      tag_44\n      jumpi\n      tag_45\n      tag_46\n      jump\t// in\n    tag_45:\n    tag_44:\n      0x20\n      mul\n      0x20\n      add\n      add\n        /* \"nim.sol\":4667:4696  current_piles[pile] -= number */\n      dup2\n      dup2\n      mload\n      tag_47\n      swap2\n      swap1\n      tag_12\n      jump\t// in\n    tag_47:\n      swap2\n      pop\n      dup2\n      dup2\n      mstore\n      pop\n      pop\n        /* \"nim.sol\":4720:4726  player */\n      dup4\n        /* \"nim.sol\":4719:4726  !player */\n      iszero\n        /* \"nim.sol\":4710:4726  player = !player */\n      swap4\n      pop\n        /* \"nim.sol\":4794:4798  true */\n      0x01\n        /* \"nim.sol\":4780:4798  is_game_end = true */\n      swap3\n      pop\n        /* \"nim.sol\":4817:4823  uint i */\n      0x00\n        /* \"nim.sol\":4813:4979  for(uint i = 0; i < current_piles.length; i++) {... */\n    tag_48:\n        /* \"nim.sol\":4833:4846  current_piles */\n      dup6\n        /* \"nim.sol\":4833:4853  current_piles.length */\n      mload\n        /* \"nim.sol\":4829:4830  i */\n      dup2\n        /* \"nim.sol\":4829:4853  i < current_piles.length */\n      lt\n        /* \"nim.sol\":4813:4979  for(uint i = 0; i < current_piles.length; i++) {... */\n      iszero\n      tag_49\n      jumpi\n        /* \"nim.sol\":4902:4903  0 */\n      0x00\n        /* \"nim.sol\":4882:4895  current_piles */\n      dup7\n        /* \"nim.sol\":4896:4897  i */\n      dup3\n        /* \"nim.sol\":4882:4898  current_piles[i] */\n      dup2\n      mload\n      dup2\n      lt\n      tag_51\n      jumpi\n      tag_52\n      tag_46\n      jump\t// in\n    tag_52:\n    tag_51:\n      0x20\n      mul\n      0x20\n      add\n      add\n      mload\n        /* \"nim.sol\":4882:4903  current_piles[i] != 0 */\n      eq\n        /* \"nim.sol\":4878:4965  if (current_piles[i] != 0) {... */\n      tag_53\n      jumpi\n        /* \"nim.sol\":4941:4946  false */\n      0x00\n        /* \"nim.sol\":4927:4946  is_game_end = false */\n      swap4\n      pop\n        /* \"nim.sol\":4878:4965  if (current_piles[i] != 0) {... */\n    tag_53:\n        /* \"nim.sol\":4855:4858  i++ */\n      dup1\n      dup1\n      0x01\n      add\n      swap2\n      pop\n      pop\n        /* \"nim.sol\":4813:4979  for(uint i = 0; i < current_piles.length; i++) {... */\n      jump(tag_48)\n    tag_49:\n      pop\n        /* \"nim.sol\":3961:4989  while(!is_game_end) {... */\n      jump(tag_13)\n    tag_14:\n        /* \"nim.sol\":5002:5008  player */\n      dup4\n        /* \"nim.sol\":4999:5150  if(player) {... */\n      iszero\n      tag_54\n      jumpi\n        /* \"nim.sol\":5024:5025  b */\n      dup9\n        /* \"nim.sol\":5024:5031  b.Ulost */\n      0xffffffffffffffffffffffffffffffffffffffff\n      and\n      0xde6de521\n        /* \"nim.sol\":5024:5033  b.Ulost() */\n      mload(0x40)\n      dup2\n      0xffffffff\n      and\n      0xe0\n      shl\n      dup2\n      mstore\n      0x04\n      add\n      0x00\n      mload(0x40)\n      dup1\n      dup4\n      sub\n      dup2\n      0x00\n      dup8\n      dup1\n      extcodesize\n      iszero\n      dup1\n      iszero\n      tag_55\n      jumpi\n      0x00\n      dup1\n      revert\n    tag_55:\n      pop\n      gas\n      call\n      iszero\n      dup1\n      iszero\n      tag_57\n      jumpi\n      returndatasize\n      0x00\n      dup1\n      returndatacopy\n      revert(0x00, returndatasize)\n    tag_57:\n      pop\n      pop\n      pop\n      pop\n        /* \"nim.sol\":5047:5048  a */\n      dup10\n        /* \"nim.sol\":5047:5053  a.Uwon */\n      0xffffffffffffffffffffffffffffffffffffffff\n      and\n      0x0bc59f4f\n        /* \"nim.sol\":5060:5063  win */\n      dup8\n        /* \"nim.sol\":5047:5066  a.Uwon{value:win}() */\n      mload(0x40)\n      dup3\n      0xffffffff\n      and\n      0xe0\n      shl\n      dup2\n      mstore\n      0x04\n      add\n      0x00\n      mload(0x40)\n      dup1\n      dup4\n      sub\n      dup2\n      dup6\n      dup9\n      dup1\n      extcodesize\n      iszero\n      dup1\n      iszero\n      tag_58\n      jumpi\n      0x00\n      dup1\n      revert\n    tag_58:\n      pop\n      gas\n      call\n      iszero\n      dup1\n      iszero\n      tag_60\n      jumpi\n      returndatasize\n      0x00\n      dup1\n      returndatacopy\n      revert(0x00, returndatasize)\n    tag_60:\n      pop\n      pop\n      pop\n      pop\n      pop\n        /* \"nim.sol\":4999:5150  if(player) {... */\n      jump(tag_61)\n    tag_54:\n        /* \"nim.sol\":5097:5098  a */\n      dup10\n        /* \"nim.sol\":5097:5104  a.Ulost */\n      0xffffffffffffffffffffffffffffffffffffffff\n      and\n      0xde6de521\n        /* \"nim.sol\":5097:5106  a.Ulost() */\n      mload(0x40)\n      dup2\n      0xffffffff\n      and\n      0xe0\n      shl\n      dup2\n      mstore\n      0x04\n      add\n      0x00\n      mload(0x40)\n      dup1\n      dup4\n      sub\n      dup2\n      0x00\n      dup8\n      dup1\n      extcodesize\n      iszero\n      dup1\n      iszero\n      tag_62\n      jumpi\n      0x00\n      dup1\n      revert\n    tag_62:\n      pop\n      gas\n      call\n      iszero\n      dup1\n      iszero\n      tag_64\n      jumpi\n      returndatasize\n      0x00\n      dup1\n      returndatacopy\n      revert(0x00, returndatasize)\n    tag_64:\n      pop\n      pop\n      pop\n      pop\n        /* \"nim.sol\":5120:5121  b */\n      dup9\n        /* \"nim.sol\":5120:5126  b.Uwon */\n      0xffffffffffffffffffffffffffffffffffffffff\n      and\n      0x0bc59f4f\n        /* \"nim.sol\":5133:5136  win */\n      dup8\n        /* \"nim.sol\":5120:5139  b.Uwon{value:win}() */\n      mload(0x40)\n      dup3\n      0xffffffff\n      and\n      0xe0\n      shl\n      dup2\n      mstore\n      0x04\n      add\n      0x00\n      mload(0x40)\n      dup1\n      dup4\n      sub\n      dup2\n      dup6\n      dup9\n      dup1\n      extcodesize\n      iszero\n      dup1\n      iszero\n      tag_65\n      jumpi\n      0x00\n      dup1\n      revert\n    tag_65:\n      pop\n      gas\n      call\n      iszero\n      dup1\n      iszero\n      tag_67\n      jumpi\n      returndatasize\n      0x00\n      dup1\n      returndatacopy\n      revert(0x00, returndatasize)\n    tag_67:\n      pop\n      pop\n      pop\n      pop\n      pop\n        /* \"nim.sol\":4999:5150  if(player) {... */\n    tag_61:\n        /* \"nim.sol\":3575:5156  {... */\n      pop\n      pop\n      pop\n      pop\n      pop\n      pop\n        /* \"nim.sol\":3485:5156  function startMisere(NimPlayer a, NimPlayer b, uint256[] calldata piles) payable external {... */\n    tag_7:\n      pop\n      pop\n      pop\n      pop\n      jump\t// out\n        /* \"nim.sol\":5162:5390  function is_valid_move(uint pile, uint256 number, uint256[] calldata piles) internal pure returns (bool) {... */\n    tag_23:\n        /* \"nim.sol\":5261:5265  bool */\n      0x00\n        /* \"nim.sol\":5288:5293  piles */\n      dup3\n      dup3\n        /* \"nim.sol\":5288:5300  piles.length */\n      swap1\n      pop\n        /* \"nim.sol\":5281:5285  pile */\n      dup6\n        /* \"nim.sol\":5281:5300  pile > piles.length */\n      gt\n        /* \"nim.sol\":5281:5324  pile > piles.length || piles[pile] < number */\n      dup1\n      tag_69\n      jumpi\n      pop\n        /* \"nim.sol\":5318:5324  number */\n      dup4\n        /* \"nim.sol\":5304:5309  piles */\n      dup4\n      dup4\n        /* \"nim.sol\":5310:5314  pile */\n      dup8\n        /* \"nim.sol\":5304:5315  piles[pile] */\n      dup2\n      dup2\n      lt\n      tag_70\n      jumpi\n      tag_71\n      tag_46\n      jump\t// in\n    tag_71:\n    tag_70:\n      swap1\n      pop\n      0x20\n      mul\n      add\n      calldataload\n        /* \"nim.sol\":5304:5324  piles[pile] < number */\n      lt\n        /* \"nim.sol\":5281:5324  pile > piles.length || piles[pile] < number */\n    tag_69:\n        /* \"nim.sol\":5277:5363  if (pile > piles.length || piles[pile] < number) {... */\n      iszero\n      tag_72\n      jumpi\n        /* \"nim.sol\":5347:5352  false */\n      0x00\n        /* \"nim.sol\":5340:5352  return false */\n      swap1\n      pop\n      jump(tag_68)\n        /* \"nim.sol\":5277:5363  if (pile > piles.length || piles[pile] < number) {... */\n    tag_72:\n        /* \"nim.sol\":5379:5383  true */\n      0x01\n        /* \"nim.sol\":5372:5383  return true */\n      swap1\n      pop\n        /* \"nim.sol\":5162:5390  function is_valid_move(uint pile, uint256 number, uint256[] calldata piles) internal pure returns (bool) {... */\n    tag_68:\n      swap5\n      swap4\n      pop\n      pop\n      pop\n      pop\n      jump\t// out\n        /* \"#utility.yul\":88:205   */\n    tag_74:\n        /* \"#utility.yul\":197:198   */\n      0x00\n        /* \"#utility.yul\":194:195   */\n      dup1\n        /* \"#utility.yul\":187:199   */\n      revert\n        /* \"#utility.yul\":211:328   */\n    tag_75:\n        /* \"#utility.yul\":320:321   */\n      0x00\n        /* \"#utility.yul\":317:318   */\n      dup1\n        /* \"#utility.yul\":310:322   */\n      revert\n        /* \"#utility.yul\":334:460   */\n    tag_76:\n        /* \"#utility.yul\":371:378   */\n      0x00\n        /* \"#utility.yul\":411:453   */\n      0xffffffffffffffffffffffffffffffffffffffff\n        /* \"#utility.yul\":404:409   */\n      dup3\n        /* \"#utility.yul\":400:454   */\n      and\n        /* \"#utility.yul\":389:454   */\n      swap1\n      pop\n        /* \"#utility.yul\":334:460   */\n      swap2\n      swap1\n      pop\n      jump\t// out\n        /* \"#utility.yul\":466:562   */\n    tag_77:\n        /* \"#utility.yul\":503:510   */\n      0x00\n        /* \"#utility.yul\":532:556   */\n      tag_105\n        /* \"#utility.yul\":550:555   */\n      dup3\n        /* \"#utility.yul\":532:556   */\n      tag_76\n      jump\t// in\n    tag_105:\n        /* \"#utility.yul\":521:556   */\n      swap1\n      pop\n        /* \"#utility.yul\":466:562   */\n      swap2\n      swap1\n      pop\n      jump\t// out\n        /* \"#utility.yul\":568:680   */\n    tag_78:\n        /* \"#utility.yul\":621:628   */\n      0x00\n        /* \"#utility.yul\":650:674   */\n      tag_107\n        /* \"#utility.yul\":668:673   */\n      dup3\n        /* \"#utility.yul\":650:674   */\n      tag_77\n      jump\t// in\n    tag_107:\n        /* \"#utility.yul\":639:674   */\n      swap1\n      pop\n        /* \"#utility.yul\":568:680   */\n      swap2\n      swap1\n      pop\n      jump\t// out\n        /* \"#utility.yul\":686:840   */\n    tag_79:\n        /* \"#utility.yul\":775:815   */\n      tag_109\n        /* \"#utility.yul\":809:814   */\n      dup2\n        /* \"#utility.yul\":775:815   */\n      tag_78\n      jump\t// in\n    tag_109:\n        /* \"#utility.yul\":768:773   */\n      dup2\n        /* \"#utility.yul\":765:816   */\n      eq\n        /* \"#utility.yul\":755:834   */\n      tag_110\n      jumpi\n        /* \"#utility.yul\":830:831   */\n      0x00\n        /* \"#utility.yul\":827:828   */\n      dup1\n        /* \"#utility.yul\":820:832   */\n      revert\n        /* \"#utility.yul\":755:834   */\n    tag_110:\n        /* \"#utility.yul\":686:840   */\n      pop\n      jump\t// out\n        /* \"#utility.yul\":846:1017   */\n    tag_80:\n        /* \"#utility.yul\":908:913   */\n      0x00\n        /* \"#utility.yul\":946:952   */\n      dup2\n        /* \"#utility.yul\":933:953   */\n      calldataload\n        /* \"#utility.yul\":924:953   */\n      swap1\n      pop\n        /* \"#utility.yul\":962:1011   */\n      tag_112\n        /* \"#utility.yul\":1005:1010   */\n      dup2\n        /* \"#utility.yul\":962:1011   */\n      tag_79\n      jump\t// in\n    tag_112:\n        /* \"#utility.yul\":846:1017   */\n      swap3\n      swap2\n      pop\n      pop\n      jump\t// out\n        /* \"#utility.yul\":1023:1140   */\n    tag_81:\n        /* \"#utility.yul\":1132:1133   */\n      0x00\n        /* \"#utility.yul\":1129:1130   */\n      dup1\n        /* \"#utility.yul\":1122:1134   */\n      revert\n        /* \"#utility.yul\":1146:1263   */\n    tag_82:\n        /* \"#utility.yul\":1255:1256   */\n      0x00\n        /* \"#utility.yul\":1252:1253   */\n      dup1\n        /* \"#utility.yul\":1245:1257   */\n      revert\n        /* \"#utility.yul\":1269:1386   */\n    tag_83:\n        /* \"#utility.yul\":1378:1379   */\n      0x00\n        /* \"#utility.yul\":1375:1376   */\n      dup1\n        /* \"#utility.yul\":1368:1380   */\n      revert\n        /* \"#utility.yul\":1409:1977   */\n    tag_84:\n        /* \"#utility.yul\":1482:1490   */\n      0x00\n        /* \"#utility.yul\":1492:1498   */\n      dup1\n        /* \"#utility.yul\":1542:1545   */\n      dup4\n        /* \"#utility.yul\":1535:1539   */\n      0x1f\n        /* \"#utility.yul\":1527:1533   */\n      dup5\n        /* \"#utility.yul\":1523:1540   */\n      add\n        /* \"#utility.yul\":1519:1546   */\n      slt\n        /* \"#utility.yul\":1509:1631   */\n      tag_117\n      jumpi\n        /* \"#utility.yul\":1550:1629   */\n      tag_118\n      tag_81\n      jump\t// in\n    tag_118:\n        /* \"#utility.yul\":1509:1631   */\n    tag_117:\n        /* \"#utility.yul\":1663:1669   */\n      dup3\n        /* \"#utility.yul\":1650:1670   */\n      calldataload\n        /* \"#utility.yul\":1640:1670   */\n      swap1\n      pop\n        /* \"#utility.yul\":1693:1711   */\n      0xffffffffffffffff\n        /* \"#utility.yul\":1685:1691   */\n      dup2\n        /* \"#utility.yul\":1682:1712   */\n      gt\n        /* \"#utility.yul\":1679:1796   */\n      iszero\n      tag_119\n      jumpi\n        /* \"#utility.yul\":1715:1794   */\n      tag_120\n      tag_82\n      jump\t// in\n    tag_120:\n        /* \"#utility.yul\":1679:1796   */\n    tag_119:\n        /* \"#utility.yul\":1829:1833   */\n      0x20\n        /* \"#utility.yul\":1821:1827   */\n      dup4\n        /* \"#utility.yul\":1817:1834   */\n      add\n        /* \"#utility.yul\":1805:1834   */\n      swap2\n      pop\n        /* \"#utility.yul\":1883:1886   */\n      dup4\n        /* \"#utility.yul\":1875:1879   */\n      0x20\n        /* \"#utility.yul\":1867:1873   */\n      dup3\n        /* \"#utility.yul\":1863:1880   */\n      mul\n        /* \"#utility.yul\":1853:1861   */\n      dup4\n        /* \"#utility.yul\":1849:1881   */\n      add\n        /* \"#utility.yul\":1846:1887   */\n      gt\n        /* \"#utility.yul\":1843:1971   */\n      iszero\n      tag_121\n      jumpi\n        /* \"#utility.yul\":1890:1969   */\n      tag_122\n      tag_83\n      jump\t// in\n    tag_122:\n        /* \"#utility.yul\":1843:1971   */\n    tag_121:\n        /* \"#utility.yul\":1409:1977   */\n      swap3\n      pop\n      swap3\n      swap1\n      pop\n      jump\t// out\n        /* \"#utility.yul\":1983:2896   */\n    tag_5:\n        /* \"#utility.yul\":2119:2125   */\n      0x00\n        /* \"#utility.yul\":2127:2133   */\n      dup1\n        /* \"#utility.yul\":2135:2141   */\n      0x00\n        /* \"#utility.yul\":2143:2149   */\n      dup1\n        /* \"#utility.yul\":2192:2194   */\n      0x60\n        /* \"#utility.yul\":2180:2189   */\n      dup6\n        /* \"#utility.yul\":2171:2178   */\n      dup8\n        /* \"#utility.yul\":2167:2190   */\n      sub\n        /* \"#utility.yul\":2163:2195   */\n      slt\n        /* \"#utility.yul\":2160:2279   */\n      iszero\n      tag_124\n      jumpi\n        /* \"#utility.yul\":2198:2277   */\n      tag_125\n      tag_74\n      jump\t// in\n    tag_125:\n        /* \"#utility.yul\":2160:2279   */\n    tag_124:\n        /* \"#utility.yul\":2318:2319   */\n      0x00\n        /* \"#utility.yul\":2343:2412   */\n      tag_126\n        /* \"#utility.yul\":2404:2411   */\n      dup8\n        /* \"#utility.yul\":2395:2401   */\n      dup3\n        /* \"#utility.yul\":2384:2393   */\n      dup9\n        /* \"#utility.yul\":2380:2402   */\n      add\n        /* \"#utility.yul\":2343:2412   */\n      tag_80\n      jump\t// in\n    tag_126:\n        /* \"#utility.yul\":2333:2412   */\n      swap5\n      pop\n        /* \"#utility.yul\":2289:2422   */\n      pop\n        /* \"#utility.yul\":2461:2463   */\n      0x20\n        /* \"#utility.yul\":2487:2556   */\n      tag_127\n        /* \"#utility.yul\":2548:2555   */\n      dup8\n        /* \"#utility.yul\":2539:2545   */\n      dup3\n        /* \"#utility.yul\":2528:2537   */\n      dup9\n        /* \"#utility.yul\":2524:2546   */\n      add\n        /* \"#utility.yul\":2487:2556   */\n      tag_80\n      jump\t// in\n    tag_127:\n        /* \"#utility.yul\":2477:2556   */\n      swap4\n      pop\n        /* \"#utility.yul\":2432:2566   */\n      pop\n        /* \"#utility.yul\":2633:2635   */\n      0x40\n        /* \"#utility.yul\":2622:2631   */\n      dup6\n        /* \"#utility.yul\":2618:2636   */\n      add\n        /* \"#utility.yul\":2605:2637   */\n      calldataload\n        /* \"#utility.yul\":2664:2682   */\n      0xffffffffffffffff\n        /* \"#utility.yul\":2656:2662   */\n      dup2\n        /* \"#utility.yul\":2653:2683   */\n      gt\n        /* \"#utility.yul\":2650:2767   */\n      iszero\n      tag_128\n      jumpi\n        /* \"#utility.yul\":2686:2765   */\n      tag_129\n      tag_75\n      jump\t// in\n    tag_129:\n        /* \"#utility.yul\":2650:2767   */\n    tag_128:\n        /* \"#utility.yul\":2799:2879   */\n      tag_130\n        /* \"#utility.yul\":2871:2878   */\n      dup8\n        /* \"#utility.yul\":2862:2868   */\n      dup3\n        /* \"#utility.yul\":2851:2860   */\n      dup9\n        /* \"#utility.yul\":2847:2869   */\n      add\n        /* \"#utility.yul\":2799:2879   */\n      tag_84\n      jump\t// in\n    tag_130:\n        /* \"#utility.yul\":2781:2879   */\n      swap3\n      pop\n      swap3\n      pop\n        /* \"#utility.yul\":2576:2889   */\n      pop\n        /* \"#utility.yul\":1983:2896   */\n      swap3\n      swap6\n      swap2\n      swap5\n      pop\n      swap3\n      pop\n      jump\t// out\n        /* \"#utility.yul\":2902:3071   */\n    tag_85:\n        /* \"#utility.yul\":2986:2997   */\n      0x00\n        /* \"#utility.yul\":3020:3026   */\n      dup3\n        /* \"#utility.yul\":3015:3018   */\n      dup3\n        /* \"#utility.yul\":3008:3027   */\n      mstore\n        /* \"#utility.yul\":3060:3064   */\n      0x20\n        /* \"#utility.yul\":3055:3058   */\n      dup3\n        /* \"#utility.yul\":3051:3065   */\n      add\n        /* \"#utility.yul\":3036:3065   */\n      swap1\n      pop\n        /* \"#utility.yul\":2902:3071   */\n      swap3\n      swap2\n      pop\n      pop\n      jump\t// out\n        /* \"#utility.yul\":3077:3245   */\n    tag_86:\n        /* \"#utility.yul\":3217:3237   */\n      0x4e6f7420656e6f75676820676173206665650000000000000000000000000000\n        /* \"#utility.yul\":3213:3214   */\n      0x00\n        /* \"#utility.yul\":3205:3211   */\n      dup3\n        /* \"#utility.yul\":3201:3215   */\n      add\n        /* \"#utility.yul\":3194:3238   */\n      mstore\n        /* \"#utility.yul\":3077:3245   */\n      pop\n      jump\t// out\n        /* \"#utility.yul\":3251:3617   */\n    tag_87:\n        /* \"#utility.yul\":3393:3396   */\n      0x00\n        /* \"#utility.yul\":3414:3481   */\n      tag_134\n        /* \"#utility.yul\":3478:3480   */\n      0x12\n        /* \"#utility.yul\":3473:3476   */\n      dup4\n        /* \"#utility.yul\":3414:3481   */\n      tag_85\n      jump\t// in\n    tag_134:\n        /* \"#utility.yul\":3407:3481   */\n      swap2\n      pop\n        /* \"#utility.yul\":3490:3583   */\n      tag_135\n        /* \"#utility.yul\":3579:3582   */\n      dup3\n        /* \"#utility.yul\":3490:3583   */\n      tag_86\n      jump\t// in\n    tag_135:\n        /* \"#utility.yul\":3608:3610   */\n      0x20\n        /* \"#utility.yul\":3603:3606   */\n      dup3\n        /* \"#utility.yul\":3599:3611   */\n      add\n        /* \"#utility.yul\":3592:3611   */\n      swap1\n      pop\n        /* \"#utility.yul\":3251:3617   */\n      swap2\n      swap1\n      pop\n      jump\t// out\n        /* \"#utility.yul\":3623:4042   */\n    tag_10:\n        /* \"#utility.yul\":3789:3793   */\n      0x00\n        /* \"#utility.yul\":3827:3829   */\n      0x20\n        /* \"#utility.yul\":3816:3825   */\n      dup3\n        /* \"#utility.yul\":3812:3830   */\n      add\n        /* \"#utility.yul\":3804:3830   */\n      swap1\n      pop\n        /* \"#utility.yul\":3876:3885   */\n      dup2\n        /* \"#utility.yul\":3870:3874   */\n      dup2\n        /* \"#utility.yul\":3866:3886   */\n      sub\n        /* \"#utility.yul\":3862:3863   */\n      0x00\n        /* \"#utility.yul\":3851:3860   */\n      dup4\n        /* \"#utility.yul\":3847:3864   */\n      add\n        /* \"#utility.yul\":3840:3887   */\n      mstore\n        /* \"#utility.yul\":3904:4035   */\n      tag_137\n        /* \"#utility.yul\":4030:4034   */\n      dup2\n        /* \"#utility.yul\":3904:4035   */\n      tag_87\n      jump\t// in\n    tag_137:\n        /* \"#utility.yul\":3896:4035   */\n      swap1\n      pop\n        /* \"#utility.yul\":3623:4042   */\n      swap2\n      swap1\n      pop\n      jump\t// out\n        /* \"#utility.yul\":4048:4125   */\n    tag_88:\n        /* \"#utility.yul\":4085:4092   */\n      0x00\n        /* \"#utility.yul\":4114:4119   */\n      dup2\n        /* \"#utility.yul\":4103:4119   */\n      swap1\n      pop\n        /* \"#utility.yul\":4048:4125   */\n      swap2\n      swap1\n      pop\n      jump\t// out\n        /* \"#utility.yul\":4131:4311   */\n    tag_89:\n        /* \"#utility.yul\":4179:4256   */\n      0x4e487b7100000000000000000000000000000000000000000000000000000000\n        /* \"#utility.yul\":4176:4177   */\n      0x00\n        /* \"#utility.yul\":4169:4257   */\n      mstore\n        /* \"#utility.yul\":4276:4280   */\n      0x11\n        /* \"#utility.yul\":4273:4274   */\n      0x04\n        /* \"#utility.yul\":4266:4281   */\n      mstore\n        /* \"#utility.yul\":4300:4304   */\n      0x24\n        /* \"#utility.yul\":4297:4298   */\n      0x00\n        /* \"#utility.yul\":4290:4305   */\n      revert\n        /* \"#utility.yul\":4317:4511   */\n    tag_12:\n        /* \"#utility.yul\":4357:4361   */\n      0x00\n        /* \"#utility.yul\":4377:4397   */\n      tag_141\n        /* \"#utility.yul\":4395:4396   */\n      dup3\n        /* \"#utility.yul\":4377:4397   */\n      tag_88\n      jump\t// in\n    tag_141:\n        /* \"#utility.yul\":4372:4397   */\n      swap2\n      pop\n        /* \"#utility.yul\":4411:4431   */\n      tag_142\n        /* \"#utility.yul\":4429:4430   */\n      dup4\n        /* \"#utility.yul\":4411:4431   */\n      tag_88\n      jump\t// in\n    tag_142:\n        /* \"#utility.yul\":4406:4431   */\n      swap3\n      pop\n        /* \"#utility.yul\":4455:4456   */\n      dup3\n        /* \"#utility.yul\":4452:4453   */\n      dup3\n        /* \"#utility.yul\":4448:4457   */\n      sub\n        /* \"#utility.yul\":4440:4457   */\n      swap1\n      pop\n        /* \"#utility.yul\":4479:4480   */\n      dup2\n        /* \"#utility.yul\":4473:4477   */\n      dup2\n        /* \"#utility.yul\":4470:4481   */\n      gt\n        /* \"#utility.yul\":4467:4504   */\n      iszero\n      tag_143\n      jumpi\n        /* \"#utility.yul\":4484:4502   */\n      tag_144\n      tag_89\n      jump\t// in\n    tag_144:\n        /* \"#utility.yul\":4467:4504   */\n    tag_143:\n        /* \"#utility.yul\":4317:4511   */\n      swap3\n      swap2\n      pop\n      pop\n      jump\t// out\n        /* \"#utility.yul\":4517:4631   */\n    tag_90:\n        /* \"#utility.yul\":4584:4590   */\n      0x00\n        /* \"#utility.yul\":4618:4623   */\n      dup2\n        /* \"#utility.yul\":4612:4624   */\n      mload\n        /* \"#utility.yul\":4602:4624   */\n      swap1\n      pop\n        /* \"#utility.yul\":4517:4631   */\n      swap2\n      swap1\n      pop\n      jump\t// out\n        /* \"#utility.yul\":4637:4821   */\n    tag_91:\n        /* \"#utility.yul\":4736:4747   */\n      0x00\n        /* \"#utility.yul\":4770:4776   */\n      dup3\n        /* \"#utility.yul\":4765:4768   */\n      dup3\n        /* \"#utility.yul\":4758:4777   */\n      mstore\n        /* \"#utility.yul\":4810:4814   */\n      0x20\n        /* \"#utility.yul\":4805:4808   */\n      dup3\n        /* \"#utility.yul\":4801:4815   */\n      add\n        /* \"#utility.yul\":4786:4815   */\n      swap1\n      pop\n        /* \"#utility.yul\":4637:4821   */\n      swap3\n      swap2\n      pop\n      pop\n      jump\t// out\n        /* \"#utility.yul\":4827:4959   */\n    tag_92:\n        /* \"#utility.yul\":4894:4898   */\n      0x00\n        /* \"#utility.yul\":4917:4920   */\n      dup2\n        /* \"#utility.yul\":4909:4920   */\n      swap1\n      pop\n        /* \"#utility.yul\":4947:4951   */\n      0x20\n        /* \"#utility.yul\":4942:4945   */\n      dup3\n        /* \"#utility.yul\":4938:4952   */\n      add\n        /* \"#utility.yul\":4930:4952   */\n      swap1\n      pop\n        /* \"#utility.yul\":4827:4959   */\n      swap2\n      swap1\n      pop\n      jump\t// out\n        /* \"#utility.yul\":4965:5073   */\n    tag_93:\n        /* \"#utility.yul\":5042:5066   */\n      tag_149\n        /* \"#utility.yul\":5060:5065   */\n      dup2\n        /* \"#utility.yul\":5042:5066   */\n      tag_88\n      jump\t// in\n    tag_149:\n        /* \"#utility.yul\":5037:5040   */\n      dup3\n        /* \"#utility.yul\":5030:5067   */\n      mstore\n        /* \"#utility.yul\":4965:5073   */\n      pop\n      pop\n      jump\t// out\n        /* \"#utility.yul\":5079:5258   */\n    tag_94:\n        /* \"#utility.yul\":5148:5158   */\n      0x00\n        /* \"#utility.yul\":5169:5215   */\n      tag_151\n        /* \"#utility.yul\":5211:5214   */\n      dup4\n        /* \"#utility.yul\":5203:5209   */\n      dup4\n        /* \"#utility.yul\":5169:5215   */\n      tag_93\n      jump\t// in\n    tag_151:\n        /* \"#utility.yul\":5247:5251   */\n      0x20\n        /* \"#utility.yul\":5242:5245   */\n      dup4\n        /* \"#utility.yul\":5238:5252   */\n      add\n        /* \"#utility.yul\":5224:5252   */\n      swap1\n      pop\n        /* \"#utility.yul\":5079:5258   */\n      swap3\n      swap2\n      pop\n      pop\n      jump\t// out\n        /* \"#utility.yul\":5264:5377   */\n    tag_95:\n        /* \"#utility.yul\":5334:5338   */\n      0x00\n        /* \"#utility.yul\":5366:5370   */\n      0x20\n        /* \"#utility.yul\":5361:5364   */\n      dup3\n        /* \"#utility.yul\":5357:5371   */\n      add\n        /* \"#utility.yul\":5349:5371   */\n      swap1\n      pop\n        /* \"#utility.yul\":5264:5377   */\n      swap2\n      swap1\n      pop\n      jump\t// out\n        /* \"#utility.yul\":5413:6145   */\n    tag_96:\n        /* \"#utility.yul\":5532:5535   */\n      0x00\n        /* \"#utility.yul\":5561:5615   */\n      tag_154\n        /* \"#utility.yul\":5609:5614   */\n      dup3\n        /* \"#utility.yul\":5561:5615   */\n      tag_90\n      jump\t// in\n    tag_154:\n        /* \"#utility.yul\":5631:5717   */\n      tag_155\n        /* \"#utility.yul\":5710:5716   */\n      dup2\n        /* \"#utility.yul\":5705:5708   */\n      dup6\n        /* \"#utility.yul\":5631:5717   */\n      tag_91\n      jump\t// in\n    tag_155:\n        /* \"#utility.yul\":5624:5717   */\n      swap4\n      pop\n        /* \"#utility.yul\":5741:5797   */\n      tag_156\n        /* \"#utility.yul\":5791:5796   */\n      dup4\n        /* \"#utility.yul\":5741:5797   */\n      tag_92\n      jump\t// in\n    tag_156:\n        /* \"#utility.yul\":5820:5827   */\n      dup1\n        /* \"#utility.yul\":5851:5852   */\n      0x00\n        /* \"#utility.yul\":5836:6120   */\n    tag_157:\n        /* \"#utility.yul\":5861:5867   */\n      dup4\n        /* \"#utility.yul\":5858:5859   */\n      dup2\n        /* \"#utility.yul\":5855:5868   */\n      lt\n        /* \"#utility.yul\":5836:6120   */\n      iszero\n      tag_159\n      jumpi\n        /* \"#utility.yul\":5937:5943   */\n      dup2\n        /* \"#utility.yul\":5931:5944   */\n      mload\n        /* \"#utility.yul\":5964:6027   */\n      tag_160\n        /* \"#utility.yul\":6023:6026   */\n      dup9\n        /* \"#utility.yul\":6008:6021   */\n      dup3\n        /* \"#utility.yul\":5964:6027   */\n      tag_94\n      jump\t// in\n    tag_160:\n        /* \"#utility.yul\":5957:6027   */\n      swap8\n      pop\n        /* \"#utility.yul\":6050:6110   */\n      tag_161\n        /* \"#utility.yul\":6103:6109   */\n      dup4\n        /* \"#utility.yul\":6050:6110   */\n      tag_95\n      jump\t// in\n    tag_161:\n        /* \"#utility.yul\":6040:6110   */\n      swap3\n      pop\n        /* \"#utility.yul\":5896:6120   */\n      pop\n        /* \"#utility.yul\":5883:5884   */\n      0x01\n        /* \"#utility.yul\":5880:5881   */\n      dup2\n        /* \"#utility.yul\":5876:5885   */\n      add\n        /* \"#utility.yul\":5871:5885   */\n      swap1\n      pop\n        /* \"#utility.yul\":5836:6120   */\n      jump(tag_157)\n    tag_159:\n        /* \"#utility.yul\":5840:5854   */\n      pop\n        /* \"#utility.yul\":6136:6139   */\n      dup6\n        /* \"#utility.yul\":6129:6139   */\n      swap4\n      pop\n        /* \"#utility.yul\":5537:6145   */\n      pop\n      pop\n      pop\n        /* \"#utility.yul\":5413:6145   */\n      swap3\n      swap2\n      pop\n      pop\n      jump\t// out\n        /* \"#utility.yul\":6151:6524   */\n    tag_17:\n        /* \"#utility.yul\":6294:6298   */\n      0x00\n        /* \"#utility.yul\":6332:6334   */\n      0x20\n        /* \"#utility.yul\":6321:6330   */\n      dup3\n        /* \"#utility.yul\":6317:6335   */\n      add\n        /* \"#utility.yul\":6309:6335   */\n      swap1\n      pop\n        /* \"#utility.yul\":6381:6390   */\n      dup2\n        /* \"#utility.yul\":6375:6379   */\n      dup2\n        /* \"#utility.yul\":6371:6391   */\n      sub\n        /* \"#utility.yul\":6367:6368   */\n      0x00\n        /* \"#utility.yul\":6356:6365   */\n      dup4\n        /* \"#utility.yul\":6352:6369   */\n      add\n        /* \"#utility.yul\":6345:6392   */\n      mstore\n        /* \"#utility.yul\":6409:6517   */\n      tag_163\n        /* \"#utility.yul\":6512:6516   */\n      dup2\n        /* \"#utility.yul\":6503:6509   */\n      dup5\n        /* \"#utility.yul\":6409:6517   */\n      tag_96\n      jump\t// in\n    tag_163:\n        /* \"#utility.yul\":6401:6517   */\n      swap1\n      pop\n        /* \"#utility.yul\":6151:6524   */\n      swap3\n      swap2\n      pop\n      pop\n      jump\t// out\n        /* \"#utility.yul\":6530:6652   */\n    tag_97:\n        /* \"#utility.yul\":6603:6627   */\n      tag_165\n        /* \"#utility.yul\":6621:6626   */\n      dup2\n        /* \"#utility.yul\":6603:6627   */\n      tag_88\n      jump\t// in\n    tag_165:\n        /* \"#utility.yul\":6596:6601   */\n      dup2\n        /* \"#utility.yul\":6593:6628   */\n      eq\n        /* \"#utility.yul\":6583:6646   */\n      tag_166\n      jumpi\n        /* \"#utility.yul\":6642:6643   */\n      0x00\n        /* \"#utility.yul\":6639:6640   */\n      dup1\n        /* \"#utility.yul\":6632:6644   */\n      revert\n        /* \"#utility.yul\":6583:6646   */\n    tag_166:\n        /* \"#utility.yul\":6530:6652   */\n      pop\n      jump\t// out\n        /* \"#utility.yul\":6658:6801   */\n    tag_98:\n        /* \"#utility.yul\":6715:6720   */\n      0x00\n        /* \"#utility.yul\":6746:6752   */\n      dup2\n        /* \"#utility.yul\":6740:6753   */\n      mload\n        /* \"#utility.yul\":6731:6753   */\n      swap1\n      pop\n        /* \"#utility.yul\":6762:6795   */\n      tag_168\n        /* \"#utility.yul\":6789:6794   */\n      dup2\n        /* \"#utility.yul\":6762:6795   */\n      tag_97\n      jump\t// in\n    tag_168:\n        /* \"#utility.yul\":6658:6801   */\n      swap3\n      swap2\n      pop\n      pop\n      jump\t// out\n        /* \"#utility.yul\":6807:7314   */\n    tag_21:\n        /* \"#utility.yul\":6886:6892   */\n      0x00\n        /* \"#utility.yul\":6894:6900   */\n      dup1\n        /* \"#utility.yul\":6943:6945   */\n      0x40\n        /* \"#utility.yul\":6931:6940   */\n      dup4\n        /* \"#utility.yul\":6922:6929   */\n      dup6\n        /* \"#utility.yul\":6918:6941   */\n      sub\n        /* \"#utility.yul\":6914:6946   */\n      slt\n        /* \"#utility.yul\":6911:7030   */\n      iszero\n      tag_170\n      jumpi\n        /* \"#utility.yul\":6949:7028   */\n      tag_171\n      tag_74\n      jump\t// in\n    tag_171:\n        /* \"#utility.yul\":6911:7030   */\n    tag_170:\n        /* \"#utility.yul\":7069:7070   */\n      0x00\n        /* \"#utility.yul\":7094:7158   */\n      tag_172\n        /* \"#utility.yul\":7150:7157   */\n      dup6\n        /* \"#utility.yul\":7141:7147   */\n      dup3\n        /* \"#utility.yul\":7130:7139   */\n      dup7\n        /* \"#utility.yul\":7126:7148   */\n      add\n        /* \"#utility.yul\":7094:7158   */\n      tag_98\n      jump\t// in\n    tag_172:\n        /* \"#utility.yul\":7084:7158   */\n      swap3\n      pop\n        /* \"#utility.yul\":7040:7168   */\n      pop\n        /* \"#utility.yul\":7207:7209   */\n      0x20\n        /* \"#utility.yul\":7233:7297   */\n      tag_173\n        /* \"#utility.yul\":7289:7296   */\n      dup6\n        /* \"#utility.yul\":7280:7286   */\n      dup3\n        /* \"#utility.yul\":7269:7278   */\n      dup7\n        /* \"#utility.yul\":7265:7287   */\n      add\n        /* \"#utility.yul\":7233:7297   */\n      tag_98\n      jump\t// in\n    tag_173:\n        /* \"#utility.yul\":7223:7297   */\n      swap2\n      pop\n        /* \"#utility.yul\":7178:7307   */\n      pop\n        /* \"#utility.yul\":6807:7314   */\n      swap3\n      pop\n      swap3\n      swap1\n      pop\n      jump\t// out\n        /* \"#utility.yul\":7320:7500   */\n    tag_46:\n        /* \"#utility.yul\":7368:7445   */\n      0x4e487b7100000000000000000000000000000000000000000000000000000000\n        /* \"#utility.yul\":7365:7366   */\n      0x00\n        /* \"#utility.yul\":7358:7446   */\n      mstore\n        /* \"#utility.yul\":7465:7469   */\n      0x32\n        /* \"#utility.yul\":7462:7463   */\n      0x04\n        /* \"#utility.yul\":7455:7470   */\n      mstore\n        /* \"#utility.yul\":7489:7493   */\n      0x24\n        /* \"#utility.yul\":7486:7487   */\n      0x00\n        /* \"#utility.yul\":7479:7494   */\n      revert\n\n    auxdata: 0xa2646970667358221220d05a414556a9e88b99e93d20b62dfdff07c20e9f1ee3793dcd08141c0399b17364736f6c634300081a0033\n}\n",
				"bytecode": {
					"linkReferences": {},
					"object": "6080604052348015600e575f80fd5b506109af8061001c5f395ff3fe60806040526004361061001d575f3560e01c806311c28c9914610021575b5f80fd5b61003b600480360381019061003691906106bb565b61003d565b005b66038d7ea4c680003411610086576040517f08c379a000000000000000000000000000000000000000000000000000000000815260040161007d90610786565b60405180910390fd5b5f66038d7ea4c680003461009a91906107da565b90505f8383808060200260200160405190810160405280939291908181526020018383602002808284375f81840152601f19601f8201169050808301925050505050505090505f600190505f80805b8261041a57831561024c578973ffffffffffffffffffffffffffffffffffffffff166314f6f57a866040518263ffffffff1660e01b815260040161012d91906108c4565b60408051808303815f875af1158015610148573d5f803e3d5ffd5b505050506040513d601f19601f8201168201806040525081019061016c919061090e565b809250819350505061018082828a8a6105a3565b610247578973ffffffffffffffffffffffffffffffffffffffff1663c6616c466040518163ffffffff1660e01b81526004015f604051808303815f87803b1580156101c9575f80fd5b505af11580156101db573d5f803e3d5ffd5b505050508873ffffffffffffffffffffffffffffffffffffffff16630bc59f4f876040518263ffffffff1660e01b81526004015f604051808303818588803b158015610225575f80fd5b505af1158015610237573d5f803e3d5ffd5b505050505050505050505061059d565b6103a0565b8873ffffffffffffffffffffffffffffffffffffffff166314f6f57a866040518263ffffffff1660e01b815260040161028591906108c4565b60408051808303815f875af11580156102a0573d5f803e3d5ffd5b505050506040513d601f19601f820116820180604052508101906102c4919061090e565b80925081935050506102d882828a8a6105a3565b61039f578873ffffffffffffffffffffffffffffffffffffffff1663c6616c466040518163ffffffff1660e01b81526004015f604051808303815f87803b158015610321575f80fd5b505af1158015610333573d5f803e3d5ffd5b505050508973ffffffffffffffffffffffffffffffffffffffff16630bc59f4f876040518263ffffffff1660e01b81526004015f604051808303818588803b15801561037d575f80fd5b505af115801561038f573d5f803e3d5ffd5b505050505050505050505061059d565b5b808583815181106103b4576103b361094c565b5b602002602001018181516103c891906107da565b9150818152505083159350600192505f5b8551811015610414575f8682815181106103f6576103f561094c565b5b602002602001015114610407575f93505b80806001019150506103d9565b506100e9565b83156104dd578873ffffffffffffffffffffffffffffffffffffffff1663de6de5216040518163ffffffff1660e01b81526004015f604051808303815f87803b158015610465575f80fd5b505af1158015610477573d5f803e3d5ffd5b505050508973ffffffffffffffffffffffffffffffffffffffff16630bc59f4f876040518263ffffffff1660e01b81526004015f604051808303818588803b1580156104c1575f80fd5b505af11580156104d3573d5f803e3d5ffd5b5050505050610596565b8973ffffffffffffffffffffffffffffffffffffffff1663de6de5216040518163ffffffff1660e01b81526004015f604051808303815f87803b158015610522575f80fd5b505af1158015610534573d5f803e3d5ffd5b505050508873ffffffffffffffffffffffffffffffffffffffff16630bc59f4f876040518263ffffffff1660e01b81526004015f604051808303818588803b15801561057e575f80fd5b505af1158015610590573d5f803e3d5ffd5b50505050505b5050505050505b50505050565b5f828290508511806105cd5750838383878181106105c4576105c361094c565b5b90506020020135105b156105da575f90506105df565b600190505b949350505050565b5f80fd5b5f80fd5b5f73ffffffffffffffffffffffffffffffffffffffff82169050919050565b5f610618826105ef565b9050919050565b5f6106298261060e565b9050919050565b6106398161061f565b8114610643575f80fd5b50565b5f8135905061065481610630565b92915050565b5f80fd5b5f80fd5b5f80fd5b5f8083601f84011261067b5761067a61065a565b5b8235905067ffffffffffffffff8111156106985761069761065e565b5b6020830191508360208202830111156106b4576106b3610662565b5b9250929050565b5f805f80606085870312156106d3576106d26105e7565b5b5f6106e087828801610646565b94505060206106f187828801610646565b935050604085013567ffffffffffffffff811115610712576107116105eb565b5b61071e87828801610666565b925092505092959194509250565b5f82825260208201905092915050565b7f4e6f7420656e6f756768206761732066656500000000000000000000000000005f82015250565b5f61077060128361072c565b915061077b8261073c565b602082019050919050565b5f6020820190508181035f83015261079d81610764565b9050919050565b5f819050919050565b7f4e487b71000000000000000000000000000000000000000000000000000000005f52601160045260245ffd5b5f6107e4826107a4565b91506107ef836107a4565b9250828203905081811115610807576108066107ad565b5b92915050565b5f81519050919050565b5f82825260208201905092915050565b5f819050602082019050919050565b61083f816107a4565b82525050565b5f6108508383610836565b60208301905092915050565b5f602082019050919050565b5f6108728261080d565b61087c8185610817565b935061088783610827565b805f5b838110156108b757815161089e8882610845565b97506108a98361085c565b92505060018101905061088a565b5085935050505092915050565b5f6020820190508181035f8301526108dc8184610868565b905092915050565b6108ed816107a4565b81146108f7575f80fd5b50565b5f81519050610908816108e4565b92915050565b5f8060408385031215610924576109236105e7565b5b5f610931858286016108fa565b9250506020610942858286016108fa565b9150509250929050565b7f4e487b71000000000000000000000000000000000000000000000000000000005f52603260045260245ffdfea2646970667358221220d05a414556a9e88b99e93d20b62dfdff07c20e9f1ee3793dcd08141c0399b17364736f6c634300081a0033",
					"opcodes": "PUSH1 0x80 PUSH1 0x40 MSTORE CALLVALUE DUP1 ISZERO PUSH1 0xE JUMPI PUSH0 DUP1 REVERT JUMPDEST POP PUSH2 0x9AF DUP1 PUSH2 0x1C PUSH0 CODECOPY PUSH0 RETURN INVALID PUSH1 0x80 PUSH1 0x40 MSTORE PUSH1 0x4 CALLDATASIZE LT PUSH2 0x1D JUMPI PUSH0 CALLDATALOAD PUSH1 0xE0 SHR DUP1 PUSH4 0x11C28C99 EQ PUSH2 0x21 JUMPI JUMPDEST PUSH0 DUP1 REVERT JUMPDEST PUSH2 0x3B PUSH1 0x4 DUP1 CALLDATASIZE SUB DUP2 ADD SWAP1 PUSH2 0x36 SWAP2 SWAP1 PUSH2 0x6BB JUMP JUMPDEST PUSH2 0x3D JUMP JUMPDEST STOP JUMPDEST PUSH7 0x38D7EA4C68000 CALLVALUE GT PUSH2 0x86 JUMPI PUSH1 0x40 MLOAD PUSH32 0x8C379A000000000000000000000000000000000000000000000000000000000 DUP2 MSTORE PUSH1 0x4 ADD PUSH2 0x7D SWAP1 PUSH2 0x786 JUMP JUMPDEST PUSH1 0x40 MLOAD DUP1 SWAP2 SUB SWAP1 REVERT JUMPDEST PUSH0 PUSH7 0x38D7EA4C68000 CALLVALUE PUSH2 0x9A SWAP2 SWAP1 PUSH2 0x7DA JUMP JUMPDEST SWAP1 POP PUSH0 DUP4 DUP4 DUP1 DUP1 PUSH1 0x20 MUL PUSH1 0x20 ADD PUSH1 0x40 MLOAD SWAP1 DUP2 ADD PUSH1 0x40 MSTORE DUP1 SWAP4 SWAP3 SWAP2 SWAP1 DUP2 DUP2 MSTORE PUSH1 0x20 ADD DUP4 DUP4 PUSH1 0x20 MUL DUP1 DUP3 DUP5 CALLDATACOPY PUSH0 DUP2 DUP5 ADD MSTORE PUSH1 0x1F NOT PUSH1 0x1F DUP3 ADD AND SWAP1 POP DUP1 DUP4 ADD SWAP3 POP POP POP POP POP POP POP SWAP1 POP PUSH0 PUSH1 0x1 SWAP1 POP PUSH0 DUP1 DUP1 JUMPDEST DUP3 PUSH2 0x41A JUMPI DUP4 ISZERO PUSH2 0x24C JUMPI DUP10 PUSH20 0xFFFFFFFFFFFFFFFFFFFFFFFFFFFFFFFFFFFFFFFF AND PUSH4 0x14F6F57A DUP7 PUSH1 0x40 MLOAD DUP3 PUSH4 0xFFFFFFFF AND PUSH1 0xE0 SHL DUP2 MSTORE PUSH1 0x4 ADD PUSH2 0x12D SWAP2 SWAP1 PUSH2 0x8C4 JUMP JUMPDEST PUSH1 0x40 DUP1 MLOAD DUP1 DUP4 SUB DUP2 PUSH0 DUP8 GAS CALL ISZERO DUP1 ISZERO PUSH2 0x148 JUMPI RETURNDATASIZE PUSH0 DUP1 RETURNDATACOPY RETURNDATASIZE PUSH0 REVERT JUMPDEST POP POP POP POP PUSH1 0x40 MLOAD RETURNDATASIZE PUSH1 0x1F NOT PUSH1 0x1F DUP3 ADD AND DUP3 ADD DUP1 PUSH1 0x40 MSTORE POP DUP2 ADD SWAP1 PUSH2 0x16C SWAP2 SWAP1 PUSH2 0x90E JUMP JUMPDEST DUP1 SWAP3 POP DUP2 SWAP4 POP POP POP PUSH2 0x180 DUP3 DUP3 DUP11 DUP11 PUSH2 0x5A3 JUMP JUMPDEST PUSH2 0x247 JUMPI DUP10 PUSH20 0xFFFFFFFFFFFFFFFFFFFFFFFFFFFFFFFFFFFFFFFF AND PUSH4 0xC6616C46 PUSH1 0x40 MLOAD DUP2 PUSH4 0xFFFFFFFF AND PUSH1 0xE0 SHL DUP2 MSTORE PUSH1 0x4 ADD PUSH0 PUSH1 0x40 MLOAD DUP1 DUP4 SUB DUP2 PUSH0 DUP8 DUP1 EXTCODESIZE ISZERO DUP1 ISZERO PUSH2 0x1C9 JUMPI PUSH0 DUP1 REVERT JUMPDEST POP GAS CALL ISZERO DUP1 ISZERO PUSH2 0x1DB JUMPI RETURNDATASIZE PUSH0 DUP1 RETURNDATACOPY RETURNDATASIZE PUSH0 REVERT JUMPDEST POP POP POP POP DUP9 PUSH20 0xFFFFFFFFFFFFFFFFFFFFFFFFFFFFFFFFFFFFFFFF AND PUSH4 0xBC59F4F DUP8 PUSH1 0x40 MLOAD DUP3 PUSH4 0xFFFFFFFF AND PUSH1 0xE0 SHL DUP2 MSTORE PUSH1 0x4 ADD PUSH0 PUSH1 0x40 MLOAD DUP1 DUP4 SUB DUP2 DUP6 DUP9 DUP1 EXTCODESIZE ISZERO DUP1 ISZERO PUSH2 0x225 JUMPI PUSH0 DUP1 REVERT JUMPDEST POP GAS CALL ISZERO DUP1 ISZERO PUSH2 0x237 JUMPI RETURNDATASIZE PUSH0 DUP1 RETURNDATACOPY RETURNDATASIZE PUSH0 REVERT JUMPDEST POP POP POP POP POP POP POP POP POP POP POP PUSH2 0x59D JUMP JUMPDEST PUSH2 0x3A0 JUMP JUMPDEST DUP9 PUSH20 0xFFFFFFFFFFFFFFFFFFFFFFFFFFFFFFFFFFFFFFFF AND PUSH4 0x14F6F57A DUP7 PUSH1 0x40 MLOAD DUP3 PUSH4 0xFFFFFFFF AND PUSH1 0xE0 SHL DUP2 MSTORE PUSH1 0x4 ADD PUSH2 0x285 SWAP2 SWAP1 PUSH2 0x8C4 JUMP JUMPDEST PUSH1 0x40 DUP1 MLOAD DUP1 DUP4 SUB DUP2 PUSH0 DUP8 GAS CALL ISZERO DUP1 ISZERO PUSH2 0x2A0 JUMPI RETURNDATASIZE PUSH0 DUP1 RETURNDATACOPY RETURNDATASIZE PUSH0 REVERT JUMPDEST POP POP POP POP PUSH1 0x40 MLOAD RETURNDATASIZE PUSH1 0x1F NOT PUSH1 0x1F DUP3 ADD AND DUP3 ADD DUP1 PUSH1 0x40 MSTORE POP DUP2 ADD SWAP1 PUSH2 0x2C4 SWAP2 SWAP1 PUSH2 0x90E JUMP JUMPDEST DUP1 SWAP3 POP DUP2 SWAP4 POP POP POP PUSH2 0x2D8 DUP3 DUP3 DUP11 DUP11 PUSH2 0x5A3 JUMP JUMPDEST PUSH2 0x39F JUMPI DUP9 PUSH20 0xFFFFFFFFFFFFFFFFFFFFFFFFFFFFFFFFFFFFFFFF AND PUSH4 0xC6616C46 PUSH1 0x40 MLOAD DUP2 PUSH4 0xFFFFFFFF AND PUSH1 0xE0 SHL DUP2 MSTORE PUSH1 0x4 ADD PUSH0 PUSH1 0x40 MLOAD DUP1 DUP4 SUB DUP2 PUSH0 DUP8 DUP1 EXTCODESIZE ISZERO DUP1 ISZERO PUSH2 0x321 JUMPI PUSH0 DUP1 REVERT JUMPDEST POP GAS CALL ISZERO DUP1 ISZERO PUSH2 0x333 JUMPI RETURNDATASIZE PUSH0 DUP1 RETURNDATACOPY RETURNDATASIZE PUSH0 REVERT JUMPDEST POP POP POP POP DUP10 PUSH20 0xFFFFFFFFFFFFFFFFFFFFFFFFFFFFFFFFFFFFFFFF AND PUSH4 0xBC59F4F DUP8 PUSH1 0x40 MLOAD DUP3 PUSH4 0xFFFFFFFF AND PUSH1 0xE0 SHL DUP2 MSTORE PUSH1 0x4 ADD PUSH0 PUSH1 0x40 MLOAD DUP1 DUP4 SUB DUP2 DUP6 DUP9 DUP1 EXTCODESIZE ISZERO DUP1 ISZERO PUSH2 0x37D JUMPI PUSH0 DUP1 REVERT JUMPDEST POP GAS CALL ISZERO DUP1 ISZERO PUSH2 0x38F JUMPI RETURNDATASIZE PUSH0 DUP1 RETURNDATACOPY RETURNDATASIZE PUSH0 REVERT JUMPDEST POP POP POP POP POP POP POP POP POP POP POP PUSH2 0x59D JUMP JUMPDEST JUMPDEST DUP1 DUP6 DUP4 DUP2 MLOAD DUP2 LT PUSH2 0x3B4 JUMPI PUSH2 0x3B3 PUSH2 0x94C JUMP JUMPDEST JUMPDEST PUSH1 0x20 MUL PUSH1 0x20 ADD ADD DUP2 DUP2 MLOAD PUSH2 0x3C8 SWAP2 SWAP1 PUSH2 0x7DA JUMP JUMPDEST SWAP2 POP DUP2 DUP2 MSTORE POP POP DUP4 ISZERO SWAP4 POP PUSH1 0x1 SWAP3 POP PUSH0 JUMPDEST DUP6 MLOAD DUP2 LT ISZERO PUSH2 0x414 JUMPI PUSH0 DUP7 DUP3 DUP2 MLOAD DUP2 LT PUSH2 0x3F6 JUMPI PUSH2 0x3F5 PUSH2 0x94C JUMP JUMPDEST JUMPDEST PUSH1 0x20 MUL PUSH1 0x20 ADD ADD MLOAD EQ PUSH2 0x407 JUMPI PUSH0 SWAP4 POP JUMPDEST DUP1 DUP1 PUSH1 0x1 ADD SWAP2 POP POP PUSH2 0x3D9 JUMP JUMPDEST POP PUSH2 0xE9 JUMP JUMPDEST DUP4 ISZERO PUSH2 0x4DD JUMPI DUP9 PUSH20 0xFFFFFFFFFFFFFFFFFFFFFFFFFFFFFFFFFFFFFFFF AND PUSH4 0xDE6DE521 PUSH1 0x40 MLOAD DUP2 PUSH4 0xFFFFFFFF AND PUSH1 0xE0 SHL DUP2 MSTORE PUSH1 0x4 ADD PUSH0 PUSH1 0x40 MLOAD DUP1 DUP4 SUB DUP2 PUSH0 DUP8 DUP1 EXTCODESIZE ISZERO DUP1 ISZERO PUSH2 0x465 JUMPI PUSH0 DUP1 REVERT JUMPDEST POP GAS CALL ISZERO DUP1 ISZERO PUSH2 0x477 JUMPI RETURNDATASIZE PUSH0 DUP1 RETURNDATACOPY RETURNDATASIZE PUSH0 REVERT JUMPDEST POP POP POP POP DUP10 PUSH20 0xFFFFFFFFFFFFFFFFFFFFFFFFFFFFFFFFFFFFFFFF AND PUSH4 0xBC59F4F DUP8 PUSH1 0x40 MLOAD DUP3 PUSH4 0xFFFFFFFF AND PUSH1 0xE0 SHL DUP2 MSTORE PUSH1 0x4 ADD PUSH0 PUSH1 0x40 MLOAD DUP1 DUP4 SUB DUP2 DUP6 DUP9 DUP1 EXTCODESIZE ISZERO DUP1 ISZERO PUSH2 0x4C1 JUMPI PUSH0 DUP1 REVERT JUMPDEST POP GAS CALL ISZERO DUP1 ISZERO PUSH2 0x4D3 JUMPI RETURNDATASIZE PUSH0 DUP1 RETURNDATACOPY RETURNDATASIZE PUSH0 REVERT JUMPDEST POP POP POP POP POP PUSH2 0x596 JUMP JUMPDEST DUP10 PUSH20 0xFFFFFFFFFFFFFFFFFFFFFFFFFFFFFFFFFFFFFFFF AND PUSH4 0xDE6DE521 PUSH1 0x40 MLOAD DUP2 PUSH4 0xFFFFFFFF AND PUSH1 0xE0 SHL DUP2 MSTORE PUSH1 0x4 ADD PUSH0 PUSH1 0x40 MLOAD DUP1 DUP4 SUB DUP2 PUSH0 DUP8 DUP1 EXTCODESIZE ISZERO DUP1 ISZERO PUSH2 0x522 JUMPI PUSH0 DUP1 REVERT JUMPDEST POP GAS CALL ISZERO DUP1 ISZERO PUSH2 0x534 JUMPI RETURNDATASIZE PUSH0 DUP1 RETURNDATACOPY RETURNDATASIZE PUSH0 REVERT JUMPDEST POP POP POP POP DUP9 PUSH20 0xFFFFFFFFFFFFFFFFFFFFFFFFFFFFFFFFFFFFFFFF AND PUSH4 0xBC59F4F DUP8 PUSH1 0x40 MLOAD DUP3 PUSH4 0xFFFFFFFF AND PUSH1 0xE0 SHL DUP2 MSTORE PUSH1 0x4 ADD PUSH0 PUSH1 0x40 MLOAD DUP1 DUP4 SUB DUP2 DUP6 DUP9 DUP1 EXTCODESIZE ISZERO DUP1 ISZERO PUSH2 0x57E JUMPI PUSH0 DUP1 REVERT JUMPDEST POP GAS CALL ISZERO DUP1 ISZERO PUSH2 0x590 JUMPI RETURNDATASIZE PUSH0 DUP1 RETURNDATACOPY RETURNDATASIZE PUSH0 REVERT JUMPDEST POP POP POP POP POP JUMPDEST POP POP POP POP POP POP JUMPDEST POP POP POP POP JUMP JUMPDEST PUSH0 DUP3 DUP3 SWAP1 POP DUP6 GT DUP1 PUSH2 0x5CD JUMPI POP DUP4 DUP4 DUP4 DUP8 DUP2 DUP2 LT PUSH2 0x5C4 JUMPI PUSH2 0x5C3 PUSH2 0x94C JUMP JUMPDEST JUMPDEST SWAP1 POP PUSH1 0x20 MUL ADD CALLDATALOAD LT JUMPDEST ISZERO PUSH2 0x5DA JUMPI PUSH0 SWAP1 POP PUSH2 0x5DF JUMP JUMPDEST PUSH1 0x1 SWAP1 POP JUMPDEST SWAP5 SWAP4 POP POP POP POP JUMP JUMPDEST PUSH0 DUP1 REVERT JUMPDEST PUSH0 DUP1 REVERT JUMPDEST PUSH0 PUSH20 0xFFFFFFFFFFFFFFFFFFFFFFFFFFFFFFFFFFFFFFFF DUP3 AND SWAP1 POP SWAP2 SWAP1 POP JUMP JUMPDEST PUSH0 PUSH2 0x618 DUP3 PUSH2 0x5EF JUMP JUMPDEST SWAP1 POP SWAP2 SWAP1 POP JUMP JUMPDEST PUSH0 PUSH2 0x629 DUP3 PUSH2 0x60E JUMP JUMPDEST SWAP1 POP SWAP2 SWAP1 POP JUMP JUMPDEST PUSH2 0x639 DUP2 PUSH2 0x61F JUMP JUMPDEST DUP2 EQ PUSH2 0x643 JUMPI PUSH0 DUP1 REVERT JUMPDEST POP JUMP JUMPDEST PUSH0 DUP2 CALLDATALOAD SWAP1 POP PUSH2 0x654 DUP2 PUSH2 0x630 JUMP JUMPDEST SWAP3 SWAP2 POP POP JUMP JUMPDEST PUSH0 DUP1 REVERT JUMPDEST PUSH0 DUP1 REVERT JUMPDEST PUSH0 DUP1 REVERT JUMPDEST PUSH0 DUP1 DUP4 PUSH1 0x1F DUP5 ADD SLT PUSH2 0x67B JUMPI PUSH2 0x67A PUSH2 0x65A JUMP JUMPDEST JUMPDEST DUP3 CALLDATALOAD SWAP1 POP PUSH8 0xFFFFFFFFFFFFFFFF DUP2 GT ISZERO PUSH2 0x698 JUMPI PUSH2 0x697 PUSH2 0x65E JUMP JUMPDEST JUMPDEST PUSH1 0x20 DUP4 ADD SWAP2 POP DUP4 PUSH1 0x20 DUP3 MUL DUP4 ADD GT ISZERO PUSH2 0x6B4 JUMPI PUSH2 0x6B3 PUSH2 0x662 JUMP JUMPDEST JUMPDEST SWAP3 POP SWAP3 SWAP1 POP JUMP JUMPDEST PUSH0 DUP1 PUSH0 DUP1 PUSH1 0x60 DUP6 DUP8 SUB SLT ISZERO PUSH2 0x6D3 JUMPI PUSH2 0x6D2 PUSH2 0x5E7 JUMP JUMPDEST JUMPDEST PUSH0 PUSH2 0x6E0 DUP8 DUP3 DUP9 ADD PUSH2 0x646 JUMP JUMPDEST SWAP5 POP POP PUSH1 0x20 PUSH2 0x6F1 DUP8 DUP3 DUP9 ADD PUSH2 0x646 JUMP JUMPDEST SWAP4 POP POP PUSH1 0x40 DUP6 ADD CALLDATALOAD PUSH8 0xFFFFFFFFFFFFFFFF DUP2 GT ISZERO PUSH2 0x712 JUMPI PUSH2 0x711 PUSH2 0x5EB JUMP JUMPDEST JUMPDEST PUSH2 0x71E DUP8 DUP3 DUP9 ADD PUSH2 0x666 JUMP JUMPDEST SWAP3 POP SWAP3 POP POP SWAP3 SWAP6 SWAP2 SWAP5 POP SWAP3 POP JUMP JUMPDEST PUSH0 DUP3 DUP3 MSTORE PUSH1 0x20 DUP3 ADD SWAP1 POP SWAP3 SWAP2 POP POP JUMP JUMPDEST PUSH32 0x4E6F7420656E6F75676820676173206665650000000000000000000000000000 PUSH0 DUP3 ADD MSTORE POP JUMP JUMPDEST PUSH0 PUSH2 0x770 PUSH1 0x12 DUP4 PUSH2 0x72C JUMP JUMPDEST SWAP2 POP PUSH2 0x77B DUP3 PUSH2 0x73C JUMP JUMPDEST PUSH1 0x20 DUP3 ADD SWAP1 POP SWAP2 SWAP1 POP JUMP JUMPDEST PUSH0 PUSH1 0x20 DUP3 ADD SWAP1 POP DUP2 DUP2 SUB PUSH0 DUP4 ADD MSTORE PUSH2 0x79D DUP2 PUSH2 0x764 JUMP JUMPDEST SWAP1 POP SWAP2 SWAP1 POP JUMP JUMPDEST PUSH0 DUP2 SWAP1 POP SWAP2 SWAP1 POP JUMP JUMPDEST PUSH32 0x4E487B7100000000000000000000000000000000000000000000000000000000 PUSH0 MSTORE PUSH1 0x11 PUSH1 0x4 MSTORE PUSH1 0x24 PUSH0 REVERT JUMPDEST PUSH0 PUSH2 0x7E4 DUP3 PUSH2 0x7A4 JUMP JUMPDEST SWAP2 POP PUSH2 0x7EF DUP4 PUSH2 0x7A4 JUMP JUMPDEST SWAP3 POP DUP3 DUP3 SUB SWAP1 POP DUP2 DUP2 GT ISZERO PUSH2 0x807 JUMPI PUSH2 0x806 PUSH2 0x7AD JUMP JUMPDEST JUMPDEST SWAP3 SWAP2 POP POP JUMP JUMPDEST PUSH0 DUP2 MLOAD SWAP1 POP SWAP2 SWAP1 POP JUMP JUMPDEST PUSH0 DUP3 DUP3 MSTORE PUSH1 0x20 DUP3 ADD SWAP1 POP SWAP3 SWAP2 POP POP JUMP JUMPDEST PUSH0 DUP2 SWAP1 POP PUSH1 0x20 DUP3 ADD SWAP1 POP SWAP2 SWAP1 POP JUMP JUMPDEST PUSH2 0x83F DUP2 PUSH2 0x7A4 JUMP JUMPDEST DUP3 MSTORE POP POP JUMP JUMPDEST PUSH0 PUSH2 0x850 DUP4 DUP4 PUSH2 0x836 JUMP JUMPDEST PUSH1 0x20 DUP4 ADD SWAP1 POP SWAP3 SWAP2 POP POP JUMP JUMPDEST PUSH0 PUSH1 0x20 DUP3 ADD SWAP1 POP SWAP2 SWAP1 POP JUMP JUMPDEST PUSH0 PUSH2 0x872 DUP3 PUSH2 0x80D JUMP JUMPDEST PUSH2 0x87C DUP2 DUP6 PUSH2 0x817 JUMP JUMPDEST SWAP4 POP PUSH2 0x887 DUP4 PUSH2 0x827 JUMP JUMPDEST DUP1 PUSH0 JUMPDEST DUP4 DUP2 LT ISZERO PUSH2 0x8B7 JUMPI DUP2 MLOAD PUSH2 0x89E DUP9 DUP3 PUSH2 0x845 JUMP JUMPDEST SWAP8 POP PUSH2 0x8A9 DUP4 PUSH2 0x85C JUMP JUMPDEST SWAP3 POP POP PUSH1 0x1 DUP2 ADD SWAP1 POP PUSH2 0x88A JUMP JUMPDEST POP DUP6 SWAP4 POP POP POP POP SWAP3 SWAP2 POP POP JUMP JUMPDEST PUSH0 PUSH1 0x20 DUP3 ADD SWAP1 POP DUP2 DUP2 SUB PUSH0 DUP4 ADD MSTORE PUSH2 0x8DC DUP2 DUP5 PUSH2 0x868 JUMP JUMPDEST SWAP1 POP SWAP3 SWAP2 POP POP JUMP JUMPDEST PUSH2 0x8ED DUP2 PUSH2 0x7A4 JUMP JUMPDEST DUP2 EQ PUSH2 0x8F7 JUMPI PUSH0 DUP1 REVERT JUMPDEST POP JUMP JUMPDEST PUSH0 DUP2 MLOAD SWAP1 POP PUSH2 0x908 DUP2 PUSH2 0x8E4 JUMP JUMPDEST SWAP3 SWAP2 POP POP JUMP JUMPDEST PUSH0 DUP1 PUSH1 0x40 DUP4 DUP6 SUB SLT ISZERO PUSH2 0x924 JUMPI PUSH2 0x923 PUSH2 0x5E7 JUMP JUMPDEST JUMPDEST PUSH0 PUSH2 0x931 DUP6 DUP3 DUP7 ADD PUSH2 0x8FA JUMP JUMPDEST SWAP3 POP POP PUSH1 0x20 PUSH2 0x942 DUP6 DUP3 DUP7 ADD PUSH2 0x8FA JUMP JUMPDEST SWAP2 POP POP SWAP3 POP SWAP3 SWAP1 POP JUMP JUMPDEST PUSH32 0x4E487B7100000000000000000000000000000000000000000000000000000000 PUSH0 MSTORE PUSH1 0x32 PUSH1 0x4 MSTORE PUSH1 0x24 PUSH0 REVERT INVALID LOG2 PUSH5 0x6970667358 0x22 SLT KECCAK256 0xD0 GAS COINBASE GASLIMIT JUMP 0xA9 0xE8 DUP12 SWAP10 0xE9 RETURNDATASIZE KECCAK256 0xB6 0x2D REVERT SELFDESTRUCT SMOD 0xC2 0xE SWAP16 0x1E 0xE3 PUSH26 0x3DCD08141C0399B17364736F6C634300081A0033000000000000 "
				},
				"gasEstimates": {
					"creation": {
						"codeDepositCost": "495800",
						"executionCost": "528",
						"totalCost": "496328"
					},
					"external": {
						"startMisere(address,address,uint256[])": "infinite"
					},
					"internal": {
						"is_valid_move(uint256,uint256,uint256[] calldata)": "153"
					}
				},
				"methodIdentifiers": {
					"startMisere(address,address,uint256[])": "11c28c99"
				}
			},
			"storageLayout": {
				"storage": [],
				"types": null
			},
			"userdoc": {
				"kind": "user",
				"methods": {},
				"version": 1
			}
		}
	}
}