{
	"nim.sol": {
		"Boring1NimPlayer": {
			"abi": [
				{
					"stateMutability": "payable",
					"type": "fallback"
				},
				{
					"inputs": [],
					"name": "Ulost",
					"outputs": [],
					"stateMutability": "nonpayable",
					"type": "function"
				},
				{
					"inputs": [],
					"name": "UlostBadMove",
					"outputs": [],
					"stateMutability": "nonpayable",
					"type": "function"
				},
				{
					"inputs": [],
					"name": "Uwon",
					"outputs": [],
					"stateMutability": "payable",
					"type": "function"
				},
				{
					"inputs": [
						{
							"internalType": "uint256[]",
							"name": "piles",
							"type": "uint256[]"
						}
					],
					"name": "nextMove",
					"outputs": [
						{
							"internalType": "uint256",
							"name": "",
							"type": "uint256"
						},
						{
							"internalType": "uint256",
							"name": "",
							"type": "uint256"
						}
					],
					"stateMutability": "pure",
					"type": "function"
				},
				{
					"inputs": [],
					"name": "results",
					"outputs": [
						{
							"internalType": "uint256",
							"name": "",
							"type": "uint256"
						},
						{
							"internalType": "uint256",
							"name": "",
							"type": "uint256"
						},
						{
							"internalType": "uint256",
							"name": "",
							"type": "uint256"
						},
						{
							"internalType": "uint256",
							"name": "",
							"type": "uint256"
						}
					],
					"stateMutability": "view",
					"type": "function"
				},
				{
					"stateMutability": "payable",
					"type": "receive"
				}
			],
			"devdoc": {
				"kind": "dev",
				"methods": {},
				"version": 1
			},
			"evm": {
				"assembly": "    /* \"nim.sol\":6661:7203  contract Boring1NimPlayer is TrackingNimPlayer... */\n  mstore(0x40, 0x80)\n    /* \"nim.sol\":5472:5473  0 */\n  0x00\n    /* \"nim.sol\":5460:5473  uint losses=0 */\n  dup1\n  sstore\n    /* \"nim.sol\":5489:5490  0 */\n  0x00\n    /* \"nim.sol\":5479:5490  uint wins=0 */\n  0x01\n  sstore\n    /* \"nim.sol\":5508:5509  0 */\n  0x00\n    /* \"nim.sol\":5496:5509  uint faults=0 */\n  0x02\n  sstore\n    /* \"nim.sol\":6661:7203  contract Boring1NimPlayer is TrackingNimPlayer... */\n  callvalue\n  dup1\n  iszero\n  tag_1\n  jumpi\n  0x00\n  dup1\n  revert\ntag_1:\n  pop\n  dataSize(sub_0)\n  dup1\n  dataOffset(sub_0)\n  0x00\n  codecopy\n  0x00\n  return\nstop\n\nsub_0: assembly {\n        /* \"nim.sol\":6661:7203  contract Boring1NimPlayer is TrackingNimPlayer... */\n      mstore(0x40, 0x80)\n      jumpi(tag_1, lt(calldatasize, 0x04))\n      shr(0xe0, calldataload(0x00))\n      dup1\n      0x0bc59f4f\n      eq\n      tag_3\n      jumpi\n      dup1\n      0x14f6f57a\n      eq\n      tag_4\n      jumpi\n      dup1\n      0xa48bdb7c\n      eq\n      tag_5\n      jumpi\n      dup1\n      0xc6616c46\n      eq\n      tag_6\n      jumpi\n      dup1\n      0xde6de521\n      eq\n      tag_7\n      jumpi\n      jump(tag_2)\n    tag_1:\n      jumpi(tag_2, calldatasize)\n      stop\n    tag_2:\n      stop\n        /* \"nim.sol\":6189:6261  function Uwon() override external payable... */\n    tag_3:\n      tag_12\n      tag_13\n      jump\t// in\n    tag_12:\n      stop\n        /* \"nim.sol\":6798:7201  function nextMove(uint256[] calldata piles) override external pure returns (uint, uint256)... */\n    tag_4:\n      callvalue\n      dup1\n      iszero\n      tag_14\n      jumpi\n      0x00\n      dup1\n      revert\n    tag_14:\n      pop\n      tag_15\n      0x04\n      dup1\n      calldatasize\n      sub\n      dup2\n      add\n      swap1\n      tag_16\n      swap2\n      swap1\n      tag_17\n      jump\t// in\n    tag_16:\n      tag_18\n      jump\t// in\n    tag_15:\n      mload(0x40)\n      tag_19\n      swap3\n      swap2\n      swap1\n      tag_20\n      jump\t// in\n    tag_19:\n      mload(0x40)\n      dup1\n      swap2\n      sub\n      swap1\n      return\n        /* \"nim.sol\":6515:6652  function results() external view returns(uint, uint, uint, uint)... */\n    tag_5:\n      callvalue\n      dup1\n      iszero\n      tag_21\n      jumpi\n      0x00\n      dup1\n      revert\n    tag_21:\n      pop\n      tag_22\n      tag_23\n      jump\t// in\n    tag_22:\n      mload(0x40)\n      tag_24\n      swap5\n      swap4\n      swap3\n      swap2\n      swap1\n      tag_25\n      jump\t// in\n    tag_24:\n      mload(0x40)\n      dup1\n      swap2\n      sub\n      swap1\n      return\n        /* \"nim.sol\":6431:6505  function UlostBadMove() override external... */\n    tag_6:\n      callvalue\n      dup1\n      iszero\n      tag_26\n      jumpi\n      0x00\n      dup1\n      revert\n    tag_26:\n      pop\n      tag_27\n      tag_28\n      jump\t// in\n    tag_27:\n      stop\n        /* \"nim.sol\":6296:6363  function Ulost() override external... */\n    tag_7:\n      callvalue\n      dup1\n      iszero\n      tag_29\n      jumpi\n      0x00\n      dup1\n      revert\n    tag_29:\n      pop\n      tag_30\n      tag_31\n      jump\t// in\n    tag_30:\n      stop\n        /* \"nim.sol\":6189:6261  function Uwon() override external payable... */\n    tag_13:\n        /* \"nim.sol\":6253:6254  1 */\n      0x01\n        /* \"nim.sol\":6245:6249  wins */\n      dup1\n      0x00\n        /* \"nim.sol\":6245:6254  wins += 1 */\n      dup3\n      dup3\n      sload\n      tag_33\n      swap2\n      swap1\n      tag_34\n      jump\t// in\n    tag_33:\n      swap3\n      pop\n      pop\n      dup2\n      swap1\n      sstore\n      pop\n        /* \"nim.sol\":6189:6261  function Uwon() override external payable... */\n      jump\t// out\n        /* \"nim.sol\":6798:7201  function nextMove(uint256[] calldata piles) override external pure returns (uint, uint256)... */\n    tag_18:\n        /* \"nim.sol\":6874:6878  uint */\n      0x00\n        /* \"nim.sol\":6880:6887  uint256 */\n      dup1\n        /* \"nim.sol\":6907:6913  uint i */\n      0x00\n        /* \"nim.sol\":6903:7035  for(uint i=0;i<piles.length; i++)... */\n    tag_36:\n        /* \"nim.sol\":6918:6923  piles */\n      dup5\n      dup5\n        /* \"nim.sol\":6918:6930  piles.length */\n      swap1\n      pop\n        /* \"nim.sol\":6916:6917  i */\n      dup2\n        /* \"nim.sol\":6916:6930  i<piles.length */\n      lt\n        /* \"nim.sol\":6903:7035  for(uint i=0;i<piles.length; i++)... */\n      iszero\n      tag_37\n      jumpi\n        /* \"nim.sol\":6972:6973  1 */\n      0x01\n        /* \"nim.sol\":6963:6968  piles */\n      dup6\n      dup6\n        /* \"nim.sol\":6969:6970  i */\n      dup4\n        /* \"nim.sol\":6963:6971  piles[i] */\n      dup2\n      dup2\n      lt\n      tag_39\n      jumpi\n      tag_40\n      tag_41\n      jump\t// in\n    tag_40:\n    tag_39:\n      swap1\n      pop\n      0x20\n      mul\n      add\n      calldataload\n        /* \"nim.sol\":6963:6973  piles[i]>1 */\n      gt\n        /* \"nim.sol\":6959:6997  if (piles[i]>1) return (i, piles[i]-1) */\n      iszero\n      tag_42\n      jumpi\n        /* \"nim.sol\":6983:6984  i */\n      dup1\n        /* \"nim.sol\":6995:6996  1 */\n      0x01\n        /* \"nim.sol\":6986:6991  piles */\n      dup7\n      dup7\n        /* \"nim.sol\":6992:6993  i */\n      dup5\n        /* \"nim.sol\":6986:6994  piles[i] */\n      dup2\n      dup2\n      lt\n      tag_43\n      jumpi\n      tag_44\n      tag_41\n      jump\t// in\n    tag_44:\n    tag_43:\n      swap1\n      pop\n      0x20\n      mul\n      add\n      calldataload\n        /* \"nim.sol\":6986:6996  piles[i]-1 */\n      tag_45\n      swap2\n      swap1\n      tag_46\n      jump\t// in\n    tag_45:\n        /* \"nim.sol\":6975:6997  return (i, piles[i]-1) */\n      swap3\n      pop\n      swap3\n      pop\n      pop\n      jump(tag_35)\n        /* \"nim.sol\":6959:6997  if (piles[i]>1) return (i, piles[i]-1) */\n    tag_42:\n        /* \"nim.sol\":6932:6935  i++ */\n      dup1\n      dup1\n      0x01\n      add\n      swap2\n      pop\n      pop\n        /* \"nim.sol\":6903:7035  for(uint i=0;i<piles.length; i++)... */\n      jump(tag_36)\n    tag_37:\n      pop\n        /* \"nim.sol\":7048:7054  uint i */\n      0x00\n        /* \"nim.sol\":7044:7174  for(uint i=0;i<piles.length; i++)... */\n    tag_47:\n        /* \"nim.sol\":7059:7064  piles */\n      dup5\n      dup5\n        /* \"nim.sol\":7059:7071  piles.length */\n      swap1\n      pop\n        /* \"nim.sol\":7057:7058  i */\n      dup2\n        /* \"nim.sol\":7057:7071  i<piles.length */\n      lt\n        /* \"nim.sol\":7044:7174  for(uint i=0;i<piles.length; i++)... */\n      iszero\n      tag_48\n      jumpi\n        /* \"nim.sol\":7113:7114  0 */\n      0x00\n        /* \"nim.sol\":7104:7109  piles */\n      dup6\n      dup6\n        /* \"nim.sol\":7110:7111  i */\n      dup4\n        /* \"nim.sol\":7104:7112  piles[i] */\n      dup2\n      dup2\n      lt\n      tag_50\n      jumpi\n      tag_51\n      tag_41\n      jump\t// in\n    tag_51:\n    tag_50:\n      swap1\n      pop\n      0x20\n      mul\n      add\n      calldataload\n        /* \"nim.sol\":7104:7114  piles[i]>0 */\n      gt\n        /* \"nim.sol\":7100:7136  if (piles[i]>0) return (i, piles[i]) */\n      iszero\n      tag_52\n      jumpi\n        /* \"nim.sol\":7124:7125  i */\n      dup1\n        /* \"nim.sol\":7127:7132  piles */\n      dup6\n      dup6\n        /* \"nim.sol\":7133:7134  i */\n      dup4\n        /* \"nim.sol\":7127:7135  piles[i] */\n      dup2\n      dup2\n      lt\n      tag_53\n      jumpi\n      tag_54\n      tag_41\n      jump\t// in\n    tag_54:\n    tag_53:\n      swap1\n      pop\n      0x20\n      mul\n      add\n      calldataload\n        /* \"nim.sol\":7116:7136  return (i, piles[i]) */\n      swap3\n      pop\n      swap3\n      pop\n      pop\n      jump(tag_35)\n        /* \"nim.sol\":7100:7136  if (piles[i]>0) return (i, piles[i]) */\n    tag_52:\n        /* \"nim.sol\":7073:7076  i++ */\n      dup1\n      dup1\n      0x01\n      add\n      swap2\n      pop\n      pop\n        /* \"nim.sol\":7044:7174  for(uint i=0;i<piles.length; i++)... */\n      jump(tag_47)\n    tag_48:\n      pop\n        /* \"nim.sol\":7190:7191  0 */\n      0x00\n        /* \"nim.sol\":7192:7193  0 */\n      dup1\n        /* \"nim.sol\":7183:7194  return(0,0) */\n      swap2\n      pop\n      swap2\n      pop\n        /* \"nim.sol\":6798:7201  function nextMove(uint256[] calldata piles) override external pure returns (uint, uint256)... */\n    tag_35:\n      swap3\n      pop\n      swap3\n      swap1\n      pop\n      jump\t// out\n        /* \"nim.sol\":6515:6652  function results() external view returns(uint, uint, uint, uint)... */\n    tag_23:\n        /* \"nim.sol\":6556:6560  uint */\n      0x00\n        /* \"nim.sol\":6562:6566  uint */\n      dup1\n        /* \"nim.sol\":6568:6572  uint */\n      0x00\n        /* \"nim.sol\":6574:6578  uint */\n      dup1\n        /* \"nim.sol\":6601:6605  wins */\n      sload(0x01)\n        /* \"nim.sol\":6607:6613  losses */\n      sload(0x00)\n        /* \"nim.sol\":6615:6621  faults */\n      sload(0x02)\n        /* \"nim.sol\":6623:6644  address(this).balance */\n      selfbalance\n        /* \"nim.sol\":6594:6645  return(wins, losses, faults, address(this).balance) */\n      swap4\n      pop\n      swap4\n      pop\n      swap4\n      pop\n      swap4\n      pop\n        /* \"nim.sol\":6515:6652  function results() external view returns(uint, uint, uint, uint)... */\n      swap1\n      swap2\n      swap3\n      swap4\n      jump\t// out\n        /* \"nim.sol\":6431:6505  function UlostBadMove() override external... */\n    tag_28:\n        /* \"nim.sol\":6497:6498  1 */\n      0x01\n        /* \"nim.sol\":6487:6493  faults */\n      0x02\n      0x00\n        /* \"nim.sol\":6487:6498  faults += 1 */\n      dup3\n      dup3\n      sload\n      tag_57\n      swap2\n      swap1\n      tag_34\n      jump\t// in\n    tag_57:\n      swap3\n      pop\n      pop\n      dup2\n      swap1\n      sstore\n      pop\n        /* \"nim.sol\":6431:6505  function UlostBadMove() override external... */\n      jump\t// out\n        /* \"nim.sol\":6296:6363  function Ulost() override external... */\n    tag_31:\n        /* \"nim.sol\":6355:6356  1 */\n      0x01\n        /* \"nim.sol\":6345:6351  losses */\n      0x00\n      dup1\n        /* \"nim.sol\":6345:6356  losses += 1 */\n      dup3\n      dup3\n      sload\n      tag_59\n      swap2\n      swap1\n      tag_34\n      jump\t// in\n    tag_59:\n      swap3\n      pop\n      pop\n      dup2\n      swap1\n      sstore\n      pop\n        /* \"nim.sol\":6296:6363  function Ulost() override external... */\n      jump\t// out\n        /* \"#utility.yul\":88:205   */\n    tag_61:\n        /* \"#utility.yul\":197:198   */\n      0x00\n        /* \"#utility.yul\":194:195   */\n      dup1\n        /* \"#utility.yul\":187:199   */\n      revert\n        /* \"#utility.yul\":211:328   */\n    tag_62:\n        /* \"#utility.yul\":320:321   */\n      0x00\n        /* \"#utility.yul\":317:318   */\n      dup1\n        /* \"#utility.yul\":310:322   */\n      revert\n        /* \"#utility.yul\":334:451   */\n    tag_63:\n        /* \"#utility.yul\":443:444   */\n      0x00\n        /* \"#utility.yul\":440:441   */\n      dup1\n        /* \"#utility.yul\":433:445   */\n      revert\n        /* \"#utility.yul\":457:574   */\n    tag_64:\n        /* \"#utility.yul\":566:567   */\n      0x00\n        /* \"#utility.yul\":563:564   */\n      dup1\n        /* \"#utility.yul\":556:568   */\n      revert\n        /* \"#utility.yul\":580:697   */\n    tag_65:\n        /* \"#utility.yul\":689:690   */\n      0x00\n        /* \"#utility.yul\":686:687   */\n      dup1\n        /* \"#utility.yul\":679:691   */\n      revert\n        /* \"#utility.yul\":720:1288   */\n    tag_66:\n        /* \"#utility.yul\":793:801   */\n      0x00\n        /* \"#utility.yul\":803:809   */\n      dup1\n        /* \"#utility.yul\":853:856   */\n      dup4\n        /* \"#utility.yul\":846:850   */\n      0x1f\n        /* \"#utility.yul\":838:844   */\n      dup5\n        /* \"#utility.yul\":834:851   */\n      add\n        /* \"#utility.yul\":830:857   */\n      slt\n        /* \"#utility.yul\":820:942   */\n      tag_78\n      jumpi\n        /* \"#utility.yul\":861:940   */\n      tag_79\n      tag_63\n      jump\t// in\n    tag_79:\n        /* \"#utility.yul\":820:942   */\n    tag_78:\n        /* \"#utility.yul\":974:980   */\n      dup3\n        /* \"#utility.yul\":961:981   */\n      calldataload\n        /* \"#utility.yul\":951:981   */\n      swap1\n      pop\n        /* \"#utility.yul\":1004:1022   */\n      0xffffffffffffffff\n        /* \"#utility.yul\":996:1002   */\n      dup2\n        /* \"#utility.yul\":993:1023   */\n      gt\n        /* \"#utility.yul\":990:1107   */\n      iszero\n      tag_80\n      jumpi\n        /* \"#utility.yul\":1026:1105   */\n      tag_81\n      tag_64\n      jump\t// in\n    tag_81:\n        /* \"#utility.yul\":990:1107   */\n    tag_80:\n        /* \"#utility.yul\":1140:1144   */\n      0x20\n        /* \"#utility.yul\":1132:1138   */\n      dup4\n        /* \"#utility.yul\":1128:1145   */\n      add\n        /* \"#utility.yul\":1116:1145   */\n      swap2\n      pop\n        /* \"#utility.yul\":1194:1197   */\n      dup4\n        /* \"#utility.yul\":1186:1190   */\n      0x20\n        /* \"#utility.yul\":1178:1184   */\n      dup3\n        /* \"#utility.yul\":1174:1191   */\n      mul\n        /* \"#utility.yul\":1164:1172   */\n      dup4\n        /* \"#utility.yul\":1160:1192   */\n      add\n        /* \"#utility.yul\":1157:1198   */\n      gt\n        /* \"#utility.yul\":1154:1282   */\n      iszero\n      tag_82\n      jumpi\n        /* \"#utility.yul\":1201:1280   */\n      tag_83\n      tag_65\n      jump\t// in\n    tag_83:\n        /* \"#utility.yul\":1154:1282   */\n    tag_82:\n        /* \"#utility.yul\":720:1288   */\n      swap3\n      pop\n      swap3\n      swap1\n      pop\n      jump\t// out\n        /* \"#utility.yul\":1294:1853   */\n    tag_17:\n        /* \"#utility.yul\":1380:1386   */\n      0x00\n        /* \"#utility.yul\":1388:1394   */\n      dup1\n        /* \"#utility.yul\":1437:1439   */\n      0x20\n        /* \"#utility.yul\":1425:1434   */\n      dup4\n        /* \"#utility.yul\":1416:1423   */\n      dup6\n        /* \"#utility.yul\":1412:1435   */\n      sub\n        /* \"#utility.yul\":1408:1440   */\n      slt\n        /* \"#utility.yul\":1405:1524   */\n      iszero\n      tag_85\n      jumpi\n        /* \"#utility.yul\":1443:1522   */\n      tag_86\n      tag_61\n      jump\t// in\n    tag_86:\n        /* \"#utility.yul\":1405:1524   */\n    tag_85:\n        /* \"#utility.yul\":1591:1592   */\n      0x00\n        /* \"#utility.yul\":1580:1589   */\n      dup4\n        /* \"#utility.yul\":1576:1593   */\n      add\n        /* \"#utility.yul\":1563:1594   */\n      calldataload\n        /* \"#utility.yul\":1621:1639   */\n      0xffffffffffffffff\n        /* \"#utility.yul\":1613:1619   */\n      dup2\n        /* \"#utility.yul\":1610:1640   */\n      gt\n        /* \"#utility.yul\":1607:1724   */\n      iszero\n      tag_87\n      jumpi\n        /* \"#utility.yul\":1643:1722   */\n      tag_88\n      tag_62\n      jump\t// in\n    tag_88:\n        /* \"#utility.yul\":1607:1724   */\n    tag_87:\n        /* \"#utility.yul\":1756:1836   */\n      tag_89\n        /* \"#utility.yul\":1828:1835   */\n      dup6\n        /* \"#utility.yul\":1819:1825   */\n      dup3\n        /* \"#utility.yul\":1808:1817   */\n      dup7\n        /* \"#utility.yul\":1804:1826   */\n      add\n        /* \"#utility.yul\":1756:1836   */\n      tag_66\n      jump\t// in\n    tag_89:\n        /* \"#utility.yul\":1738:1836   */\n      swap3\n      pop\n      swap3\n      pop\n        /* \"#utility.yul\":1534:1846   */\n      pop\n        /* \"#utility.yul\":1294:1853   */\n      swap3\n      pop\n      swap3\n      swap1\n      pop\n      jump\t// out\n        /* \"#utility.yul\":1859:1936   */\n    tag_67:\n        /* \"#utility.yul\":1896:1903   */\n      0x00\n        /* \"#utility.yul\":1925:1930   */\n      dup2\n        /* \"#utility.yul\":1914:1930   */\n      swap1\n      pop\n        /* \"#utility.yul\":1859:1936   */\n      swap2\n      swap1\n      pop\n      jump\t// out\n        /* \"#utility.yul\":1942:2060   */\n    tag_68:\n        /* \"#utility.yul\":2029:2053   */\n      tag_92\n        /* \"#utility.yul\":2047:2052   */\n      dup2\n        /* \"#utility.yul\":2029:2053   */\n      tag_67\n      jump\t// in\n    tag_92:\n        /* \"#utility.yul\":2024:2027   */\n      dup3\n        /* \"#utility.yul\":2017:2054   */\n      mstore\n        /* \"#utility.yul\":1942:2060   */\n      pop\n      pop\n      jump\t// out\n        /* \"#utility.yul\":2066:2398   */\n    tag_20:\n        /* \"#utility.yul\":2187:2191   */\n      0x00\n        /* \"#utility.yul\":2225:2227   */\n      0x40\n        /* \"#utility.yul\":2214:2223   */\n      dup3\n        /* \"#utility.yul\":2210:2228   */\n      add\n        /* \"#utility.yul\":2202:2228   */\n      swap1\n      pop\n        /* \"#utility.yul\":2238:2309   */\n      tag_94\n        /* \"#utility.yul\":2306:2307   */\n      0x00\n        /* \"#utility.yul\":2295:2304   */\n      dup4\n        /* \"#utility.yul\":2291:2308   */\n      add\n        /* \"#utility.yul\":2282:2288   */\n      dup6\n        /* \"#utility.yul\":2238:2309   */\n      tag_68\n      jump\t// in\n    tag_94:\n        /* \"#utility.yul\":2319:2391   */\n      tag_95\n        /* \"#utility.yul\":2387:2389   */\n      0x20\n        /* \"#utility.yul\":2376:2385   */\n      dup4\n        /* \"#utility.yul\":2372:2390   */\n      add\n        /* \"#utility.yul\":2363:2369   */\n      dup5\n        /* \"#utility.yul\":2319:2391   */\n      tag_68\n      jump\t// in\n    tag_95:\n        /* \"#utility.yul\":2066:2398   */\n      swap4\n      swap3\n      pop\n      pop\n      pop\n      jump\t// out\n        /* \"#utility.yul\":2404:2957   */\n    tag_25:\n        /* \"#utility.yul\":2581:2585   */\n      0x00\n        /* \"#utility.yul\":2619:2622   */\n      0x80\n        /* \"#utility.yul\":2608:2617   */\n      dup3\n        /* \"#utility.yul\":2604:2623   */\n      add\n        /* \"#utility.yul\":2596:2623   */\n      swap1\n      pop\n        /* \"#utility.yul\":2633:2704   */\n      tag_97\n        /* \"#utility.yul\":2701:2702   */\n      0x00\n        /* \"#utility.yul\":2690:2699   */\n      dup4\n        /* \"#utility.yul\":2686:2703   */\n      add\n        /* \"#utility.yul\":2677:2683   */\n      dup8\n        /* \"#utility.yul\":2633:2704   */\n      tag_68\n      jump\t// in\n    tag_97:\n        /* \"#utility.yul\":2714:2786   */\n      tag_98\n        /* \"#utility.yul\":2782:2784   */\n      0x20\n        /* \"#utility.yul\":2771:2780   */\n      dup4\n        /* \"#utility.yul\":2767:2785   */\n      add\n        /* \"#utility.yul\":2758:2764   */\n      dup7\n        /* \"#utility.yul\":2714:2786   */\n      tag_68\n      jump\t// in\n    tag_98:\n        /* \"#utility.yul\":2796:2868   */\n      tag_99\n        /* \"#utility.yul\":2864:2866   */\n      0x40\n        /* \"#utility.yul\":2853:2862   */\n      dup4\n        /* \"#utility.yul\":2849:2867   */\n      add\n        /* \"#utility.yul\":2840:2846   */\n      dup6\n        /* \"#utility.yul\":2796:2868   */\n      tag_68\n      jump\t// in\n    tag_99:\n        /* \"#utility.yul\":2878:2950   */\n      tag_100\n        /* \"#utility.yul\":2946:2948   */\n      0x60\n        /* \"#utility.yul\":2935:2944   */\n      dup4\n        /* \"#utility.yul\":2931:2949   */\n      add\n        /* \"#utility.yul\":2922:2928   */\n      dup5\n        /* \"#utility.yul\":2878:2950   */\n      tag_68\n      jump\t// in\n    tag_100:\n        /* \"#utility.yul\":2404:2957   */\n      swap6\n      swap5\n      pop\n      pop\n      pop\n      pop\n      pop\n      jump\t// out\n        /* \"#utility.yul\":2963:3143   */\n    tag_69:\n        /* \"#utility.yul\":3011:3088   */\n      0x4e487b7100000000000000000000000000000000000000000000000000000000\n        /* \"#utility.yul\":3008:3009   */\n      0x00\n        /* \"#utility.yul\":3001:3089   */\n      mstore\n        /* \"#utility.yul\":3108:3112   */\n      0x11\n        /* \"#utility.yul\":3105:3106   */\n      0x04\n        /* \"#utility.yul\":3098:3113   */\n      mstore\n        /* \"#utility.yul\":3132:3136   */\n      0x24\n        /* \"#utility.yul\":3129:3130   */\n      0x00\n        /* \"#utility.yul\":3122:3137   */\n      revert\n        /* \"#utility.yul\":3149:3340   */\n    tag_34:\n        /* \"#utility.yul\":3189:3192   */\n      0x00\n        /* \"#utility.yul\":3208:3228   */\n      tag_103\n        /* \"#utility.yul\":3226:3227   */\n      dup3\n        /* \"#utility.yul\":3208:3228   */\n      tag_67\n      jump\t// in\n    tag_103:\n        /* \"#utility.yul\":3203:3228   */\n      swap2\n      pop\n        /* \"#utility.yul\":3242:3262   */\n      tag_104\n        /* \"#utility.yul\":3260:3261   */\n      dup4\n        /* \"#utility.yul\":3242:3262   */\n      tag_67\n      jump\t// in\n    tag_104:\n        /* \"#utility.yul\":3237:3262   */\n      swap3\n      pop\n        /* \"#utility.yul\":3285:3286   */\n      dup3\n        /* \"#utility.yul\":3282:3283   */\n      dup3\n        /* \"#utility.yul\":3278:3287   */\n      add\n        /* \"#utility.yul\":3271:3287   */\n      swap1\n      pop\n        /* \"#utility.yul\":3306:3309   */\n      dup1\n        /* \"#utility.yul\":3303:3304   */\n      dup3\n        /* \"#utility.yul\":3300:3310   */\n      gt\n        /* \"#utility.yul\":3297:3333   */\n      iszero\n      tag_105\n      jumpi\n        /* \"#utility.yul\":3313:3331   */\n      tag_106\n      tag_69\n      jump\t// in\n    tag_106:\n        /* \"#utility.yul\":3297:3333   */\n    tag_105:\n        /* \"#utility.yul\":3149:3340   */\n      swap3\n      swap2\n      pop\n      pop\n      jump\t// out\n        /* \"#utility.yul\":3346:3526   */\n    tag_41:\n        /* \"#utility.yul\":3394:3471   */\n      0x4e487b7100000000000000000000000000000000000000000000000000000000\n        /* \"#utility.yul\":3391:3392   */\n      0x00\n        /* \"#utility.yul\":3384:3472   */\n      mstore\n        /* \"#utility.yul\":3491:3495   */\n      0x32\n        /* \"#utility.yul\":3488:3489   */\n      0x04\n        /* \"#utility.yul\":3481:3496   */\n      mstore\n        /* \"#utility.yul\":3515:3519   */\n      0x24\n        /* \"#utility.yul\":3512:3513   */\n      0x00\n        /* \"#utility.yul\":3505:3520   */\n      revert\n        /* \"#utility.yul\":3532:3726   */\n    tag_46:\n        /* \"#utility.yul\":3572:3576   */\n      0x00\n        /* \"#utility.yul\":3592:3612   */\n      tag_109\n        /* \"#utility.yul\":3610:3611   */\n      dup3\n        /* \"#utility.yul\":3592:3612   */\n      tag_67\n      jump\t// in\n    tag_109:\n        /* \"#utility.yul\":3587:3612   */\n      swap2\n      pop\n        /* \"#utility.yul\":3626:3646   */\n      tag_110\n        /* \"#utility.yul\":3644:3645   */\n      dup4\n        /* \"#utility.yul\":3626:3646   */\n      tag_67\n      jump\t// in\n    tag_110:\n        /* \"#utility.yul\":3621:3646   */\n      swap3\n      pop\n        /* \"#utility.yul\":3670:3671   */\n      dup3\n        /* \"#utility.yul\":3667:3668   */\n      dup3\n        /* \"#utility.yul\":3663:3672   */\n      sub\n        /* \"#utility.yul\":3655:3672   */\n      swap1\n      pop\n        /* \"#utility.yul\":3694:3695   */\n      dup2\n        /* \"#utility.yul\":3688:3692   */\n      dup2\n        /* \"#utility.yul\":3685:3696   */\n      gt\n        /* \"#utility.yul\":3682:3719   */\n      iszero\n      tag_111\n      jumpi\n        /* \"#utility.yul\":3699:3717   */\n      tag_112\n      tag_69\n      jump\t// in\n    tag_112:\n        /* \"#utility.yul\":3682:3719   */\n    tag_111:\n        /* \"#utility.yul\":3532:3726   */\n      swap3\n      swap2\n      pop\n      pop\n      jump\t// out\n\n    auxdata: 0xa26469706673582212204be8766e5c887cf670a18fff017aa829a321b015a812302ec63afb82e93bcafe64736f6c634300081a0033\n}\n",
				"bytecode": {
					"linkReferences": {},
					"object": "60806040525f80555f6001555f6002553480156019575f80fd5b5061046b806100275f395ff3fe60806040526004361061004d575f3560e01c80630bc59f4f1461005657806314f6f57a14610060578063a48bdb7c1461009d578063c6616c46146100ca578063de6de521146100e057610054565b3661005457005b005b61005e6100f6565b005b34801561006b575f80fd5b50610086600480360381019061008191906102a8565b610110565b60405161009492919061030b565b60405180910390f35b3480156100a8575f80fd5b506100b16101ef565b6040516100c19493929190610332565b60405180910390f35b3480156100d5575f80fd5b506100de61020a565b005b3480156100eb575f80fd5b506100f4610225565b005b6001805f82825461010791906103a2565b92505081905550565b5f805f5b8484905081101561017f576001858583818110610134576101336103d5565b5b90506020020135111561017257806001868684818110610157576101566103d5565b5b905060200201356101689190610402565b92509250506101e8565b8080600101915050610114565b505f5b848490508110156101e0575f8585838181106101a1576101a06103d5565b5b9050602002013511156101d357808585838181106101c2576101c16103d5565b5b9050602002013592509250506101e8565b8080600101915050610182565b505f80915091505b9250929050565b5f805f806001545f5460025447935093509350935090919293565b600160025f82825461021c91906103a2565b92505081905550565b60015f8082825461023691906103a2565b92505081905550565b5f80fd5b5f80fd5b5f80fd5b5f80fd5b5f80fd5b5f8083601f84011261026857610267610247565b5b8235905067ffffffffffffffff8111156102855761028461024b565b5b6020830191508360208202830111156102a1576102a061024f565b5b9250929050565b5f80602083850312156102be576102bd61023f565b5b5f83013567ffffffffffffffff8111156102db576102da610243565b5b6102e785828601610253565b92509250509250929050565b5f819050919050565b610305816102f3565b82525050565b5f60408201905061031e5f8301856102fc565b61032b60208301846102fc565b9392505050565b5f6080820190506103455f8301876102fc565b61035260208301866102fc565b61035f60408301856102fc565b61036c60608301846102fc565b95945050505050565b7f4e487b71000000000000000000000000000000000000000000000000000000005f52601160045260245ffd5b5f6103ac826102f3565b91506103b7836102f3565b92508282019050808211156103cf576103ce610375565b5b92915050565b7f4e487b71000000000000000000000000000000000000000000000000000000005f52603260045260245ffd5b5f61040c826102f3565b9150610417836102f3565b925082820390508181111561042f5761042e610375565b5b9291505056fea26469706673582212204be8766e5c887cf670a18fff017aa829a321b015a812302ec63afb82e93bcafe64736f6c634300081a0033",
					"opcodes": "PUSH1 0x80 PUSH1 0x40 MSTORE PUSH0 DUP1 SSTORE PUSH0 PUSH1 0x1 SSTORE PUSH0 PUSH1 0x2 SSTORE CALLVALUE DUP1 ISZERO PUSH1 0x19 JUMPI PUSH0 DUP1 REVERT JUMPDEST POP PUSH2 0x46B DUP1 PUSH2 0x27 PUSH0 CODECOPY PUSH0 RETURN INVALID PUSH1 0x80 PUSH1 0x40 MSTORE PUSH1 0x4 CALLDATASIZE LT PUSH2 0x4D JUMPI PUSH0 CALLDATALOAD PUSH1 0xE0 SHR DUP1 PUSH4 0xBC59F4F EQ PUSH2 0x56 JUMPI DUP1 PUSH4 0x14F6F57A EQ PUSH2 0x60 JUMPI DUP1 PUSH4 0xA48BDB7C EQ PUSH2 0x9D JUMPI DUP1 PUSH4 0xC6616C46 EQ PUSH2 0xCA JUMPI DUP1 PUSH4 0xDE6DE521 EQ PUSH2 0xE0 JUMPI PUSH2 0x54 JUMP JUMPDEST CALLDATASIZE PUSH2 0x54 JUMPI STOP JUMPDEST STOP JUMPDEST PUSH2 0x5E PUSH2 0xF6 JUMP JUMPDEST STOP JUMPDEST CALLVALUE DUP1 ISZERO PUSH2 0x6B JUMPI PUSH0 DUP1 REVERT JUMPDEST POP PUSH2 0x86 PUSH1 0x4 DUP1 CALLDATASIZE SUB DUP2 ADD SWAP1 PUSH2 0x81 SWAP2 SWAP1 PUSH2 0x2A8 JUMP JUMPDEST PUSH2 0x110 JUMP JUMPDEST PUSH1 0x40 MLOAD PUSH2 0x94 SWAP3 SWAP2 SWAP1 PUSH2 0x30B JUMP JUMPDEST PUSH1 0x40 MLOAD DUP1 SWAP2 SUB SWAP1 RETURN JUMPDEST CALLVALUE DUP1 ISZERO PUSH2 0xA8 JUMPI PUSH0 DUP1 REVERT JUMPDEST POP PUSH2 0xB1 PUSH2 0x1EF JUMP JUMPDEST PUSH1 0x40 MLOAD PUSH2 0xC1 SWAP5 SWAP4 SWAP3 SWAP2 SWAP1 PUSH2 0x332 JUMP JUMPDEST PUSH1 0x40 MLOAD DUP1 SWAP2 SUB SWAP1 RETURN JUMPDEST CALLVALUE DUP1 ISZERO PUSH2 0xD5 JUMPI PUSH0 DUP1 REVERT JUMPDEST POP PUSH2 0xDE PUSH2 0x20A JUMP JUMPDEST STOP JUMPDEST CALLVALUE DUP1 ISZERO PUSH2 0xEB JUMPI PUSH0 DUP1 REVERT JUMPDEST POP PUSH2 0xF4 PUSH2 0x225 JUMP JUMPDEST STOP JUMPDEST PUSH1 0x1 DUP1 PUSH0 DUP3 DUP3 SLOAD PUSH2 0x107 SWAP2 SWAP1 PUSH2 0x3A2 JUMP JUMPDEST SWAP3 POP POP DUP2 SWAP1 SSTORE POP JUMP JUMPDEST PUSH0 DUP1 PUSH0 JUMPDEST DUP5 DUP5 SWAP1 POP DUP2 LT ISZERO PUSH2 0x17F JUMPI PUSH1 0x1 DUP6 DUP6 DUP4 DUP2 DUP2 LT PUSH2 0x134 JUMPI PUSH2 0x133 PUSH2 0x3D5 JUMP JUMPDEST JUMPDEST SWAP1 POP PUSH1 0x20 MUL ADD CALLDATALOAD GT ISZERO PUSH2 0x172 JUMPI DUP1 PUSH1 0x1 DUP7 DUP7 DUP5 DUP2 DUP2 LT PUSH2 0x157 JUMPI PUSH2 0x156 PUSH2 0x3D5 JUMP JUMPDEST JUMPDEST SWAP1 POP PUSH1 0x20 MUL ADD CALLDATALOAD PUSH2 0x168 SWAP2 SWAP1 PUSH2 0x402 JUMP JUMPDEST SWAP3 POP SWAP3 POP POP PUSH2 0x1E8 JUMP JUMPDEST DUP1 DUP1 PUSH1 0x1 ADD SWAP2 POP POP PUSH2 0x114 JUMP JUMPDEST POP PUSH0 JUMPDEST DUP5 DUP5 SWAP1 POP DUP2 LT ISZERO PUSH2 0x1E0 JUMPI PUSH0 DUP6 DUP6 DUP4 DUP2 DUP2 LT PUSH2 0x1A1 JUMPI PUSH2 0x1A0 PUSH2 0x3D5 JUMP JUMPDEST JUMPDEST SWAP1 POP PUSH1 0x20 MUL ADD CALLDATALOAD GT ISZERO PUSH2 0x1D3 JUMPI DUP1 DUP6 DUP6 DUP4 DUP2 DUP2 LT PUSH2 0x1C2 JUMPI PUSH2 0x1C1 PUSH2 0x3D5 JUMP JUMPDEST JUMPDEST SWAP1 POP PUSH1 0x20 MUL ADD CALLDATALOAD SWAP3 POP SWAP3 POP POP PUSH2 0x1E8 JUMP JUMPDEST DUP1 DUP1 PUSH1 0x1 ADD SWAP2 POP POP PUSH2 0x182 JUMP JUMPDEST POP PUSH0 DUP1 SWAP2 POP SWAP2 POP JUMPDEST SWAP3 POP SWAP3 SWAP1 POP JUMP JUMPDEST PUSH0 DUP1 PUSH0 DUP1 PUSH1 0x1 SLOAD PUSH0 SLOAD PUSH1 0x2 SLOAD SELFBALANCE SWAP4 POP SWAP4 POP SWAP4 POP SWAP4 POP SWAP1 SWAP2 SWAP3 SWAP4 JUMP JUMPDEST PUSH1 0x1 PUSH1 0x2 PUSH0 DUP3 DUP3 SLOAD PUSH2 0x21C SWAP2 SWAP1 PUSH2 0x3A2 JUMP JUMPDEST SWAP3 POP POP DUP2 SWAP1 SSTORE POP JUMP JUMPDEST PUSH1 0x1 PUSH0 DUP1 DUP3 DUP3 SLOAD PUSH2 0x236 SWAP2 SWAP1 PUSH2 0x3A2 JUMP JUMPDEST SWAP3 POP POP DUP2 SWAP1 SSTORE POP JUMP JUMPDEST PUSH0 DUP1 REVERT JUMPDEST PUSH0 DUP1 REVERT JUMPDEST PUSH0 DUP1 REVERT JUMPDEST PUSH0 DUP1 REVERT JUMPDEST PUSH0 DUP1 REVERT JUMPDEST PUSH0 DUP1 DUP4 PUSH1 0x1F DUP5 ADD SLT PUSH2 0x268 JUMPI PUSH2 0x267 PUSH2 0x247 JUMP JUMPDEST JUMPDEST DUP3 CALLDATALOAD SWAP1 POP PUSH8 0xFFFFFFFFFFFFFFFF DUP2 GT ISZERO PUSH2 0x285 JUMPI PUSH2 0x284 PUSH2 0x24B JUMP JUMPDEST JUMPDEST PUSH1 0x20 DUP4 ADD SWAP2 POP DUP4 PUSH1 0x20 DUP3 MUL DUP4 ADD GT ISZERO PUSH2 0x2A1 JUMPI PUSH2 0x2A0 PUSH2 0x24F JUMP JUMPDEST JUMPDEST SWAP3 POP SWAP3 SWAP1 POP JUMP JUMPDEST PUSH0 DUP1 PUSH1 0x20 DUP4 DUP6 SUB SLT ISZERO PUSH2 0x2BE JUMPI PUSH2 0x2BD PUSH2 0x23F JUMP JUMPDEST JUMPDEST PUSH0 DUP4 ADD CALLDATALOAD PUSH8 0xFFFFFFFFFFFFFFFF DUP2 GT ISZERO PUSH2 0x2DB JUMPI PUSH2 0x2DA PUSH2 0x243 JUMP JUMPDEST JUMPDEST PUSH2 0x2E7 DUP6 DUP3 DUP7 ADD PUSH2 0x253 JUMP JUMPDEST SWAP3 POP SWAP3 POP POP SWAP3 POP SWAP3 SWAP1 POP JUMP JUMPDEST PUSH0 DUP2 SWAP1 POP SWAP2 SWAP1 POP JUMP JUMPDEST PUSH2 0x305 DUP2 PUSH2 0x2F3 JUMP JUMPDEST DUP3 MSTORE POP POP JUMP JUMPDEST PUSH0 PUSH1 0x40 DUP3 ADD SWAP1 POP PUSH2 0x31E PUSH0 DUP4 ADD DUP6 PUSH2 0x2FC JUMP JUMPDEST PUSH2 0x32B PUSH1 0x20 DUP4 ADD DUP5 PUSH2 0x2FC JUMP JUMPDEST SWAP4 SWAP3 POP POP POP JUMP JUMPDEST PUSH0 PUSH1 0x80 DUP3 ADD SWAP1 POP PUSH2 0x345 PUSH0 DUP4 ADD DUP8 PUSH2 0x2FC JUMP JUMPDEST PUSH2 0x352 PUSH1 0x20 DUP4 ADD DUP7 PUSH2 0x2FC JUMP JUMPDEST PUSH2 0x35F PUSH1 0x40 DUP4 ADD DUP6 PUSH2 0x2FC JUMP JUMPDEST PUSH2 0x36C PUSH1 0x60 DUP4 ADD DUP5 PUSH2 0x2FC JUMP JUMPDEST SWAP6 SWAP5 POP POP POP POP POP JUMP JUMPDEST PUSH32 0x4E487B7100000000000000000000000000000000000000000000000000000000 PUSH0 MSTORE PUSH1 0x11 PUSH1 0x4 MSTORE PUSH1 0x24 PUSH0 REVERT JUMPDEST PUSH0 PUSH2 0x3AC DUP3 PUSH2 0x2F3 JUMP JUMPDEST SWAP2 POP PUSH2 0x3B7 DUP4 PUSH2 0x2F3 JUMP JUMPDEST SWAP3 POP DUP3 DUP3 ADD SWAP1 POP DUP1 DUP3 GT ISZERO PUSH2 0x3CF JUMPI PUSH2 0x3CE PUSH2 0x375 JUMP JUMPDEST JUMPDEST SWAP3 SWAP2 POP POP JUMP JUMPDEST PUSH32 0x4E487B7100000000000000000000000000000000000000000000000000000000 PUSH0 MSTORE PUSH1 0x32 PUSH1 0x4 MSTORE PUSH1 0x24 PUSH0 REVERT JUMPDEST PUSH0 PUSH2 0x40C DUP3 PUSH2 0x2F3 JUMP JUMPDEST SWAP2 POP PUSH2 0x417 DUP4 PUSH2 0x2F3 JUMP JUMPDEST SWAP3 POP DUP3 DUP3 SUB SWAP1 POP DUP2 DUP2 GT ISZERO PUSH2 0x42F JUMPI PUSH2 0x42E PUSH2 0x375 JUMP JUMPDEST JUMPDEST SWAP3 SWAP2 POP POP JUMP INVALID LOG2 PUSH5 0x6970667358 0x22 SLT KECCAK256 0x4B 0xE8 PUSH23 0x6E5C887CF670A18FFF017AA829A321B015A812302EC63A 0xFB DUP3 0xE9 EXTCODESIZE 0xCA INVALID PUSH5 0x736F6C6343 STOP ADDMOD BYTE STOP CALLER "
				},
				"gasEstimates": {
					"creation": {
						"codeDepositCost": "226200",
						"executionCost": "15282",
						"totalCost": "241482"
					},
					"external": {
						"": "172",
						"Ulost()": "infinite",
						"UlostBadMove()": "infinite",
						"Uwon()": "infinite",
						"nextMove(uint256[])": "infinite",
						"results()": "infinite"
					}
				},
				"methodIdentifiers": {
					"Ulost()": "de6de521",
					"UlostBadMove()": "c6616c46",
					"Uwon()": "0bc59f4f",
					"nextMove(uint256[])": "14f6f57a",
					"results()": "a48bdb7c"
				}
			},
			"storageLayout": {
				"storage": [
					{
						"astId": 260,
						"contract": "nim.sol:Boring1NimPlayer",
						"label": "losses",
						"offset": 0,
						"slot": "0",
						"type": "t_uint256"
					},
					{
						"astId": 263,
						"contract": "nim.sol:Boring1NimPlayer",
						"label": "wins",
						"offset": 0,
						"slot": "1",
						"type": "t_uint256"
					},
					{
						"astId": 266,
						"contract": "nim.sol:Boring1NimPlayer",
						"label": "faults",
						"offset": 0,
						"slot": "2",
						"type": "t_uint256"
					}
				],
				"types": {
					"t_uint256": {
						"encoding": "inplace",
						"label": "uint256",
						"numberOfBytes": "32"
					}
				}
			},
			"userdoc": {
				"kind": "user",
				"methods": {},
				"version": 1
			}
		}
	}
}