{
	"data": {
		"bytecode": {
			"linkReferences": {},
			"object": "6080604052348015600e575f80fd5b506117248061001c5f395ff3fe608060405260043610610037575f3560e01c8063d9659eff14610040578063f579067014610056578063fa252f551461007e5761003e565b3661003e57005b005b34801561004b575f80fd5b506100546100bd565b005b348015610061575f80fd5b5061007c60048036038101906100779190610542565b6102b2565b005b348015610089575f80fd5b506100a4600480360381019061009f91906105c6565b6103d1565b6040516100b49493929190610600565b60405180910390f35b6040516100c99061048c565b604051809103905ff0801580156100e2573d5f803e3d5ffd5b505f806101000a81548173ffffffffffffffffffffffffffffffffffffffff021916908373ffffffffffffffffffffffffffffffffffffffff160217905550600160405161012f90610499565b604051809103905ff080158015610148573d5f803e3d5ffd5b50908060018154018082558091505060019003905f5260205f20015f9091909190916101000a81548173ffffffffffffffffffffffffffffffffffffffff021916908373ffffffffffffffffffffffffffffffffffffffff16021790555060016040516101b490610499565b604051809103905ff0801580156101cd573d5f803e3d5ffd5b50908060018154018082558091505060019003905f5260205f20015f9091909190916101000a81548173ffffffffffffffffffffffffffffffffffffffff021916908373ffffffffffffffffffffffffffffffffffffffff160217905550600160405161023990610499565b604051809103905ff080158015610252573d5f803e3d5ffd5b50908060018154018082558091505060019003905f5260205f20015f9091909190916101000a81548173ffffffffffffffffffffffffffffffffffffffff021916908373ffffffffffffffffffffffffffffffffffffffff160217905550565b66038d7ea4c68000816102c59190610670565b90505f8054906101000a900473ffffffffffffffffffffffffffffffffffffffff1673ffffffffffffffffffffffffffffffffffffffff166311c28c998260018881548110610317576103166106b1565b5b905f5260205f20015f9054906101000a900473ffffffffffffffffffffffffffffffffffffffff1660018881548110610353576103526106b1565b5b905f5260205f20015f9054906101000a900473ffffffffffffffffffffffffffffffffffffffff1687876040518663ffffffff1660e01b815260040161039c94939291906107d0565b5f604051808303818588803b1580156103b3575f80fd5b505af11580156103c5573d5f803e3d5ffd5b50505050505050505050565b5f805f80600185815481106103e9576103e86106b1565b5b905f5260205f20015f9054906101000a900473ffffffffffffffffffffffffffffffffffffffff1673ffffffffffffffffffffffffffffffffffffffff1663a48bdb7c6040518163ffffffff1660e01b8152600401608060405180830381865afa158015610459573d5f803e3d5ffd5b505050506040513d601f19601f8201168201806040525081019061047d9190610822565b93509350935093509193509193565b6109d68061088783390190565b6104928061125d83390190565b5f80fd5b5f80fd5b5f819050919050565b6104c0816104ae565b81146104ca575f80fd5b50565b5f813590506104db816104b7565b92915050565b5f80fd5b5f80fd5b5f80fd5b5f8083601f840112610502576105016104e1565b5b8235905067ffffffffffffffff81111561051f5761051e6104e5565b5b60208301915083602082028301111561053b5761053a6104e9565b5b9250929050565b5f805f805f6080868803121561055b5761055a6104a6565b5b5f610568888289016104cd565b9550506020610579888289016104cd565b945050604086013567ffffffffffffffff81111561059a576105996104aa565b5b6105a6888289016104ed565b935093505060606105b9888289016104cd565b9150509295509295909350565b5f602082840312156105db576105da6104a6565b5b5f6105e8848285016104cd565b91505092915050565b6105fa816104ae565b82525050565b5f6080820190506106135f8301876105f1565b61062060208301866105f1565b61062d60408301856105f1565b61063a60608301846105f1565b95945050505050565b7f4e487b71000000000000000000000000000000000000000000000000000000005f52601160045260245ffd5b5f61067a826104ae565b9150610685836104ae565b9250828202610693816104ae565b915082820484148315176106aa576106a9610643565b5b5092915050565b7f4e487b71000000000000000000000000000000000000000000000000000000005f52603260045260245ffd5b5f73ffffffffffffffffffffffffffffffffffffffff82169050919050565b5f819050919050565b5f61072061071b610716846106de565b6106fd565b6106de565b9050919050565b5f61073182610706565b9050919050565b5f61074282610727565b9050919050565b61075281610738565b82525050565b5f82825260208201905092915050565b5f80fd5b82818337505050565b5f6107808385610758565b93507f07ffffffffffffffffffffffffffffffffffffffffffffffffffffffffffffff8311156107b3576107b2610768565b5b6020830292506107c483858461076c565b82840190509392505050565b5f6060820190506107e35f830187610749565b6107f06020830186610749565b8181036040830152610803818486610775565b905095945050505050565b5f8151905061081c816104b7565b92915050565b5f805f806080858703121561083a576108396104a6565b5b5f6108478782880161080e565b94505060206108588782880161080e565b93505060406108698782880161080e565b925050606061087a8782880161080e565b9150509295919450925056fe6080604052348015600e575f80fd5b506109ba8061001c5f395ff3fe60806040526004361061001d575f3560e01c806311c28c9914610021575b5f80fd5b61003b600480360381019061003691906106c6565b61003d565b005b66038d7ea4c680003411610086576040517f08c379a000000000000000000000000000000000000000000000000000000000815260040161007d90610791565b60405180910390fd5b5f66038d7ea4c680003461009a91906107e5565b90505f8383808060200260200160405190810160405280939291908181526020018383602002808284375f81840152601f19601f8201169050808301925050505050505090505f600190505f80805b8261041a57831561024c578973ffffffffffffffffffffffffffffffffffffffff166314f6f57a866040518263ffffffff1660e01b815260040161012d91906108cf565b60408051808303815f875af1158015610148573d5f803e3d5ffd5b505050506040513d601f19601f8201168201806040525081019061016c9190610919565b809250819350505061018082828a8a6105a3565b610247578973ffffffffffffffffffffffffffffffffffffffff1663c6616c466040518163ffffffff1660e01b81526004015f604051808303815f87803b1580156101c9575f80fd5b505af11580156101db573d5f803e3d5ffd5b505050508873ffffffffffffffffffffffffffffffffffffffff16630bc59f4f876040518263ffffffff1660e01b81526004015f604051808303818588803b158015610225575f80fd5b505af1158015610237573d5f803e3d5ffd5b505050505050505050505061059d565b6103a0565b8873ffffffffffffffffffffffffffffffffffffffff166314f6f57a866040518263ffffffff1660e01b815260040161028591906108cf565b60408051808303815f875af11580156102a0573d5f803e3d5ffd5b505050506040513d601f19601f820116820180604052508101906102c49190610919565b80925081935050506102d882828a8a6105a3565b61039f578873ffffffffffffffffffffffffffffffffffffffff1663c6616c466040518163ffffffff1660e01b81526004015f604051808303815f87803b158015610321575f80fd5b505af1158015610333573d5f803e3d5ffd5b505050508973ffffffffffffffffffffffffffffffffffffffff16630bc59f4f876040518263ffffffff1660e01b81526004015f604051808303818588803b15801561037d575f80fd5b505af115801561038f573d5f803e3d5ffd5b505050505050505050505061059d565b5b808583815181106103b4576103b3610957565b5b602002602001018181516103c891906107e5565b9150818152505083159350600192505f5b8551811015610414575f8682815181106103f6576103f5610957565b5b602002602001015114610407575f93505b80806001019150506103d9565b506100e9565b83156104dd578873ffffffffffffffffffffffffffffffffffffffff1663de6de5216040518163ffffffff1660e01b81526004015f604051808303815f87803b158015610465575f80fd5b505af1158015610477573d5f803e3d5ffd5b505050508973ffffffffffffffffffffffffffffffffffffffff16630bc59f4f876040518263ffffffff1660e01b81526004015f604051808303818588803b1580156104c1575f80fd5b505af11580156104d3573d5f803e3d5ffd5b5050505050610596565b8973ffffffffffffffffffffffffffffffffffffffff1663de6de5216040518163ffffffff1660e01b81526004015f604051808303815f87803b158015610522575f80fd5b505af1158015610534573d5f803e3d5ffd5b505050508873ffffffffffffffffffffffffffffffffffffffff16630bc59f4f876040518263ffffffff1660e01b81526004015f604051808303818588803b15801561057e575f80fd5b505af1158015610590573d5f803e3d5ffd5b50505050505b5050505050505b50505050565b5f828290508511806105cd5750838383878181106105c4576105c3610957565b5b90506020020135105b806105d857505f8411155b156105e5575f90506105ea565b600190505b949350505050565b5f80fd5b5f80fd5b5f73ffffffffffffffffffffffffffffffffffffffff82169050919050565b5f610623826105fa565b9050919050565b5f61063482610619565b9050919050565b6106448161062a565b811461064e575f80fd5b50565b5f8135905061065f8161063b565b92915050565b5f80fd5b5f80fd5b5f80fd5b5f8083601f84011261068657610685610665565b5b8235905067ffffffffffffffff8111156106a3576106a2610669565b5b6020830191508360208202830111156106bf576106be61066d565b5b9250929050565b5f805f80606085870312156106de576106dd6105f2565b5b5f6106eb87828801610651565b94505060206106fc87828801610651565b935050604085013567ffffffffffffffff81111561071d5761071c6105f6565b5b61072987828801610671565b925092505092959194509250565b5f82825260208201905092915050565b7f4e6f7420656e6f756768206761732066656500000000000000000000000000005f82015250565b5f61077b601283610737565b915061078682610747565b602082019050919050565b5f6020820190508181035f8301526107a88161076f565b9050919050565b5f819050919050565b7f4e487b71000000000000000000000000000000000000000000000000000000005f52601160045260245ffd5b5f6107ef826107af565b91506107fa836107af565b9250828203905081811115610812576108116107b8565b5b92915050565b5f81519050919050565b5f82825260208201905092915050565b5f819050602082019050919050565b61084a816107af565b82525050565b5f61085b8383610841565b60208301905092915050565b5f602082019050919050565b5f61087d82610818565b6108878185610822565b935061089283610832565b805f5b838110156108c25781516108a98882610850565b97506108b483610867565b925050600181019050610895565b5085935050505092915050565b5f6020820190508181035f8301526108e78184610873565b905092915050565b6108f8816107af565b8114610902575f80fd5b50565b5f81519050610913816108ef565b92915050565b5f806040838503121561092f5761092e6105f2565b5b5f61093c85828601610905565b925050602061094d85828601610905565b9150509250929050565b7f4e487b71000000000000000000000000000000000000000000000000000000005f52603260045260245ffdfea26469706673582212201893c0be49de5f7586f55008373a5e6add4b88aaf7580d1638ba0e540ec2a0c464736f6c634300081a003360806040525f80555f6001555f6002553480156019575f80fd5b5061046b806100275f395ff3fe60806040526004361061004d575f3560e01c80630bc59f4f1461005657806314f6f57a14610060578063a48bdb7c1461009d578063c6616c46146100ca578063de6de521146100e057610054565b3661005457005b005b61005e6100f6565b005b34801561006b575f80fd5b50610086600480360381019061008191906102a8565b610110565b60405161009492919061030b565b60405180910390f35b3480156100a8575f80fd5b506100b16101ef565b6040516100c19493929190610332565b60405180910390f35b3480156100d5575f80fd5b506100de61020a565b005b3480156100eb575f80fd5b506100f4610225565b005b6001805f82825461010791906103a2565b92505081905550565b5f805f5b8484905081101561017f576001858583818110610134576101336103d5565b5b90506020020135111561017257806001868684818110610157576101566103d5565b5b905060200201356101689190610402565b92509250506101e8565b8080600101915050610114565b505f5b848490508110156101e0575f8585838181106101a1576101a06103d5565b5b9050602002013511156101d357808585838181106101c2576101c16103d5565b5b9050602002013592509250506101e8565b8080600101915050610182565b505f80915091505b9250929050565b5f805f806001545f5460025447935093509350935090919293565b600160025f82825461021c91906103a2565b92505081905550565b60015f8082825461023691906103a2565b92505081905550565b5f80fd5b5f80fd5b5f80fd5b5f80fd5b5f80fd5b5f8083601f84011261026857610267610247565b5b8235905067ffffffffffffffff8111156102855761028461024b565b5b6020830191508360208202830111156102a1576102a061024f565b5b9250929050565b5f80602083850312156102be576102bd61023f565b5b5f83013567ffffffffffffffff8111156102db576102da610243565b5b6102e785828601610253565b92509250509250929050565b5f819050919050565b610305816102f3565b82525050565b5f60408201905061031e5f8301856102fc565b61032b60208301846102fc565b9392505050565b5f6080820190506103455f8301876102fc565b61035260208301866102fc565b61035f60408301856102fc565b61036c60608301846102fc565b95945050505050565b7f4e487b71000000000000000000000000000000000000000000000000000000005f52601160045260245ffd5b5f6103ac826102f3565b91506103b7836102f3565b92508282019050808211156103cf576103ce610375565b5b92915050565b7f4e487b71000000000000000000000000000000000000000000000000000000005f52603260045260245ffd5b5f61040c826102f3565b9150610417836102f3565b925082820390508181111561042f5761042e610375565b5b9291505056fea26469706673582212204be8766e5c887cf670a18fff017aa829a321b015a812302ec63afb82e93bcafe64736f6c634300081a0033a26469706673582212207a6a010be08202ec7e8b9df32e584ed9fee21ea856aa2d6eb854de37b802571564736f6c634300081a0033",
			"opcodes": "PUSH1 0x80 PUSH1 0x40 MSTORE CALLVALUE DUP1 ISZERO PUSH1 0xE JUMPI PUSH0 DUP1 REVERT JUMPDEST POP PUSH2 0x1724 DUP1 PUSH2 0x1C PUSH0 CODECOPY PUSH0 RETURN INVALID PUSH1 0x80 PUSH1 0x40 MSTORE PUSH1 0x4 CALLDATASIZE LT PUSH2 0x37 JUMPI PUSH0 CALLDATALOAD PUSH1 0xE0 SHR DUP1 PUSH4 0xD9659EFF EQ PUSH2 0x40 JUMPI DUP1 PUSH4 0xF5790670 EQ PUSH2 0x56 JUMPI DUP1 PUSH4 0xFA252F55 EQ PUSH2 0x7E JUMPI PUSH2 0x3E JUMP JUMPDEST CALLDATASIZE PUSH2 0x3E JUMPI STOP JUMPDEST STOP JUMPDEST CALLVALUE DUP1 ISZERO PUSH2 0x4B JUMPI PUSH0 DUP1 REVERT JUMPDEST POP PUSH2 0x54 PUSH2 0xBD JUMP JUMPDEST STOP JUMPDEST CALLVALUE DUP1 ISZERO PUSH2 0x61 JUMPI PUSH0 DUP1 REVERT JUMPDEST POP PUSH2 0x7C PUSH1 0x4 DUP1 CALLDATASIZE SUB DUP2 ADD SWAP1 PUSH2 0x77 SWAP2 SWAP1 PUSH2 0x542 JUMP JUMPDEST PUSH2 0x2B2 JUMP JUMPDEST STOP JUMPDEST CALLVALUE DUP1 ISZERO PUSH2 0x89 JUMPI PUSH0 DUP1 REVERT JUMPDEST POP PUSH2 0xA4 PUSH1 0x4 DUP1 CALLDATASIZE SUB DUP2 ADD SWAP1 PUSH2 0x9F SWAP2 SWAP1 PUSH2 0x5C6 JUMP JUMPDEST PUSH2 0x3D1 JUMP JUMPDEST PUSH1 0x40 MLOAD PUSH2 0xB4 SWAP5 SWAP4 SWAP3 SWAP2 SWAP1 PUSH2 0x600 JUMP JUMPDEST PUSH1 0x40 MLOAD DUP1 SWAP2 SUB SWAP1 RETURN JUMPDEST PUSH1 0x40 MLOAD PUSH2 0xC9 SWAP1 PUSH2 0x48C JUMP JUMPDEST PUSH1 0x40 MLOAD DUP1 SWAP2 SUB SWAP1 PUSH0 CREATE DUP1 ISZERO DUP1 ISZERO PUSH2 0xE2 JUMPI RETURNDATASIZE PUSH0 DUP1 RETURNDATACOPY RETURNDATASIZE PUSH0 REVERT JUMPDEST POP PUSH0 DUP1 PUSH2 0x100 EXP DUP2 SLOAD DUP2 PUSH20 0xFFFFFFFFFFFFFFFFFFFFFFFFFFFFFFFFFFFFFFFF MUL NOT AND SWAP1 DUP4 PUSH20 0xFFFFFFFFFFFFFFFFFFFFFFFFFFFFFFFFFFFFFFFF AND MUL OR SWAP1 SSTORE POP PUSH1 0x1 PUSH1 0x40 MLOAD PUSH2 0x12F SWAP1 PUSH2 0x499 JUMP JUMPDEST PUSH1 0x40 MLOAD DUP1 SWAP2 SUB SWAP1 PUSH0 CREATE DUP1 ISZERO DUP1 ISZERO PUSH2 0x148 JUMPI RETURNDATASIZE PUSH0 DUP1 RETURNDATACOPY RETURNDATASIZE PUSH0 REVERT JUMPDEST POP SWAP1 DUP1 PUSH1 0x1 DUP2 SLOAD ADD DUP1 DUP3 SSTORE DUP1 SWAP2 POP POP PUSH1 0x1 SWAP1 SUB SWAP1 PUSH0 MSTORE PUSH1 0x20 PUSH0 KECCAK256 ADD PUSH0 SWAP1 SWAP2 SWAP1 SWAP2 SWAP1 SWAP2 PUSH2 0x100 EXP DUP2 SLOAD DUP2 PUSH20 0xFFFFFFFFFFFFFFFFFFFFFFFFFFFFFFFFFFFFFFFF MUL NOT AND SWAP1 DUP4 PUSH20 0xFFFFFFFFFFFFFFFFFFFFFFFFFFFFFFFFFFFFFFFF AND MUL OR SWAP1 SSTORE POP PUSH1 0x1 PUSH1 0x40 MLOAD PUSH2 0x1B4 SWAP1 PUSH2 0x499 JUMP JUMPDEST PUSH1 0x40 MLOAD DUP1 SWAP2 SUB SWAP1 PUSH0 CREATE DUP1 ISZERO DUP1 ISZERO PUSH2 0x1CD JUMPI RETURNDATASIZE PUSH0 DUP1 RETURNDATACOPY RETURNDATASIZE PUSH0 REVERT JUMPDEST POP SWAP1 DUP1 PUSH1 0x1 DUP2 SLOAD ADD DUP1 DUP3 SSTORE DUP1 SWAP2 POP POP PUSH1 0x1 SWAP1 SUB SWAP1 PUSH0 MSTORE PUSH1 0x20 PUSH0 KECCAK256 ADD PUSH0 SWAP1 SWAP2 SWAP1 SWAP2 SWAP1 SWAP2 PUSH2 0x100 EXP DUP2 SLOAD DUP2 PUSH20 0xFFFFFFFFFFFFFFFFFFFFFFFFFFFFFFFFFFFFFFFF MUL NOT AND SWAP1 DUP4 PUSH20 0xFFFFFFFFFFFFFFFFFFFFFFFFFFFFFFFFFFFFFFFF AND MUL OR SWAP1 SSTORE POP PUSH1 0x1 PUSH1 0x40 MLOAD PUSH2 0x239 SWAP1 PUSH2 0x499 JUMP JUMPDEST PUSH1 0x40 MLOAD DUP1 SWAP2 SUB SWAP1 PUSH0 CREATE DUP1 ISZERO DUP1 ISZERO PUSH2 0x252 JUMPI RETURNDATASIZE PUSH0 DUP1 RETURNDATACOPY RETURNDATASIZE PUSH0 REVERT JUMPDEST POP SWAP1 DUP1 PUSH1 0x1 DUP2 SLOAD ADD DUP1 DUP3 SSTORE DUP1 SWAP2 POP POP PUSH1 0x1 SWAP1 SUB SWAP1 PUSH0 MSTORE PUSH1 0x20 PUSH0 KECCAK256 ADD PUSH0 SWAP1 SWAP2 SWAP1 SWAP2 SWAP1 SWAP2 PUSH2 0x100 EXP DUP2 SLOAD DUP2 PUSH20 0xFFFFFFFFFFFFFFFFFFFFFFFFFFFFFFFFFFFFFFFF MUL NOT AND SWAP1 DUP4 PUSH20 0xFFFFFFFFFFFFFFFFFFFFFFFFFFFFFFFFFFFFFFFF AND MUL OR SWAP1 SSTORE POP JUMP JUMPDEST PUSH7 0x38D7EA4C68000 DUP2 PUSH2 0x2C5 SWAP2 SWAP1 PUSH2 0x670 JUMP JUMPDEST SWAP1 POP PUSH0 DUP1 SLOAD SWAP1 PUSH2 0x100 EXP SWAP1 DIV PUSH20 0xFFFFFFFFFFFFFFFFFFFFFFFFFFFFFFFFFFFFFFFF AND PUSH20 0xFFFFFFFFFFFFFFFFFFFFFFFFFFFFFFFFFFFFFFFF AND PUSH4 0x11C28C99 DUP3 PUSH1 0x1 DUP9 DUP2 SLOAD DUP2 LT PUSH2 0x317 JUMPI PUSH2 0x316 PUSH2 0x6B1 JUMP JUMPDEST JUMPDEST SWAP1 PUSH0 MSTORE PUSH1 0x20 PUSH0 KECCAK256 ADD PUSH0 SWAP1 SLOAD SWAP1 PUSH2 0x100 EXP SWAP1 DIV PUSH20 0xFFFFFFFFFFFFFFFFFFFFFFFFFFFFFFFFFFFFFFFF AND PUSH1 0x1 DUP9 DUP2 SLOAD DUP2 LT PUSH2 0x353 JUMPI PUSH2 0x352 PUSH2 0x6B1 JUMP JUMPDEST JUMPDEST SWAP1 PUSH0 MSTORE PUSH1 0x20 PUSH0 KECCAK256 ADD PUSH0 SWAP1 SLOAD SWAP1 PUSH2 0x100 EXP SWAP1 DIV PUSH20 0xFFFFFFFFFFFFFFFFFFFFFFFFFFFFFFFFFFFFFFFF AND DUP8 DUP8 PUSH1 0x40 MLOAD DUP7 PUSH4 0xFFFFFFFF AND PUSH1 0xE0 SHL DUP2 MSTORE PUSH1 0x4 ADD PUSH2 0x39C SWAP5 SWAP4 SWAP3 SWAP2 SWAP1 PUSH2 0x7D0 JUMP JUMPDEST PUSH0 PUSH1 0x40 MLOAD DUP1 DUP4 SUB DUP2 DUP6 DUP9 DUP1 EXTCODESIZE ISZERO DUP1 ISZERO PUSH2 0x3B3 JUMPI PUSH0 DUP1 REVERT JUMPDEST POP GAS CALL ISZERO DUP1 ISZERO PUSH2 0x3C5 JUMPI RETURNDATASIZE PUSH0 DUP1 RETURNDATACOPY RETURNDATASIZE PUSH0 REVERT JUMPDEST POP POP POP POP POP POP POP POP POP POP JUMP JUMPDEST PUSH0 DUP1 PUSH0 DUP1 PUSH1 0x1 DUP6 DUP2 SLOAD DUP2 LT PUSH2 0x3E9 JUMPI PUSH2 0x3E8 PUSH2 0x6B1 JUMP JUMPDEST JUMPDEST SWAP1 PUSH0 MSTORE PUSH1 0x20 PUSH0 KECCAK256 ADD PUSH0 SWAP1 SLOAD SWAP1 PUSH2 0x100 EXP SWAP1 DIV PUSH20 0xFFFFFFFFFFFFFFFFFFFFFFFFFFFFFFFFFFFFFFFF AND PUSH20 0xFFFFFFFFFFFFFFFFFFFFFFFFFFFFFFFFFFFFFFFF AND PUSH4 0xA48BDB7C PUSH1 0x40 MLOAD DUP2 PUSH4 0xFFFFFFFF AND PUSH1 0xE0 SHL DUP2 MSTORE PUSH1 0x4 ADD PUSH1 0x80 PUSH1 0x40 MLOAD DUP1 DUP4 SUB DUP2 DUP7 GAS STATICCALL ISZERO DUP1 ISZERO PUSH2 0x459 JUMPI RETURNDATASIZE PUSH0 DUP1 RETURNDATACOPY RETURNDATASIZE PUSH0 REVERT JUMPDEST POP POP POP POP PUSH1 0x40 MLOAD RETURNDATASIZE PUSH1 0x1F NOT PUSH1 0x1F DUP3 ADD AND DUP3 ADD DUP1 PUSH1 0x40 MSTORE POP DUP2 ADD SWAP1 PUSH2 0x47D SWAP2 SWAP1 PUSH2 0x822 JUMP JUMPDEST SWAP4 POP SWAP4 POP SWAP4 POP SWAP4 POP SWAP2 SWAP4 POP SWAP2 SWAP4 JUMP JUMPDEST PUSH2 0x9D6 DUP1 PUSH2 0x887 DUP4 CODECOPY ADD SWAP1 JUMP JUMPDEST PUSH2 0x492 DUP1 PUSH2 0x125D DUP4 CODECOPY ADD SWAP1 JUMP JUMPDEST PUSH0 DUP1 REVERT JUMPDEST PUSH0 DUP1 REVERT JUMPDEST PUSH0 DUP2 SWAP1 POP SWAP2 SWAP1 POP JUMP JUMPDEST PUSH2 0x4C0 DUP2 PUSH2 0x4AE JUMP JUMPDEST DUP2 EQ PUSH2 0x4CA JUMPI PUSH0 DUP1 REVERT JUMPDEST POP JUMP JUMPDEST PUSH0 DUP2 CALLDATALOAD SWAP1 POP PUSH2 0x4DB DUP2 PUSH2 0x4B7 JUMP JUMPDEST SWAP3 SWAP2 POP POP JUMP JUMPDEST PUSH0 DUP1 REVERT JUMPDEST PUSH0 DUP1 REVERT JUMPDEST PUSH0 DUP1 REVERT JUMPDEST PUSH0 DUP1 DUP4 PUSH1 0x1F DUP5 ADD SLT PUSH2 0x502 JUMPI PUSH2 0x501 PUSH2 0x4E1 JUMP JUMPDEST JUMPDEST DUP3 CALLDATALOAD SWAP1 POP PUSH8 0xFFFFFFFFFFFFFFFF DUP2 GT ISZERO PUSH2 0x51F JUMPI PUSH2 0x51E PUSH2 0x4E5 JUMP JUMPDEST JUMPDEST PUSH1 0x20 DUP4 ADD SWAP2 POP DUP4 PUSH1 0x20 DUP3 MUL DUP4 ADD GT ISZERO PUSH2 0x53B JUMPI PUSH2 0x53A PUSH2 0x4E9 JUMP JUMPDEST JUMPDEST SWAP3 POP SWAP3 SWAP1 POP JUMP JUMPDEST PUSH0 DUP1 PUSH0 DUP1 PUSH0 PUSH1 0x80 DUP7 DUP9 SUB SLT ISZERO PUSH2 0x55B JUMPI PUSH2 0x55A PUSH2 0x4A6 JUMP JUMPDEST JUMPDEST PUSH0 PUSH2 0x568 DUP9 DUP3 DUP10 ADD PUSH2 0x4CD JUMP JUMPDEST SWAP6 POP POP PUSH1 0x20 PUSH2 0x579 DUP9 DUP3 DUP10 ADD PUSH2 0x4CD JUMP JUMPDEST SWAP5 POP POP PUSH1 0x40 DUP7 ADD CALLDATALOAD PUSH8 0xFFFFFFFFFFFFFFFF DUP2 GT ISZERO PUSH2 0x59A JUMPI PUSH2 0x599 PUSH2 0x4AA JUMP JUMPDEST JUMPDEST PUSH2 0x5A6 DUP9 DUP3 DUP10 ADD PUSH2 0x4ED JUMP JUMPDEST SWAP4 POP SWAP4 POP POP PUSH1 0x60 PUSH2 0x5B9 DUP9 DUP3 DUP10 ADD PUSH2 0x4CD JUMP JUMPDEST SWAP2 POP POP SWAP3 SWAP6 POP SWAP3 SWAP6 SWAP1 SWAP4 POP JUMP JUMPDEST PUSH0 PUSH1 0x20 DUP3 DUP5 SUB SLT ISZERO PUSH2 0x5DB JUMPI PUSH2 0x5DA PUSH2 0x4A6 JUMP JUMPDEST JUMPDEST PUSH0 PUSH2 0x5E8 DUP5 DUP3 DUP6 ADD PUSH2 0x4CD JUMP JUMPDEST SWAP2 POP POP SWAP3 SWAP2 POP POP JUMP JUMPDEST PUSH2 0x5FA DUP2 PUSH2 0x4AE JUMP JUMPDEST DUP3 MSTORE POP POP JUMP JUMPDEST PUSH0 PUSH1 0x80 DUP3 ADD SWAP1 POP PUSH2 0x613 PUSH0 DUP4 ADD DUP8 PUSH2 0x5F1 JUMP JUMPDEST PUSH2 0x620 PUSH1 0x20 DUP4 ADD DUP7 PUSH2 0x5F1 JUMP JUMPDEST PUSH2 0x62D PUSH1 0x40 DUP4 ADD DUP6 PUSH2 0x5F1 JUMP JUMPDEST PUSH2 0x63A PUSH1 0x60 DUP4 ADD DUP5 PUSH2 0x5F1 JUMP JUMPDEST SWAP6 SWAP5 POP POP POP POP POP JUMP JUMPDEST PUSH32 0x4E487B7100000000000000000000000000000000000000000000000000000000 PUSH0 MSTORE PUSH1 0x11 PUSH1 0x4 MSTORE PUSH1 0x24 PUSH0 REVERT JUMPDEST PUSH0 PUSH2 0x67A DUP3 PUSH2 0x4AE JUMP JUMPDEST SWAP2 POP PUSH2 0x685 DUP4 PUSH2 0x4AE JUMP JUMPDEST SWAP3 POP DUP3 DUP3 MUL PUSH2 0x693 DUP2 PUSH2 0x4AE JUMP JUMPDEST SWAP2 POP DUP3 DUP3 DIV DUP5 EQ DUP4 ISZERO OR PUSH2 0x6AA JUMPI PUSH2 0x6A9 PUSH2 0x643 JUMP JUMPDEST JUMPDEST POP SWAP3 SWAP2 POP POP JUMP JUMPDEST PUSH32 0x4E487B7100000000000000000000000000000000000000000000000000000000 PUSH0 MSTORE PUSH1 0x32 PUSH1 0x4 MSTORE PUSH1 0x24 PUSH0 REVERT JUMPDEST PUSH0 PUSH20 0xFFFFFFFFFFFFFFFFFFFFFFFFFFFFFFFFFFFFFFFF DUP3 AND SWAP1 POP SWAP2 SWAP1 POP JUMP JUMPDEST PUSH0 DUP2 SWAP1 POP SWAP2 SWAP1 POP JUMP JUMPDEST PUSH0 PUSH2 0x720 PUSH2 0x71B PUSH2 0x716 DUP5 PUSH2 0x6DE JUMP JUMPDEST PUSH2 0x6FD JUMP JUMPDEST PUSH2 0x6DE JUMP JUMPDEST SWAP1 POP SWAP2 SWAP1 POP JUMP JUMPDEST PUSH0 PUSH2 0x731 DUP3 PUSH2 0x706 JUMP JUMPDEST SWAP1 POP SWAP2 SWAP1 POP JUMP JUMPDEST PUSH0 PUSH2 0x742 DUP3 PUSH2 0x727 JUMP JUMPDEST SWAP1 POP SWAP2 SWAP1 POP JUMP JUMPDEST PUSH2 0x752 DUP2 PUSH2 0x738 JUMP JUMPDEST DUP3 MSTORE POP POP JUMP JUMPDEST PUSH0 DUP3 DUP3 MSTORE PUSH1 0x20 DUP3 ADD SWAP1 POP SWAP3 SWAP2 POP POP JUMP JUMPDEST PUSH0 DUP1 REVERT JUMPDEST DUP3 DUP2 DUP4 CALLDATACOPY POP POP POP JUMP JUMPDEST PUSH0 PUSH2 0x780 DUP4 DUP6 PUSH2 0x758 JUMP JUMPDEST SWAP4 POP PUSH32 0x7FFFFFFFFFFFFFFFFFFFFFFFFFFFFFFFFFFFFFFFFFFFFFFFFFFFFFFFFFFFFFF DUP4 GT ISZERO PUSH2 0x7B3 JUMPI PUSH2 0x7B2 PUSH2 0x768 JUMP JUMPDEST JUMPDEST PUSH1 0x20 DUP4 MUL SWAP3 POP PUSH2 0x7C4 DUP4 DUP6 DUP5 PUSH2 0x76C JUMP JUMPDEST DUP3 DUP5 ADD SWAP1 POP SWAP4 SWAP3 POP POP POP JUMP JUMPDEST PUSH0 PUSH1 0x60 DUP3 ADD SWAP1 POP PUSH2 0x7E3 PUSH0 DUP4 ADD DUP8 PUSH2 0x749 JUMP JUMPDEST PUSH2 0x7F0 PUSH1 0x20 DUP4 ADD DUP7 PUSH2 0x749 JUMP JUMPDEST DUP2 DUP2 SUB PUSH1 0x40 DUP4 ADD MSTORE PUSH2 0x803 DUP2 DUP5 DUP7 PUSH2 0x775 JUMP JUMPDEST SWAP1 POP SWAP6 SWAP5 POP POP POP POP POP JUMP JUMPDEST PUSH0 DUP2 MLOAD SWAP1 POP PUSH2 0x81C DUP2 PUSH2 0x4B7 JUMP JUMPDEST SWAP3 SWAP2 POP POP JUMP JUMPDEST PUSH0 DUP1 PUSH0 DUP1 PUSH1 0x80 DUP6 DUP8 SUB SLT ISZERO PUSH2 0x83A JUMPI PUSH2 0x839 PUSH2 0x4A6 JUMP JUMPDEST JUMPDEST PUSH0 PUSH2 0x847 DUP8 DUP3 DUP9 ADD PUSH2 0x80E JUMP JUMPDEST SWAP5 POP POP PUSH1 0x20 PUSH2 0x858 DUP8 DUP3 DUP9 ADD PUSH2 0x80E JUMP JUMPDEST SWAP4 POP POP PUSH1 0x40 PUSH2 0x869 DUP8 DUP3 DUP9 ADD PUSH2 0x80E JUMP JUMPDEST SWAP3 POP POP PUSH1 0x60 PUSH2 0x87A DUP8 DUP3 DUP9 ADD PUSH2 0x80E JUMP JUMPDEST SWAP2 POP POP SWAP3 SWAP6 SWAP2 SWAP5 POP SWAP3 POP JUMP INVALID PUSH1 0x80 PUSH1 0x40 MSTORE CALLVALUE DUP1 ISZERO PUSH1 0xE JUMPI PUSH0 DUP1 REVERT JUMPDEST POP PUSH2 0x9BA DUP1 PUSH2 0x1C PUSH0 CODECOPY PUSH0 RETURN INVALID PUSH1 0x80 PUSH1 0x40 MSTORE PUSH1 0x4 CALLDATASIZE LT PUSH2 0x1D JUMPI PUSH0 CALLDATALOAD PUSH1 0xE0 SHR DUP1 PUSH4 0x11C28C99 EQ PUSH2 0x21 JUMPI JUMPDEST PUSH0 DUP1 REVERT JUMPDEST PUSH2 0x3B PUSH1 0x4 DUP1 CALLDATASIZE SUB DUP2 ADD SWAP1 PUSH2 0x36 SWAP2 SWAP1 PUSH2 0x6C6 JUMP JUMPDEST PUSH2 0x3D JUMP JUMPDEST STOP JUMPDEST PUSH7 0x38D7EA4C68000 CALLVALUE GT PUSH2 0x86 JUMPI PUSH1 0x40 MLOAD PUSH32 0x8C379A000000000000000000000000000000000000000000000000000000000 DUP2 MSTORE PUSH1 0x4 ADD PUSH2 0x7D SWAP1 PUSH2 0x791 JUMP JUMPDEST PUSH1 0x40 MLOAD DUP1 SWAP2 SUB SWAP1 REVERT JUMPDEST PUSH0 PUSH7 0x38D7EA4C68000 CALLVALUE PUSH2 0x9A SWAP2 SWAP1 PUSH2 0x7E5 JUMP JUMPDEST SWAP1 POP PUSH0 DUP4 DUP4 DUP1 DUP1 PUSH1 0x20 MUL PUSH1 0x20 ADD PUSH1 0x40 MLOAD SWAP1 DUP2 ADD PUSH1 0x40 MSTORE DUP1 SWAP4 SWAP3 SWAP2 SWAP1 DUP2 DUP2 MSTORE PUSH1 0x20 ADD DUP4 DUP4 PUSH1 0x20 MUL DUP1 DUP3 DUP5 CALLDATACOPY PUSH0 DUP2 DUP5 ADD MSTORE PUSH1 0x1F NOT PUSH1 0x1F DUP3 ADD AND SWAP1 POP DUP1 DUP4 ADD SWAP3 POP POP POP POP POP POP POP SWAP1 POP PUSH0 PUSH1 0x1 SWAP1 POP PUSH0 DUP1 DUP1 JUMPDEST DUP3 PUSH2 0x41A JUMPI DUP4 ISZERO PUSH2 0x24C JUMPI DUP10 PUSH20 0xFFFFFFFFFFFFFFFFFFFFFFFFFFFFFFFFFFFFFFFF AND PUSH4 0x14F6F57A DUP7 PUSH1 0x40 MLOAD DUP3 PUSH4 0xFFFFFFFF AND PUSH1 0xE0 SHL DUP2 MSTORE PUSH1 0x4 ADD PUSH2 0x12D SWAP2 SWAP1 PUSH2 0x8CF JUMP JUMPDEST PUSH1 0x40 DUP1 MLOAD DUP1 DUP4 SUB DUP2 PUSH0 DUP8 GAS CALL ISZERO DUP1 ISZERO PUSH2 0x148 JUMPI RETURNDATASIZE PUSH0 DUP1 RETURNDATACOPY RETURNDATASIZE PUSH0 REVERT JUMPDEST POP POP POP POP PUSH1 0x40 MLOAD RETURNDATASIZE PUSH1 0x1F NOT PUSH1 0x1F DUP3 ADD AND DUP3 ADD DUP1 PUSH1 0x40 MSTORE POP DUP2 ADD SWAP1 PUSH2 0x16C SWAP2 SWAP1 PUSH2 0x919 JUMP JUMPDEST DUP1 SWAP3 POP DUP2 SWAP4 POP POP POP PUSH2 0x180 DUP3 DUP3 DUP11 DUP11 PUSH2 0x5A3 JUMP JUMPDEST PUSH2 0x247 JUMPI DUP10 PUSH20 0xFFFFFFFFFFFFFFFFFFFFFFFFFFFFFFFFFFFFFFFF AND PUSH4 0xC6616C46 PUSH1 0x40 MLOAD DUP2 PUSH4 0xFFFFFFFF AND PUSH1 0xE0 SHL DUP2 MSTORE PUSH1 0x4 ADD PUSH0 PUSH1 0x40 MLOAD DUP1 DUP4 SUB DUP2 PUSH0 DUP8 DUP1 EXTCODESIZE ISZERO DUP1 ISZERO PUSH2 0x1C9 JUMPI PUSH0 DUP1 REVERT JUMPDEST POP GAS CALL ISZERO DUP1 ISZERO PUSH2 0x1DB JUMPI RETURNDATASIZE PUSH0 DUP1 RETURNDATACOPY RETURNDATASIZE PUSH0 REVERT JUMPDEST POP POP POP POP DUP9 PUSH20 0xFFFFFFFFFFFFFFFFFFFFFFFFFFFFFFFFFFFFFFFF AND PUSH4 0xBC59F4F DUP8 PUSH1 0x40 MLOAD DUP3 PUSH4 0xFFFFFFFF AND PUSH1 0xE0 SHL DUP2 MSTORE PUSH1 0x4 ADD PUSH0 PUSH1 0x40 MLOAD DUP1 DUP4 SUB DUP2 DUP6 DUP9 DUP1 EXTCODESIZE ISZERO DUP1 ISZERO PUSH2 0x225 JUMPI PUSH0 DUP1 REVERT JUMPDEST POP GAS CALL ISZERO DUP1 ISZERO PUSH2 0x237 JUMPI RETURNDATASIZE PUSH0 DUP1 RETURNDATACOPY RETURNDATASIZE PUSH0 REVERT JUMPDEST POP POP POP POP POP POP POP POP POP POP POP PUSH2 0x59D JUMP JUMPDEST PUSH2 0x3A0 JUMP JUMPDEST DUP9 PUSH20 0xFFFFFFFFFFFFFFFFFFFFFFFFFFFFFFFFFFFFFFFF AND PUSH4 0x14F6F57A DUP7 PUSH1 0x40 MLOAD DUP3 PUSH4 0xFFFFFFFF AND PUSH1 0xE0 SHL DUP2 MSTORE PUSH1 0x4 ADD PUSH2 0x285 SWAP2 SWAP1 PUSH2 0x8CF JUMP JUMPDEST PUSH1 0x40 DUP1 MLOAD DUP1 DUP4 SUB DUP2 PUSH0 DUP8 GAS CALL ISZERO DUP1 ISZERO PUSH2 0x2A0 JUMPI RETURNDATASIZE PUSH0 DUP1 RETURNDATACOPY RETURNDATASIZE PUSH0 REVERT JUMPDEST POP POP POP POP PUSH1 0x40 MLOAD RETURNDATASIZE PUSH1 0x1F NOT PUSH1 0x1F DUP3 ADD AND DUP3 ADD DUP1 PUSH1 0x40 MSTORE POP DUP2 ADD SWAP1 PUSH2 0x2C4 SWAP2 SWAP1 PUSH2 0x919 JUMP JUMPDEST DUP1 SWAP3 POP DUP2 SWAP4 POP POP POP PUSH2 0x2D8 DUP3 DUP3 DUP11 DUP11 PUSH2 0x5A3 JUMP JUMPDEST PUSH2 0x39F JUMPI DUP9 PUSH20 0xFFFFFFFFFFFFFFFFFFFFFFFFFFFFFFFFFFFFFFFF AND PUSH4 0xC6616C46 PUSH1 0x40 MLOAD DUP2 PUSH4 0xFFFFFFFF AND PUSH1 0xE0 SHL DUP2 MSTORE PUSH1 0x4 ADD PUSH0 PUSH1 0x40 MLOAD DUP1 DUP4 SUB DUP2 PUSH0 DUP8 DUP1 EXTCODESIZE ISZERO DUP1 ISZERO PUSH2 0x321 JUMPI PUSH0 DUP1 REVERT JUMPDEST POP GAS CALL ISZERO DUP1 ISZERO PUSH2 0x333 JUMPI RETURNDATASIZE PUSH0 DUP1 RETURNDATACOPY RETURNDATASIZE PUSH0 REVERT JUMPDEST POP POP POP POP DUP10 PUSH20 0xFFFFFFFFFFFFFFFFFFFFFFFFFFFFFFFFFFFFFFFF AND PUSH4 0xBC59F4F DUP8 PUSH1 0x40 MLOAD DUP3 PUSH4 0xFFFFFFFF AND PUSH1 0xE0 SHL DUP2 MSTORE PUSH1 0x4 ADD PUSH0 PUSH1 0x40 MLOAD DUP1 DUP4 SUB DUP2 DUP6 DUP9 DUP1 EXTCODESIZE ISZERO DUP1 ISZERO PUSH2 0x37D JUMPI PUSH0 DUP1 REVERT JUMPDEST POP GAS CALL ISZERO DUP1 ISZERO PUSH2 0x38F JUMPI RETURNDATASIZE PUSH0 DUP1 RETURNDATACOPY RETURNDATASIZE PUSH0 REVERT JUMPDEST POP POP POP POP POP POP POP POP POP POP POP PUSH2 0x59D JUMP JUMPDEST JUMPDEST DUP1 DUP6 DUP4 DUP2 MLOAD DUP2 LT PUSH2 0x3B4 JUMPI PUSH2 0x3B3 PUSH2 0x957 JUMP JUMPDEST JUMPDEST PUSH1 0x20 MUL PUSH1 0x20 ADD ADD DUP2 DUP2 MLOAD PUSH2 0x3C8 SWAP2 SWAP1 PUSH2 0x7E5 JUMP JUMPDEST SWAP2 POP DUP2 DUP2 MSTORE POP POP DUP4 ISZERO SWAP4 POP PUSH1 0x1 SWAP3 POP PUSH0 JUMPDEST DUP6 MLOAD DUP2 LT ISZERO PUSH2 0x414 JUMPI PUSH0 DUP7 DUP3 DUP2 MLOAD DUP2 LT PUSH2 0x3F6 JUMPI PUSH2 0x3F5 PUSH2 0x957 JUMP JUMPDEST JUMPDEST PUSH1 0x20 MUL PUSH1 0x20 ADD ADD MLOAD EQ PUSH2 0x407 JUMPI PUSH0 SWAP4 POP JUMPDEST DUP1 DUP1 PUSH1 0x1 ADD SWAP2 POP POP PUSH2 0x3D9 JUMP JUMPDEST POP PUSH2 0xE9 JUMP JUMPDEST DUP4 ISZERO PUSH2 0x4DD JUMPI DUP9 PUSH20 0xFFFFFFFFFFFFFFFFFFFFFFFFFFFFFFFFFFFFFFFF AND PUSH4 0xDE6DE521 PUSH1 0x40 MLOAD DUP2 PUSH4 0xFFFFFFFF AND PUSH1 0xE0 SHL DUP2 MSTORE PUSH1 0x4 ADD PUSH0 PUSH1 0x40 MLOAD DUP1 DUP4 SUB DUP2 PUSH0 DUP8 DUP1 EXTCODESIZE ISZERO DUP1 ISZERO PUSH2 0x465 JUMPI PUSH0 DUP1 REVERT JUMPDEST POP GAS CALL ISZERO DUP1 ISZERO PUSH2 0x477 JUMPI RETURNDATASIZE PUSH0 DUP1 RETURNDATACOPY RETURNDATASIZE PUSH0 REVERT JUMPDEST POP POP POP POP DUP10 PUSH20 0xFFFFFFFFFFFFFFFFFFFFFFFFFFFFFFFFFFFFFFFF AND PUSH4 0xBC59F4F DUP8 PUSH1 0x40 MLOAD DUP3 PUSH4 0xFFFFFFFF AND PUSH1 0xE0 SHL DUP2 MSTORE PUSH1 0x4 ADD PUSH0 PUSH1 0x40 MLOAD DUP1 DUP4 SUB DUP2 DUP6 DUP9 DUP1 EXTCODESIZE ISZERO DUP1 ISZERO PUSH2 0x4C1 JUMPI PUSH0 DUP1 REVERT JUMPDEST POP GAS CALL ISZERO DUP1 ISZERO PUSH2 0x4D3 JUMPI RETURNDATASIZE PUSH0 DUP1 RETURNDATACOPY RETURNDATASIZE PUSH0 REVERT JUMPDEST POP POP POP POP POP PUSH2 0x596 JUMP JUMPDEST DUP10 PUSH20 0xFFFFFFFFFFFFFFFFFFFFFFFFFFFFFFFFFFFFFFFF AND PUSH4 0xDE6DE521 PUSH1 0x40 MLOAD DUP2 PUSH4 0xFFFFFFFF AND PUSH1 0xE0 SHL DUP2 MSTORE PUSH1 0x4 ADD PUSH0 PUSH1 0x40 MLOAD DUP1 DUP4 SUB DUP2 PUSH0 DUP8 DUP1 EXTCODESIZE ISZERO DUP1 ISZERO PUSH2 0x522 JUMPI PUSH0 DUP1 REVERT JUMPDEST POP GAS CALL ISZERO DUP1 ISZERO PUSH2 0x534 JUMPI RETURNDATASIZE PUSH0 DUP1 RETURNDATACOPY RETURNDATASIZE PUSH0 REVERT JUMPDEST POP POP POP POP DUP9 PUSH20 0xFFFFFFFFFFFFFFFFFFFFFFFFFFFFFFFFFFFFFFFF AND PUSH4 0xBC59F4F DUP8 PUSH1 0x40 MLOAD DUP3 PUSH4 0xFFFFFFFF AND PUSH1 0xE0 SHL DUP2 MSTORE PUSH1 0x4 ADD PUSH0 PUSH1 0x40 MLOAD DUP1 DUP4 SUB DUP2 DUP6 DUP9 DUP1 EXTCODESIZE ISZERO DUP1 ISZERO PUSH2 0x57E JUMPI PUSH0 DUP1 REVERT JUMPDEST POP GAS CALL ISZERO DUP1 ISZERO PUSH2 0x590 JUMPI RETURNDATASIZE PUSH0 DUP1 RETURNDATACOPY RETURNDATASIZE PUSH0 REVERT JUMPDEST POP POP POP POP POP JUMPDEST POP POP POP POP POP POP JUMPDEST POP POP POP POP JUMP JUMPDEST PUSH0 DUP3 DUP3 SWAP1 POP DUP6 GT DUP1 PUSH2 0x5CD JUMPI POP DUP4 DUP4 DUP4 DUP8 DUP2 DUP2 LT PUSH2 0x5C4 JUMPI PUSH2 0x5C3 PUSH2 0x957 JUMP JUMPDEST JUMPDEST SWAP1 POP PUSH1 0x20 MUL ADD CALLDATALOAD LT JUMPDEST DUP1 PUSH2 0x5D8 JUMPI POP PUSH0 DUP5 GT ISZERO JUMPDEST ISZERO PUSH2 0x5E5 JUMPI PUSH0 SWAP1 POP PUSH2 0x5EA JUMP JUMPDEST PUSH1 0x1 SWAP1 POP JUMPDEST SWAP5 SWAP4 POP POP POP POP JUMP JUMPDEST PUSH0 DUP1 REVERT JUMPDEST PUSH0 DUP1 REVERT JUMPDEST PUSH0 PUSH20 0xFFFFFFFFFFFFFFFFFFFFFFFFFFFFFFFFFFFFFFFF DUP3 AND SWAP1 POP SWAP2 SWAP1 POP JUMP JUMPDEST PUSH0 PUSH2 0x623 DUP3 PUSH2 0x5FA JUMP JUMPDEST SWAP1 POP SWAP2 SWAP1 POP JUMP JUMPDEST PUSH0 PUSH2 0x634 DUP3 PUSH2 0x619 JUMP JUMPDEST SWAP1 POP SWAP2 SWAP1 POP JUMP JUMPDEST PUSH2 0x644 DUP2 PUSH2 0x62A JUMP JUMPDEST DUP2 EQ PUSH2 0x64E JUMPI PUSH0 DUP1 REVERT JUMPDEST POP JUMP JUMPDEST PUSH0 DUP2 CALLDATALOAD SWAP1 POP PUSH2 0x65F DUP2 PUSH2 0x63B JUMP JUMPDEST SWAP3 SWAP2 POP POP JUMP JUMPDEST PUSH0 DUP1 REVERT JUMPDEST PUSH0 DUP1 REVERT JUMPDEST PUSH0 DUP1 REVERT JUMPDEST PUSH0 DUP1 DUP4 PUSH1 0x1F DUP5 ADD SLT PUSH2 0x686 JUMPI PUSH2 0x685 PUSH2 0x665 JUMP JUMPDEST JUMPDEST DUP3 CALLDATALOAD SWAP1 POP PUSH8 0xFFFFFFFFFFFFFFFF DUP2 GT ISZERO PUSH2 0x6A3 JUMPI PUSH2 0x6A2 PUSH2 0x669 JUMP JUMPDEST JUMPDEST PUSH1 0x20 DUP4 ADD SWAP2 POP DUP4 PUSH1 0x20 DUP3 MUL DUP4 ADD GT ISZERO PUSH2 0x6BF JUMPI PUSH2 0x6BE PUSH2 0x66D JUMP JUMPDEST JUMPDEST SWAP3 POP SWAP3 SWAP1 POP JUMP JUMPDEST PUSH0 DUP1 PUSH0 DUP1 PUSH1 0x60 DUP6 DUP8 SUB SLT ISZERO PUSH2 0x6DE JUMPI PUSH2 0x6DD PUSH2 0x5F2 JUMP JUMPDEST JUMPDEST PUSH0 PUSH2 0x6EB DUP8 DUP3 DUP9 ADD PUSH2 0x651 JUMP JUMPDEST SWAP5 POP POP PUSH1 0x20 PUSH2 0x6FC DUP8 DUP3 DUP9 ADD PUSH2 0x651 JUMP JUMPDEST SWAP4 POP POP PUSH1 0x40 DUP6 ADD CALLDATALOAD PUSH8 0xFFFFFFFFFFFFFFFF DUP2 GT ISZERO PUSH2 0x71D JUMPI PUSH2 0x71C PUSH2 0x5F6 JUMP JUMPDEST JUMPDEST PUSH2 0x729 DUP8 DUP3 DUP9 ADD PUSH2 0x671 JUMP JUMPDEST SWAP3 POP SWAP3 POP POP SWAP3 SWAP6 SWAP2 SWAP5 POP SWAP3 POP JUMP JUMPDEST PUSH0 DUP3 DUP3 MSTORE PUSH1 0x20 DUP3 ADD SWAP1 POP SWAP3 SWAP2 POP POP JUMP JUMPDEST PUSH32 0x4E6F7420656E6F75676820676173206665650000000000000000000000000000 PUSH0 DUP3 ADD MSTORE POP JUMP JUMPDEST PUSH0 PUSH2 0x77B PUSH1 0x12 DUP4 PUSH2 0x737 JUMP JUMPDEST SWAP2 POP PUSH2 0x786 DUP3 PUSH2 0x747 JUMP JUMPDEST PUSH1 0x20 DUP3 ADD SWAP1 POP SWAP2 SWAP1 POP JUMP JUMPDEST PUSH0 PUSH1 0x20 DUP3 ADD SWAP1 POP DUP2 DUP2 SUB PUSH0 DUP4 ADD MSTORE PUSH2 0x7A8 DUP2 PUSH2 0x76F JUMP JUMPDEST SWAP1 POP SWAP2 SWAP1 POP JUMP JUMPDEST PUSH0 DUP2 SWAP1 POP SWAP2 SWAP1 POP JUMP JUMPDEST PUSH32 0x4E487B7100000000000000000000000000000000000000000000000000000000 PUSH0 MSTORE PUSH1 0x11 PUSH1 0x4 MSTORE PUSH1 0x24 PUSH0 REVERT JUMPDEST PUSH0 PUSH2 0x7EF DUP3 PUSH2 0x7AF JUMP JUMPDEST SWAP2 POP PUSH2 0x7FA DUP4 PUSH2 0x7AF JUMP JUMPDEST SWAP3 POP DUP3 DUP3 SUB SWAP1 POP DUP2 DUP2 GT ISZERO PUSH2 0x812 JUMPI PUSH2 0x811 PUSH2 0x7B8 JUMP JUMPDEST JUMPDEST SWAP3 SWAP2 POP POP JUMP JUMPDEST PUSH0 DUP2 MLOAD SWAP1 POP SWAP2 SWAP1 POP JUMP JUMPDEST PUSH0 DUP3 DUP3 MSTORE PUSH1 0x20 DUP3 ADD SWAP1 POP SWAP3 SWAP2 POP POP JUMP JUMPDEST PUSH0 DUP2 SWAP1 POP PUSH1 0x20 DUP3 ADD SWAP1 POP SWAP2 SWAP1 POP JUMP JUMPDEST PUSH2 0x84A DUP2 PUSH2 0x7AF JUMP JUMPDEST DUP3 MSTORE POP POP JUMP JUMPDEST PUSH0 PUSH2 0x85B DUP4 DUP4 PUSH2 0x841 JUMP JUMPDEST PUSH1 0x20 DUP4 ADD SWAP1 POP SWAP3 SWAP2 POP POP JUMP JUMPDEST PUSH0 PUSH1 0x20 DUP3 ADD SWAP1 POP SWAP2 SWAP1 POP JUMP JUMPDEST PUSH0 PUSH2 0x87D DUP3 PUSH2 0x818 JUMP JUMPDEST PUSH2 0x887 DUP2 DUP6 PUSH2 0x822 JUMP JUMPDEST SWAP4 POP PUSH2 0x892 DUP4 PUSH2 0x832 JUMP JUMPDEST DUP1 PUSH0 JUMPDEST DUP4 DUP2 LT ISZERO PUSH2 0x8C2 JUMPI DUP2 MLOAD PUSH2 0x8A9 DUP9 DUP3 PUSH2 0x850 JUMP JUMPDEST SWAP8 POP PUSH2 0x8B4 DUP4 PUSH2 0x867 JUMP JUMPDEST SWAP3 POP POP PUSH1 0x1 DUP2 ADD SWAP1 POP PUSH2 0x895 JUMP JUMPDEST POP DUP6 SWAP4 POP POP POP POP SWAP3 SWAP2 POP POP JUMP JUMPDEST PUSH0 PUSH1 0x20 DUP3 ADD SWAP1 POP DUP2 DUP2 SUB PUSH0 DUP4 ADD MSTORE PUSH2 0x8E7 DUP2 DUP5 PUSH2 0x873 JUMP JUMPDEST SWAP1 POP SWAP3 SWAP2 POP POP JUMP JUMPDEST PUSH2 0x8F8 DUP2 PUSH2 0x7AF JUMP JUMPDEST DUP2 EQ PUSH2 0x902 JUMPI PUSH0 DUP1 REVERT JUMPDEST POP JUMP JUMPDEST PUSH0 DUP2 MLOAD SWAP1 POP PUSH2 0x913 DUP2 PUSH2 0x8EF JUMP JUMPDEST SWAP3 SWAP2 POP POP JUMP JUMPDEST PUSH0 DUP1 PUSH1 0x40 DUP4 DUP6 SUB SLT ISZERO PUSH2 0x92F JUMPI PUSH2 0x92E PUSH2 0x5F2 JUMP JUMPDEST JUMPDEST PUSH0 PUSH2 0x93C DUP6 DUP3 DUP7 ADD PUSH2 0x905 JUMP JUMPDEST SWAP3 POP POP PUSH1 0x20 PUSH2 0x94D DUP6 DUP3 DUP7 ADD PUSH2 0x905 JUMP JUMPDEST SWAP2 POP POP SWAP3 POP SWAP3 SWAP1 POP JUMP JUMPDEST PUSH32 0x4E487B7100000000000000000000000000000000000000000000000000000000 PUSH0 MSTORE PUSH1 0x32 PUSH1 0x4 MSTORE PUSH1 0x24 PUSH0 REVERT INVALID LOG2 PUSH5 0x6970667358 0x22 SLT KECCAK256 XOR SWAP4 0xC0 0xBE BLOBHASH 0xDE PUSH0 PUSH22 0x86F55008373A5E6ADD4B88AAF7580D1638BA0E540EC2 LOG0 0xC4 PUSH5 0x736F6C6343 STOP ADDMOD BYTE STOP CALLER PUSH1 0x80 PUSH1 0x40 MSTORE PUSH0 DUP1 SSTORE PUSH0 PUSH1 0x1 SSTORE PUSH0 PUSH1 0x2 SSTORE CALLVALUE DUP1 ISZERO PUSH1 0x19 JUMPI PUSH0 DUP1 REVERT JUMPDEST POP PUSH2 0x46B DUP1 PUSH2 0x27 PUSH0 CODECOPY PUSH0 RETURN INVALID PUSH1 0x80 PUSH1 0x40 MSTORE PUSH1 0x4 CALLDATASIZE LT PUSH2 0x4D JUMPI PUSH0 CALLDATALOAD PUSH1 0xE0 SHR DUP1 PUSH4 0xBC59F4F EQ PUSH2 0x56 JUMPI DUP1 PUSH4 0x14F6F57A EQ PUSH2 0x60 JUMPI DUP1 PUSH4 0xA48BDB7C EQ PUSH2 0x9D JUMPI DUP1 PUSH4 0xC6616C46 EQ PUSH2 0xCA JUMPI DUP1 PUSH4 0xDE6DE521 EQ PUSH2 0xE0 JUMPI PUSH2 0x54 JUMP JUMPDEST CALLDATASIZE PUSH2 0x54 JUMPI STOP JUMPDEST STOP JUMPDEST PUSH2 0x5E PUSH2 0xF6 JUMP JUMPDEST STOP JUMPDEST CALLVALUE DUP1 ISZERO PUSH2 0x6B JUMPI PUSH0 DUP1 REVERT JUMPDEST POP PUSH2 0x86 PUSH1 0x4 DUP1 CALLDATASIZE SUB DUP2 ADD SWAP1 PUSH2 0x81 SWAP2 SWAP1 PUSH2 0x2A8 JUMP JUMPDEST PUSH2 0x110 JUMP JUMPDEST PUSH1 0x40 MLOAD PUSH2 0x94 SWAP3 SWAP2 SWAP1 PUSH2 0x30B JUMP JUMPDEST PUSH1 0x40 MLOAD DUP1 SWAP2 SUB SWAP1 RETURN JUMPDEST CALLVALUE DUP1 ISZERO PUSH2 0xA8 JUMPI PUSH0 DUP1 REVERT JUMPDEST POP PUSH2 0xB1 PUSH2 0x1EF JUMP JUMPDEST PUSH1 0x40 MLOAD PUSH2 0xC1 SWAP5 SWAP4 SWAP3 SWAP2 SWAP1 PUSH2 0x332 JUMP JUMPDEST PUSH1 0x40 MLOAD DUP1 SWAP2 SUB SWAP1 RETURN JUMPDEST CALLVALUE DUP1 ISZERO PUSH2 0xD5 JUMPI PUSH0 DUP1 REVERT JUMPDEST POP PUSH2 0xDE PUSH2 0x20A JUMP JUMPDEST STOP JUMPDEST CALLVALUE DUP1 ISZERO PUSH2 0xEB JUMPI PUSH0 DUP1 REVERT JUMPDEST POP PUSH2 0xF4 PUSH2 0x225 JUMP JUMPDEST STOP JUMPDEST PUSH1 0x1 DUP1 PUSH0 DUP3 DUP3 SLOAD PUSH2 0x107 SWAP2 SWAP1 PUSH2 0x3A2 JUMP JUMPDEST SWAP3 POP POP DUP2 SWAP1 SSTORE POP JUMP JUMPDEST PUSH0 DUP1 PUSH0 JUMPDEST DUP5 DUP5 SWAP1 POP DUP2 LT ISZERO PUSH2 0x17F JUMPI PUSH1 0x1 DUP6 DUP6 DUP4 DUP2 DUP2 LT PUSH2 0x134 JUMPI PUSH2 0x133 PUSH2 0x3D5 JUMP JUMPDEST JUMPDEST SWAP1 POP PUSH1 0x20 MUL ADD CALLDATALOAD GT ISZERO PUSH2 0x172 JUMPI DUP1 PUSH1 0x1 DUP7 DUP7 DUP5 DUP2 DUP2 LT PUSH2 0x157 JUMPI PUSH2 0x156 PUSH2 0x3D5 JUMP JUMPDEST JUMPDEST SWAP1 POP PUSH1 0x20 MUL ADD CALLDATALOAD PUSH2 0x168 SWAP2 SWAP1 PUSH2 0x402 JUMP JUMPDEST SWAP3 POP SWAP3 POP POP PUSH2 0x1E8 JUMP JUMPDEST DUP1 DUP1 PUSH1 0x1 ADD SWAP2 POP POP PUSH2 0x114 JUMP JUMPDEST POP PUSH0 JUMPDEST DUP5 DUP5 SWAP1 POP DUP2 LT ISZERO PUSH2 0x1E0 JUMPI PUSH0 DUP6 DUP6 DUP4 DUP2 DUP2 LT PUSH2 0x1A1 JUMPI PUSH2 0x1A0 PUSH2 0x3D5 JUMP JUMPDEST JUMPDEST SWAP1 POP PUSH1 0x20 MUL ADD CALLDATALOAD GT ISZERO PUSH2 0x1D3 JUMPI DUP1 DUP6 DUP6 DUP4 DUP2 DUP2 LT PUSH2 0x1C2 JUMPI PUSH2 0x1C1 PUSH2 0x3D5 JUMP JUMPDEST JUMPDEST SWAP1 POP PUSH1 0x20 MUL ADD CALLDATALOAD SWAP3 POP SWAP3 POP POP PUSH2 0x1E8 JUMP JUMPDEST DUP1 DUP1 PUSH1 0x1 ADD SWAP2 POP POP PUSH2 0x182 JUMP JUMPDEST POP PUSH0 DUP1 SWAP2 POP SWAP2 POP JUMPDEST SWAP3 POP SWAP3 SWAP1 POP JUMP JUMPDEST PUSH0 DUP1 PUSH0 DUP1 PUSH1 0x1 SLOAD PUSH0 SLOAD PUSH1 0x2 SLOAD SELFBALANCE SWAP4 POP SWAP4 POP SWAP4 POP SWAP4 POP SWAP1 SWAP2 SWAP3 SWAP4 JUMP JUMPDEST PUSH1 0x1 PUSH1 0x2 PUSH0 DUP3 DUP3 SLOAD PUSH2 0x21C SWAP2 SWAP1 PUSH2 0x3A2 JUMP JUMPDEST SWAP3 POP POP DUP2 SWAP1 SSTORE POP JUMP JUMPDEST PUSH1 0x1 PUSH0 DUP1 DUP3 DUP3 SLOAD PUSH2 0x236 SWAP2 SWAP1 PUSH2 0x3A2 JUMP JUMPDEST SWAP3 POP POP DUP2 SWAP1 SSTORE POP JUMP JUMPDEST PUSH0 DUP1 REVERT JUMPDEST PUSH0 DUP1 REVERT JUMPDEST PUSH0 DUP1 REVERT JUMPDEST PUSH0 DUP1 REVERT JUMPDEST PUSH0 DUP1 REVERT JUMPDEST PUSH0 DUP1 DUP4 PUSH1 0x1F DUP5 ADD SLT PUSH2 0x268 JUMPI PUSH2 0x267 PUSH2 0x247 JUMP JUMPDEST JUMPDEST DUP3 CALLDATALOAD SWAP1 POP PUSH8 0xFFFFFFFFFFFFFFFF DUP2 GT ISZERO PUSH2 0x285 JUMPI PUSH2 0x284 PUSH2 0x24B JUMP JUMPDEST JUMPDEST PUSH1 0x20 DUP4 ADD SWAP2 POP DUP4 PUSH1 0x20 DUP3 MUL DUP4 ADD GT ISZERO PUSH2 0x2A1 JUMPI PUSH2 0x2A0 PUSH2 0x24F JUMP JUMPDEST JUMPDEST SWAP3 POP SWAP3 SWAP1 POP JUMP JUMPDEST PUSH0 DUP1 PUSH1 0x20 DUP4 DUP6 SUB SLT ISZERO PUSH2 0x2BE JUMPI PUSH2 0x2BD PUSH2 0x23F JUMP JUMPDEST JUMPDEST PUSH0 DUP4 ADD CALLDATALOAD PUSH8 0xFFFFFFFFFFFFFFFF DUP2 GT ISZERO PUSH2 0x2DB JUMPI PUSH2 0x2DA PUSH2 0x243 JUMP JUMPDEST JUMPDEST PUSH2 0x2E7 DUP6 DUP3 DUP7 ADD PUSH2 0x253 JUMP JUMPDEST SWAP3 POP SWAP3 POP POP SWAP3 POP SWAP3 SWAP1 POP JUMP JUMPDEST PUSH0 DUP2 SWAP1 POP SWAP2 SWAP1 POP JUMP JUMPDEST PUSH2 0x305 DUP2 PUSH2 0x2F3 JUMP JUMPDEST DUP3 MSTORE POP POP JUMP JUMPDEST PUSH0 PUSH1 0x40 DUP3 ADD SWAP1 POP PUSH2 0x31E PUSH0 DUP4 ADD DUP6 PUSH2 0x2FC JUMP JUMPDEST PUSH2 0x32B PUSH1 0x20 DUP4 ADD DUP5 PUSH2 0x2FC JUMP JUMPDEST SWAP4 SWAP3 POP POP POP JUMP JUMPDEST PUSH0 PUSH1 0x80 DUP3 ADD SWAP1 POP PUSH2 0x345 PUSH0 DUP4 ADD DUP8 PUSH2 0x2FC JUMP JUMPDEST PUSH2 0x352 PUSH1 0x20 DUP4 ADD DUP7 PUSH2 0x2FC JUMP JUMPDEST PUSH2 0x35F PUSH1 0x40 DUP4 ADD DUP6 PUSH2 0x2FC JUMP JUMPDEST PUSH2 0x36C PUSH1 0x60 DUP4 ADD DUP5 PUSH2 0x2FC JUMP JUMPDEST SWAP6 SWAP5 POP POP POP POP POP JUMP JUMPDEST PUSH32 0x4E487B7100000000000000000000000000000000000000000000000000000000 PUSH0 MSTORE PUSH1 0x11 PUSH1 0x4 MSTORE PUSH1 0x24 PUSH0 REVERT JUMPDEST PUSH0 PUSH2 0x3AC DUP3 PUSH2 0x2F3 JUMP JUMPDEST SWAP2 POP PUSH2 0x3B7 DUP4 PUSH2 0x2F3 JUMP JUMPDEST SWAP3 POP DUP3 DUP3 ADD SWAP1 POP DUP1 DUP3 GT ISZERO PUSH2 0x3CF JUMPI PUSH2 0x3CE PUSH2 0x375 JUMP JUMPDEST JUMPDEST SWAP3 SWAP2 POP POP JUMP JUMPDEST PUSH32 0x4E487B7100000000000000000000000000000000000000000000000000000000 PUSH0 MSTORE PUSH1 0x32 PUSH1 0x4 MSTORE PUSH1 0x24 PUSH0 REVERT JUMPDEST PUSH0 PUSH2 0x40C DUP3 PUSH2 0x2F3 JUMP JUMPDEST SWAP2 POP PUSH2 0x417 DUP4 PUSH2 0x2F3 JUMP JUMPDEST SWAP3 POP DUP3 DUP3 SUB SWAP1 POP DUP2 DUP2 GT ISZERO PUSH2 0x42F JUMPI PUSH2 0x42E PUSH2 0x375 JUMP JUMPDEST JUMPDEST SWAP3 SWAP2 POP POP JUMP INVALID LOG2 PUSH5 0x6970667358 0x22 SLT KECCAK256 0x4B 0xE8 PUSH23 0x6E5C887CF670A18FFF017AA829A321B015A812302EC63A 0xFB DUP3 0xE9 EXTCODESIZE 0xCA INVALID PUSH5 0x736F6C6343 STOP ADDMOD BYTE STOP CALLER LOG2 PUSH5 0x6970667358 0x22 SLT KECCAK256 PUSH27 0x6A010BE08202EC7E8B9DF32E584ED9FEE21EA856AA2D6EB854DE37 0xB8 MUL JUMPI ISZERO PUSH5 0x736F6C6343 STOP ADDMOD BYTE STOP CALLER "
		},
		"gasEstimates": {
			"creation": {
				"codeDepositCost": "1184800",
				"executionCost": "1232",
				"totalCost": "1186032"
			},
			"external": {
				"": "128",
				"Deploy()": "infinite",
				"play(uint256,uint256,uint256[],uint256)": "infinite",
				"viewPlayer(uint256)": "infinite"
			}
		},
		"methodIdentifiers": {
			"Deploy()": "d9659eff",
			"play(uint256,uint256,uint256[],uint256)": "f5790670",
			"viewPlayer(uint256)": "fa252f55"
		}
	},
	"abi": [
		{
			"stateMutability": "payable",
			"type": "fallback"
		},
		{
			"inputs": [],
			"name": "Deploy",
			"outputs": [],
			"stateMutability": "nonpayable",
			"type": "function"
		},
		{
			"inputs": [
				{
					"internalType": "uint256",
					"name": "p1",
					"type": "uint256"
				},
				{
					"internalType": "uint256",
					"name": "p2",
					"type": "uint256"
				},
				{
					"internalType": "uint256[]",
					"name": "piles",
					"type": "uint256[]"
				},
				{
					"internalType": "uint256",
					"name": "value",
					"type": "uint256"
				}
			],
			"name": "play",
			"outputs": [],
			"stateMutability": "nonpayable",
			"type": "function"
		},
		{
			"inputs": [
				{
					"internalType": "uint256",
					"name": "p",
					"type": "uint256"
				}
			],
			"name": "viewPlayer",
			"outputs": [
				{
					"internalType": "uint256",
					"name": "",
					"type": "uint256"
				},
				{
					"internalType": "uint256",
					"name": "",
					"type": "uint256"
				},
				{
					"internalType": "uint256",
					"name": "",
					"type": "uint256"
				},
				{
					"internalType": "uint256",
					"name": "",
					"type": "uint256"
				}
			],
			"stateMutability": "view",
			"type": "function"
		},
		{
			"stateMutability": "payable",
			"type": "receive"
		}
	]
}